{
  "_format": "hh-sol-artifact-1",
  "contractName": "PostsFacet",
  "sourceName": "contracts/facets/PostsFacet.sol",
  "abi": [
    {
      "anonymous": false,
      "inputs": [
        {
          "indexed": false,
          "internalType": "uint256",
          "name": "id",
          "type": "uint256"
        },
        {
          "indexed": false,
          "internalType": "string",
          "name": "title",
          "type": "string"
        },
        {
          "indexed": false,
          "internalType": "string",
          "name": "hash",
          "type": "string"
        }
      ],
      "name": "PostCreated",
      "type": "event"
    },
    {
      "inputs": [
        {
          "internalType": "string",
          "name": "_title",
          "type": "string"
        },
        {
          "internalType": "string",
          "name": "_hash",
          "type": "string"
        },
        {
          "components": [
            {
              "internalType": "address",
              "name": "author",
              "type": "address"
            },
            {
              "internalType": "string",
              "name": "authorName",
              "type": "string"
            },
            {
              "internalType": "uint256",
              "name": "authorWeight",
              "type": "uint256"
            }
          ],
          "internalType": "struct PostAuthors[]",
          "name": "_authors",
          "type": "tuple[]"
        }
      ],
      "name": "createPost",
      "outputs": [],
      "stateMutability": "nonpayable",
      "type": "function"
    },
    {
      "inputs": [
        {
          "internalType": "string",
          "name": "hash",
          "type": "string"
        }
      ],
      "name": "fetchPost",
      "outputs": [
        {
          "components": [
            {
              "internalType": "uint256",
              "name": "id",
              "type": "uint256"
            },
            {
              "internalType": "string",
              "name": "title",
              "type": "string"
            },
            {
              "internalType": "string",
              "name": "contentHash",
              "type": "string"
            },
            {
              "internalType": "string",
              "name": "initReviewtHash",
              "type": "string"
            },
            {
              "components": [
                {
                  "internalType": "string",
                  "name": "catId",
                  "type": "string"
                },
                {
                  "internalType": "uint256",
                  "name": "impact",
                  "type": "uint256"
                }
              ],
              "internalType": "struct PostCategories[]",
              "name": "postCat",
              "type": "tuple[]"
            },
            {
              "components": [
                {
                  "internalType": "uint256",
                  "name": "id",
                  "type": "uint256"
                },
                {
                  "internalType": "string",
                  "name": "contentHash",
                  "type": "string"
                },
                {
                  "internalType": "uint256",
                  "name": "percentInfluence",
                  "type": "uint256"
                }
              ],
              "internalType": "struct PostInflueces[]",
              "name": "postInf",
              "type": "tuple[]"
            },
            {
              "components": [
                {
                  "internalType": "address",
                  "name": "author",
                  "type": "address"
                },
                {
                  "internalType": "string",
                  "name": "authorName",
                  "type": "string"
                },
                {
                  "internalType": "uint256",
                  "name": "authorWeight",
                  "type": "uint256"
                }
              ],
              "internalType": "struct PostAuthors[]",
              "name": "postAuth",
              "type": "tuple[]"
            },
            {
              "components": [
                {
                  "internalType": "address",
                  "name": "reviewer",
                  "type": "address"
                },
                {
                  "internalType": "string",
                  "name": "reviewHash",
                  "type": "string"
                },
                {
                  "internalType": "uint256",
                  "name": "reviewerTotalWeight",
                  "type": "uint256"
                },
                {
                  "internalType": "uint256",
                  "name": "reviewerCatWeight",
                  "type": "uint256"
                },
                {
                  "internalType": "bool",
                  "name": "accepted",
                  "type": "bool"
                },
                {
                  "internalType": "uint256",
                  "name": "expectedReviewPercent",
                  "type": "uint256"
                },
                {
                  "components": [
                    {
                      "internalType": "uint256",
                      "name": "id",
                      "type": "uint256"
                    },
                    {
                      "internalType": "string",
                      "name": "contentHash",
                      "type": "string"
                    },
                    {
                      "internalType": "uint256",
                      "name": "percentInfluence",
                      "type": "uint256"
                    }
                  ],
                  "internalType": "struct PostReviewInflueces[]",
                  "name": "reviewInfluence",
                  "type": "tuple[]"
                },
                {
                  "components": [
                    {
                      "internalType": "string",
                      "name": "catId",
                      "type": "string"
                    },
                    {
                      "internalType": "uint256",
                      "name": "impact",
                      "type": "uint256"
                    }
                  ],
                  "internalType": "struct PostReviewCategories[]",
                  "name": "reviewCat",
                  "type": "tuple[]"
                },
                {
                  "components": [
                    {
                      "internalType": "address",
                      "name": "author",
                      "type": "address"
                    },
                    {
                      "internalType": "uint256",
                      "name": "authorWeight",
                      "type": "uint256"
                    }
                  ],
                  "internalType": "struct PostReviewAuthors[]",
                  "name": "reviewAuthor",
                  "type": "tuple[]"
                }
              ],
              "internalType": "struct PostReview[]",
              "name": "postReview",
              "type": "tuple[]"
            },
            {
              "internalType": "bool",
              "name": "initialReview",
              "type": "bool"
            },
            {
              "internalType": "bool",
              "name": "challenged",
              "type": "bool"
            },
            {
              "internalType": "address[]",
              "name": "reviewsList",
              "type": "address[]"
            },
            {
              "internalType": "uint256",
              "name": "reqExpertise",
              "type": "uint256"
            },
            {
              "internalType": "uint256",
              "name": "lockExpiration",
              "type": "uint256"
            },
            {
              "internalType": "uint256",
              "name": "CrS",
              "type": "uint256"
            },
            {
              "internalType": "uint256",
              "name": "IS",
              "type": "uint256"
            },
            {
              "internalType": "uint256",
              "name": "postValue",
              "type": "uint256"
            },
            {
              "internalType": "uint256",
              "name": "timestamp",
              "type": "uint256"
            }
          ],
          "internalType": "struct Post",
          "name": "",
          "type": "tuple"
        }
      ],
      "stateMutability": "view",
      "type": "function"
    },
    {
      "inputs": [
        {
          "internalType": "string",
          "name": "hash",
          "type": "string"
        }
      ],
      "name": "fetchPostTitle",
      "outputs": [
        {
          "internalType": "string",
          "name": "",
          "type": "string"
        }
      ],
      "stateMutability": "view",
      "type": "function"
    },
    {
      "inputs": [],
      "name": "fetchPosts",
      "outputs": [
        {
          "components": [
            {
              "internalType": "uint256",
              "name": "id",
              "type": "uint256"
            },
            {
              "internalType": "string",
              "name": "title",
              "type": "string"
            },
            {
              "internalType": "string",
              "name": "contentHash",
              "type": "string"
            },
            {
              "internalType": "string",
              "name": "initReviewtHash",
              "type": "string"
            },
            {
              "components": [
                {
                  "internalType": "string",
                  "name": "catId",
                  "type": "string"
                },
                {
                  "internalType": "uint256",
                  "name": "impact",
                  "type": "uint256"
                }
              ],
              "internalType": "struct PostCategories[]",
              "name": "postCat",
              "type": "tuple[]"
            },
            {
              "components": [
                {
                  "internalType": "uint256",
                  "name": "id",
                  "type": "uint256"
                },
                {
                  "internalType": "string",
                  "name": "contentHash",
                  "type": "string"
                },
                {
                  "internalType": "uint256",
                  "name": "percentInfluence",
                  "type": "uint256"
                }
              ],
              "internalType": "struct PostInflueces[]",
              "name": "postInf",
              "type": "tuple[]"
            },
            {
              "components": [
                {
                  "internalType": "address",
                  "name": "author",
                  "type": "address"
                },
                {
                  "internalType": "string",
                  "name": "authorName",
                  "type": "string"
                },
                {
                  "internalType": "uint256",
                  "name": "authorWeight",
                  "type": "uint256"
                }
              ],
              "internalType": "struct PostAuthors[]",
              "name": "postAuth",
              "type": "tuple[]"
            },
            {
              "components": [
                {
                  "internalType": "address",
                  "name": "reviewer",
                  "type": "address"
                },
                {
                  "internalType": "string",
                  "name": "reviewHash",
                  "type": "string"
                },
                {
                  "internalType": "uint256",
                  "name": "reviewerTotalWeight",
                  "type": "uint256"
                },
                {
                  "internalType": "uint256",
                  "name": "reviewerCatWeight",
                  "type": "uint256"
                },
                {
                  "internalType": "bool",
                  "name": "accepted",
                  "type": "bool"
                },
                {
                  "internalType": "uint256",
                  "name": "expectedReviewPercent",
                  "type": "uint256"
                },
                {
                  "components": [
                    {
                      "internalType": "uint256",
                      "name": "id",
                      "type": "uint256"
                    },
                    {
                      "internalType": "string",
                      "name": "contentHash",
                      "type": "string"
                    },
                    {
                      "internalType": "uint256",
                      "name": "percentInfluence",
                      "type": "uint256"
                    }
                  ],
                  "internalType": "struct PostReviewInflueces[]",
                  "name": "reviewInfluence",
                  "type": "tuple[]"
                },
                {
                  "components": [
                    {
                      "internalType": "string",
                      "name": "catId",
                      "type": "string"
                    },
                    {
                      "internalType": "uint256",
                      "name": "impact",
                      "type": "uint256"
                    }
                  ],
                  "internalType": "struct PostReviewCategories[]",
                  "name": "reviewCat",
                  "type": "tuple[]"
                },
                {
                  "components": [
                    {
                      "internalType": "address",
                      "name": "author",
                      "type": "address"
                    },
                    {
                      "internalType": "uint256",
                      "name": "authorWeight",
                      "type": "uint256"
                    }
                  ],
                  "internalType": "struct PostReviewAuthors[]",
                  "name": "reviewAuthor",
                  "type": "tuple[]"
                }
              ],
              "internalType": "struct PostReview[]",
              "name": "postReview",
              "type": "tuple[]"
            },
            {
              "internalType": "bool",
              "name": "initialReview",
              "type": "bool"
            },
            {
              "internalType": "bool",
              "name": "challenged",
              "type": "bool"
            },
            {
              "internalType": "address[]",
              "name": "reviewsList",
              "type": "address[]"
            },
            {
              "internalType": "uint256",
              "name": "reqExpertise",
              "type": "uint256"
            },
            {
              "internalType": "uint256",
              "name": "lockExpiration",
              "type": "uint256"
            },
            {
              "internalType": "uint256",
              "name": "CrS",
              "type": "uint256"
            },
            {
              "internalType": "uint256",
              "name": "IS",
              "type": "uint256"
            },
            {
              "internalType": "uint256",
              "name": "postValue",
              "type": "uint256"
            },
            {
              "internalType": "uint256",
              "name": "timestamp",
              "type": "uint256"
            }
          ],
          "internalType": "struct Post[]",
          "name": "",
          "type": "tuple[]"
        }
      ],
      "stateMutability": "view",
      "type": "function"
    }
  ],
  "bytecode": "0x608060405234801561001057600080fd5b50613b09806100206000396000f3fe608060405234801561001057600080fd5b506004361061004c5760003560e01c80630a521af9146100515780634482865914610081578063abaddd7f146100b1578063adcb45fb146100cf575b600080fd5b61006b60048036038101906100669190612883565b6100eb565b60405161007891906134e5565b60405180910390f35b61009b60048036038101906100969190612883565b6101a1565b6040516100a89190613507565b60405180910390f35b6100b9610c2e565b6040516100c691906134c3565b60405180910390f35b6100e960048036038101906100e491906128cc565b611765565b005b606060006004018260405161010091906134ac565b9081526020016040518091039020600101805461011c90613909565b80601f016020809104026020016040519081016040528092919081815260200182805461014890613909565b80156101955780601f1061016a57610100808354040283529160200191610195565b820191906000526020600020905b81548152906001019060200180831161017857829003601f168201915b50505050509050919050565b6101a9611ca8565b6000600401826040516101bc91906134ac565b908152602001604051809103902060405180610220016040529081600082015481526020016001820180546101f090613909565b80601f016020809104026020016040519081016040528092919081815260200182805461021c90613909565b80156102695780601f1061023e57610100808354040283529160200191610269565b820191906000526020600020905b81548152906001019060200180831161024c57829003601f168201915b5050505050815260200160028201805461028290613909565b80601f01602080910402602001604051908101604052809291908181526020018280546102ae90613909565b80156102fb5780601f106102d0576101008083540402835291602001916102fb565b820191906000526020600020905b8154815290600101906020018083116102de57829003601f168201915b5050505050815260200160038201805461031490613909565b80601f016020809104026020016040519081016040528092919081815260200182805461034090613909565b801561038d5780601f106103625761010080835404028352916020019161038d565b820191906000526020600020905b81548152906001019060200180831161037057829003601f168201915b5050505050815260200160048201805480602002602001604051908101604052809291908181526020016000905b8282101561048957838290600052602060002090600202016040518060400160405290816000820180546103ee90613909565b80601f016020809104026020016040519081016040528092919081815260200182805461041a90613909565b80156104675780601f1061043c57610100808354040283529160200191610467565b820191906000526020600020905b81548152906001019060200180831161044a57829003601f168201915b50505050508152602001600182015481525050815260200190600101906103bb565b50505050815260200160058201805480602002602001604051908101604052809291908181526020016000905b8282101561058e5783829060005260206000209060030201604051806060016040529081600082015481526020016001820180546104f390613909565b80601f016020809104026020016040519081016040528092919081815260200182805461051f90613909565b801561056c5780601f106105415761010080835404028352916020019161056c565b820191906000526020600020905b81548152906001019060200180831161054f57829003601f168201915b50505050508152602001600282015481525050815260200190600101906104b6565b50505050815260200160068201805480602002602001604051908101604052809291908181526020016000905b828210156106df57838290600052602060002090600302016040518060600160405290816000820160009054906101000a900473ffffffffffffffffffffffffffffffffffffffff1673ffffffffffffffffffffffffffffffffffffffff1673ffffffffffffffffffffffffffffffffffffffff16815260200160018201805461064490613909565b80601f016020809104026020016040519081016040528092919081815260200182805461067090613909565b80156106bd5780601f10610692576101008083540402835291602001916106bd565b820191906000526020600020905b8154815290600101906020018083116106a057829003601f168201915b50505050508152602001600282015481525050815260200190600101906105bb565b50505050815260200160078201805480602002602001604051908101604052809291908181526020016000905b82821015610b1f5783829060005260206000209060090201604051806101200160405290816000820160009054906101000a900473ffffffffffffffffffffffffffffffffffffffff1673ffffffffffffffffffffffffffffffffffffffff1673ffffffffffffffffffffffffffffffffffffffff16815260200160018201805461079690613909565b80601f01602080910402602001604051908101604052809291908181526020018280546107c290613909565b801561080f5780601f106107e45761010080835404028352916020019161080f565b820191906000526020600020905b8154815290600101906020018083116107f257829003601f168201915b5050505050815260200160028201548152602001600382015481526020016004820160009054906101000a900460ff161515151581526020016005820154815260200160068201805480602002602001604051908101604052809291908181526020016000905b8282101561094e5783829060005260206000209060030201604051806060016040529081600082015481526020016001820180546108b390613909565b80601f01602080910402602001604051908101604052809291908181526020018280546108df90613909565b801561092c5780601f106109015761010080835404028352916020019161092c565b820191906000526020600020905b81548152906001019060200180831161090f57829003601f168201915b5050505050815260200160028201548152505081526020019060010190610876565b50505050815260200160078201805480602002602001604051908101604052809291908181526020016000905b82821015610a4957838290600052602060002090600202016040518060400160405290816000820180546109ae90613909565b80601f01602080910402602001604051908101604052809291908181526020018280546109da90613909565b8015610a275780601f106109fc57610100808354040283529160200191610a27565b820191906000526020600020905b815481529060010190602001808311610a0a57829003601f168201915b505050505081526020016001820154815250508152602001906001019061097b565b50505050815260200160088201805480602002602001604051908101604052809291908181526020016000905b82821015610b0857838290600052602060002090600202016040518060400160405290816000820160009054906101000a900473ffffffffffffffffffffffffffffffffffffffff1673ffffffffffffffffffffffffffffffffffffffff1673ffffffffffffffffffffffffffffffffffffffff16815260200160018201548152505081526020019060010190610a76565b50505050815250508152602001906001019061070c565b5050505081526020016008820160009054906101000a900460ff161515151581526020016008820160019054906101000a900460ff1615151515815260200160098201805480602002602001604051908101604052809291908181526020018280548015610be257602002820191906000526020600020905b8160009054906101000a900473ffffffffffffffffffffffffffffffffffffffff1673ffffffffffffffffffffffffffffffffffffffff1681526020019060010190808311610b98575b50505050508152602001600a8201548152602001600b8201548152602001600c8201548152602001600d8201548152602001600e8201548152602001600f820154815250509050919050565b60606000610c3c601f611c84565b905060008167ffffffffffffffff811115610c5a57610c59613a42565b5b604051908082528060200260200182016040528015610c9357816020015b610c80611ca8565b815260200190600190039081610c785790505b50905060005b8281101561175c576000600182610cb09190613829565b905060008060030160008381526020019081526020016000209050806040518061022001604052908160008201548152602001600182018054610cf290613909565b80601f0160208091040260200160405190810160405280929190818152602001828054610d1e90613909565b8015610d6b5780601f10610d4057610100808354040283529160200191610d6b565b820191906000526020600020905b815481529060010190602001808311610d4e57829003601f168201915b50505050508152602001600282018054610d8490613909565b80601f0160208091040260200160405190810160405280929190818152602001828054610db090613909565b8015610dfd5780601f10610dd257610100808354040283529160200191610dfd565b820191906000526020600020905b815481529060010190602001808311610de057829003601f168201915b50505050508152602001600382018054610e1690613909565b80601f0160208091040260200160405190810160405280929190818152602001828054610e4290613909565b8015610e8f5780601f10610e6457610100808354040283529160200191610e8f565b820191906000526020600020905b815481529060010190602001808311610e7257829003601f168201915b5050505050815260200160048201805480602002602001604051908101604052809291908181526020016000905b82821015610f8b5783829060005260206000209060020201604051806040016040529081600082018054610ef090613909565b80601f0160208091040260200160405190810160405280929190818152602001828054610f1c90613909565b8015610f695780601f10610f3e57610100808354040283529160200191610f69565b820191906000526020600020905b815481529060010190602001808311610f4c57829003601f168201915b5050505050815260200160018201548152505081526020019060010190610ebd565b50505050815260200160058201805480602002602001604051908101604052809291908181526020016000905b82821015611090578382906000526020600020906003020160405180606001604052908160008201548152602001600182018054610ff590613909565b80601f016020809104026020016040519081016040528092919081815260200182805461102190613909565b801561106e5780601f106110435761010080835404028352916020019161106e565b820191906000526020600020905b81548152906001019060200180831161105157829003601f168201915b5050505050815260200160028201548152505081526020019060010190610fb8565b50505050815260200160068201805480602002602001604051908101604052809291908181526020016000905b828210156111e157838290600052602060002090600302016040518060600160405290816000820160009054906101000a900473ffffffffffffffffffffffffffffffffffffffff1673ffffffffffffffffffffffffffffffffffffffff1673ffffffffffffffffffffffffffffffffffffffff16815260200160018201805461114690613909565b80601f016020809104026020016040519081016040528092919081815260200182805461117290613909565b80156111bf5780601f10611194576101008083540402835291602001916111bf565b820191906000526020600020905b8154815290600101906020018083116111a257829003601f168201915b50505050508152602001600282015481525050815260200190600101906110bd565b50505050815260200160078201805480602002602001604051908101604052809291908181526020016000905b828210156116215783829060005260206000209060090201604051806101200160405290816000820160009054906101000a900473ffffffffffffffffffffffffffffffffffffffff1673ffffffffffffffffffffffffffffffffffffffff1673ffffffffffffffffffffffffffffffffffffffff16815260200160018201805461129890613909565b80601f01602080910402602001604051908101604052809291908181526020018280546112c490613909565b80156113115780601f106112e657610100808354040283529160200191611311565b820191906000526020600020905b8154815290600101906020018083116112f457829003601f168201915b5050505050815260200160028201548152602001600382015481526020016004820160009054906101000a900460ff161515151581526020016005820154815260200160068201805480602002602001604051908101604052809291908181526020016000905b828210156114505783829060005260206000209060030201604051806060016040529081600082015481526020016001820180546113b590613909565b80601f01602080910402602001604051908101604052809291908181526020018280546113e190613909565b801561142e5780601f106114035761010080835404028352916020019161142e565b820191906000526020600020905b81548152906001019060200180831161141157829003601f168201915b5050505050815260200160028201548152505081526020019060010190611378565b50505050815260200160078201805480602002602001604051908101604052809291908181526020016000905b8282101561154b57838290600052602060002090600202016040518060400160405290816000820180546114b090613909565b80601f01602080910402602001604051908101604052809291908181526020018280546114dc90613909565b80156115295780601f106114fe57610100808354040283529160200191611529565b820191906000526020600020905b81548152906001019060200180831161150c57829003601f168201915b505050505081526020016001820154815250508152602001906001019061147d565b50505050815260200160088201805480602002602001604051908101604052809291908181526020016000905b8282101561160a57838290600052602060002090600202016040518060400160405290816000820160009054906101000a900473ffffffffffffffffffffffffffffffffffffffff1673ffffffffffffffffffffffffffffffffffffffff1673ffffffffffffffffffffffffffffffffffffffff16815260200160018201548152505081526020019060010190611578565b50505050815250508152602001906001019061120e565b5050505081526020016008820160009054906101000a900460ff161515151581526020016008820160019054906101000a900460ff16151515158152602001600982018054806020026020016040519081016040528092919081815260200182805480156116e457602002820191906000526020600020905b8160009054906101000a900473ffffffffffffffffffffffffffffffffffffffff1673ffffffffffffffffffffffffffffffffffffffff168152602001906001019080831161169a575b50505050508152602001600a8201548152602001600b8201548152602001600c8201548152602001600d8201548152602001600e8201548152602001600f8201548152505084848151811061173c5761173b613a13565b5b6020026020010181905250505080806117549061396c565b915050610c99565b50809250505090565b61176f601f611c92565b600061177b601f611c84565b905060008060030160008381526020019081526020016000209050818160000181905550848160010190805190602001906117b7929190611d30565b50838160020190805190602001906117d0929190611d30565b5060008160080160006101000a81548160ff02191690831515021790555060008160080160016101000a81548160ff021916908315150217905550600081600a01819055504281600b0181905550600081600c0181905550600081600d0181905550600081600e01819055504281600f018190555060005b835181101561191c578160060184828151811061186857611867613a13565b5b6020026020010151908060018154018082558091505060019003906000526020600020906003020160009091909190915060008201518160000160006101000a81548173ffffffffffffffffffffffffffffffffffffffff021916908373ffffffffffffffffffffffffffffffffffffffff16021790555060208201518160010190805190602001906118fc929190611d30565b5060408201518160020155505080806119149061396c565b915050611848565b50806000600301600084815260200190815260200160002060008201548160000155600182018160010190805461195290613909565b61195d929190611db6565b50600282018160020190805461197290613909565b61197d929190611db6565b50600382018160030190805461199290613909565b61199d929190611db6565b5060048201816004019080546119b4929190611e43565b5060058201816005019080546119cb929190611ec5565b5060068201816006019080546119e2929190611f51565b5060078201816007019080546119f992919061203a565b506008820160009054906101000a900460ff168160080160006101000a81548160ff0219169083151502179055506008820160019054906101000a900460ff168160080160016101000a81548160ff0219169083151502179055506009820181600901908054611a6a9291906121a9565b50600a82015481600a0155600b82015481600b0155600c82015481600c0155600d82015481600d0155600e82015481600e0155600f82015481600f015590505080600060040185604051611abe91906134ac565b9081526020016040518091039020600082015481600001556001820181600101908054611aea90613909565b611af5929190611db6565b506002820181600201908054611b0a90613909565b611b15929190611db6565b506003820181600301908054611b2a90613909565b611b35929190611db6565b506004820181600401908054611b4c929190611e43565b506005820181600501908054611b63929190611ec5565b506006820181600601908054611b7a929190611f51565b506007820181600701908054611b9192919061203a565b506008820160009054906101000a900460ff168160080160006101000a81548160ff0219169083151502179055506008820160019054906101000a900460ff168160080160016101000a81548160ff0219169083151502179055506009820181600901908054611c029291906121a9565b50600a82015481600a0155600b82015481600b0155600c82015481600c0155600d82015481600d0155600e82015481600e0155600f82015481600f01559050507fe6851f0b99a9d86e5d68a97f65218980851216ce297f789c6b6b7e82ca1d90c8828686604051611c7593929190613529565b60405180910390a15050505050565b600081600001549050919050565b6001816000016000828254019250508190555050565b6040518061022001604052806000815260200160608152602001606081526020016060815260200160608152602001606081526020016060815260200160608152602001600015158152602001600015158152602001606081526020016000815260200160008152602001600081526020016000815260200160008152602001600081525090565b828054611d3c90613909565b90600052602060002090601f016020900481019282611d5e5760008555611da5565b82601f10611d7757805160ff1916838001178555611da5565b82800160010185558215611da5579182015b82811115611da4578251825591602001919060010190611d89565b5b509050611db291906121fb565b5090565b828054611dc290613909565b90600052602060002090601f016020900481019282611de45760008555611e32565b82601f10611df55780548555611e32565b82800160010185558215611e3257600052602060002091601f016020900482015b82811115611e31578254825591600101919060010190611e16565b5b509050611e3f91906121fb565b5090565b828054828255906000526020600020906002028101928215611eb45760005260206000209160020282015b82811115611eb35782826000820181600001908054611e8c90613909565b611e97929190611db6565b5060018201548160010155505091600201919060020190611e6e565b5b509050611ec19190612218565b5090565b828054828255906000526020600020906003028101928215611f405760005260206000209160030282015b82811115611f3f578282600082015481600001556001820181600101908054611f1890613909565b611f23929190611db6565b5060028201548160020155505091600301919060030190611ef0565b5b509050611f4d9190612247565b5090565b8280548282559060005260206000209060030281019282156120295760005260206000209160030282015b828111156120285782826000820160009054906101000a900473ffffffffffffffffffffffffffffffffffffffff168160000160006101000a81548173ffffffffffffffffffffffffffffffffffffffff021916908373ffffffffffffffffffffffffffffffffffffffff160217905550600182018160010190805461200190613909565b61200c929190611db6565b5060028201548160020155505091600301919060030190611f7c565b5b509050612036919061227e565b5090565b8280548282559060005260206000209060090281019282156121985760005260206000209160090282015b828111156121975782826000820160009054906101000a900473ffffffffffffffffffffffffffffffffffffffff168160000160006101000a81548173ffffffffffffffffffffffffffffffffffffffff021916908373ffffffffffffffffffffffffffffffffffffffff16021790555060018201816001019080546120ea90613909565b6120f5929190611db6565b5060028201548160020155600382015481600301556004820160009054906101000a900460ff168160040160006101000a81548160ff0219169083151502179055506005820154816005015560068201816006019080546121579291906122d4565b50600782018160070190805461216e929190612360565b5060088201816008019080546121859291906123e2565b50505091600901919060090190612065565b5b5090506121a591906124ab565b5090565b8280548282559060005260206000209081019282156121ea5760005260206000209182015b828111156121e95782548255916001019190600101906121ce565b5b5090506121f791906121fb565b5090565b5b808211156122145760008160009055506001016121fc565b5090565b5b8082111561224357600080820160006122329190612555565b600182016000905550600201612219565b5090565b5b8082111561227a576000808201600090556001820160006122699190612555565b600282016000905550600301612248565b5090565b5b808211156122d057600080820160006101000a81549073ffffffffffffffffffffffffffffffffffffffff02191690556001820160006122bf9190612555565b60028201600090555060030161227f565b5090565b82805482825590600052602060002090600302810192821561234f5760005260206000209160030282015b8281111561234e57828260008201548160000155600182018160010190805461232790613909565b612332929190611db6565b50600282015481600201555050916003019190600301906122ff565b5b50905061235c9190612595565b5090565b8280548282559060005260206000209060020281019282156123d15760005260206000209160020282015b828111156123d057828260008201816000019080546123a990613909565b6123b4929190611db6565b506001820154816001015550509160020191906002019061238b565b5b5090506123de91906125cc565b5090565b82805482825590600052602060002090600202810192821561249a5760005260206000209160020282015b828111156124995782826000820160009054906101000a900473ffffffffffffffffffffffffffffffffffffffff168160000160006101000a81548173ffffffffffffffffffffffffffffffffffffffff021916908373ffffffffffffffffffffffffffffffffffffffff1602179055506001820154816001015550509160020191906002019061240d565b5b5090506124a791906125fb565b5090565b5b8082111561255157600080820160006101000a81549073ffffffffffffffffffffffffffffffffffffffff02191690556001820160006124ec9190612555565b600282016000905560038201600090556004820160006101000a81549060ff021916905560058201600090556006820160006125289190612641565b6007820160006125389190612665565b6008820160006125489190612689565b506009016124ac565b5090565b50805461256190613909565b6000825580601f106125735750612592565b601f01602090049060005260206000209081019061259191906121fb565b5b50565b5b808211156125c8576000808201600090556001820160006125b79190612555565b600282016000905550600301612596565b5090565b5b808211156125f757600080820160006125e69190612555565b6001820160009055506002016125cd565b5090565b5b8082111561263d57600080820160006101000a81549073ffffffffffffffffffffffffffffffffffffffff02191690556001820160009055506002016125fc565b5090565b50805460008255600302906000526020600020908101906126629190612595565b50565b508054600082556002029060005260206000209081019061268691906125cc565b50565b50805460008255600202906000526020600020908101906126aa91906125fb565b50565b60006126c06126bb84613593565b61356e565b905080838252602082019050828560208602820111156126e3576126e2613a80565b5b60005b8581101561273157813567ffffffffffffffff81111561270957612708613a71565b5b80860161271689826127ee565b855260208501945060208401935050506001810190506126e6565b5050509392505050565b600061274e612749846135bf565b61356e565b90508281526020810184848401111561276a57612769613a85565b5b6127758482856138c7565b509392505050565b60008135905061278c81613aa5565b92915050565b600082601f8301126127a7576127a6613a71565b5b81356127b78482602086016126ad565b91505092915050565b600082601f8301126127d5576127d4613a71565b5b81356127e584826020860161273b565b91505092915050565b60006060828403121561280457612803613a76565b5b61280e606061356e565b9050600061281e8482850161277d565b600083015250602082013567ffffffffffffffff81111561284257612841613a7b565b5b61284e848285016127c0565b60208301525060406128628482850161286e565b60408301525092915050565b60008135905061287d81613abc565b92915050565b60006020828403121561289957612898613a8f565b5b600082013567ffffffffffffffff8111156128b7576128b6613a8a565b5b6128c3848285016127c0565b91505092915050565b6000806000606084860312156128e5576128e4613a8f565b5b600084013567ffffffffffffffff81111561290357612902613a8a565b5b61290f868287016127c0565b935050602084013567ffffffffffffffff8111156129305761292f613a8a565b5b61293c868287016127c0565b925050604084013567ffffffffffffffff81111561295d5761295c613a8a565b5b61296986828701612792565b9150509250925092565b600061297f8383612a2f565b60208301905092915050565b60006129978383612edf565b905092915050565b60006129ab8383612f2f565b905092915050565b60006129bf8383612f6c565b905092915050565b60006129d38383612fbc565b60408301905092915050565b60006129eb8383612feb565b905092915050565b60006129ff8383613028565b905092915050565b6000612a138383613078565b905092915050565b6000612a278383613152565b905092915050565b612a388161387f565b82525050565b6000612a4982613680565b612a538185613763565b9350612a5e836135f0565b8060005b83811015612a8f578151612a768882612973565b9750612a81836136ee565b925050600181019050612a62565b5085935050505092915050565b6000612aa78261368b565b612ab18185613774565b935083602082028501612ac385613600565b8060005b85811015612aff5784840389528151612ae0858261298b565b9450612aeb836136fb565b925060208a01995050600181019050612ac7565b50829750879550505050505092915050565b6000612b1c82613696565b612b268185613785565b935083602082028501612b3885613610565b8060005b85811015612b745784840389528151612b55858261299f565b9450612b6083613708565b925060208a01995050600181019050612b3c565b50829750879550505050505092915050565b6000612b91826136a1565b612b9b8185613796565b935083602082028501612bad85613620565b8060005b85811015612be95784840389528151612bca85826129b3565b9450612bd583613715565b925060208a01995050600181019050612bb1565b50829750879550505050505092915050565b6000612c06826136ac565b612c1081856137a7565b9350612c1b83613630565b8060005b83811015612c4c578151612c3388826129c7565b9750612c3e83613722565b925050600181019050612c1f565b5085935050505092915050565b6000612c64826136b7565b612c6e81856137b8565b935083602082028501612c8085613640565b8060005b85811015612cbc5784840389528151612c9d85826129df565b9450612ca88361372f565b925060208a01995050600181019050612c84565b50829750879550505050505092915050565b6000612cd9826136c2565b612ce381856137c9565b935083602082028501612cf585613650565b8060005b85811015612d315784840389528151612d1285826129f3565b9450612d1d8361373c565b925060208a01995050600181019050612cf9565b50829750879550505050505092915050565b6000612d4e826136cd565b612d5881856137da565b935083602082028501612d6a85613660565b8060005b85811015612da65784840389528151612d878582612a07565b9450612d9283613749565b925060208a01995050600181019050612d6e565b50829750879550505050505092915050565b6000612dc3826136d8565b612dcd81856137eb565b935083602082028501612ddf85613670565b8060005b85811015612e1b5784840389528151612dfc8582612a1b565b9450612e0783613756565b925060208a01995050600181019050612de3565b50829750879550505050505092915050565b612e3681613891565b82525050565b6000612e47826136e3565b612e5181856137fc565b9350612e618185602086016138d6565b612e6a81613a94565b840191505092915050565b6000612e80826136e3565b612e8a818561380d565b9350612e9a8185602086016138d6565b612ea381613a94565b840191505092915050565b6000612eb9826136e3565b612ec3818561381e565b9350612ed38185602086016138d6565b80840191505092915050565b6000606083016000830151612ef76000860182612a2f565b5060208301518482036020860152612f0f8282612e3c565b9150506040830151612f24604086018261348e565b508091505092915050565b60006040830160008301518482036000860152612f4c8282612e3c565b9150506020830151612f61602086018261348e565b508091505092915050565b6000606083016000830151612f84600086018261348e565b5060208301518482036020860152612f9c8282612e3c565b9150506040830151612fb1604086018261348e565b508091505092915050565b604082016000820151612fd26000850182612a2f565b506020820151612fe5602085018261348e565b50505050565b600060408301600083015184820360008601526130088282612e3c565b915050602083015161301d602086018261348e565b508091505092915050565b6000606083016000830151613040600086018261348e565b50602083015184820360208601526130588282612e3c565b915050604083015161306d604086018261348e565b508091505092915050565b6000610120830160008301516130916000860182612a2f565b50602083015184820360208601526130a98282612e3c565b91505060408301516130be604086018261348e565b5060608301516130d1606086018261348e565b5060808301516130e46080860182612e2d565b5060a08301516130f760a086018261348e565b5060c083015184820360c086015261310f8282612cce565b91505060e083015184820360e08601526131298282612c59565b9150506101008301518482036101008601526131458282612bfb565b9150508091505092915050565b60006102208301600083015161316b600086018261348e565b50602083015184820360208601526131838282612e3c565b9150506040830151848203604086015261319d8282612e3c565b915050606083015184820360608601526131b78282612e3c565b915050608083015184820360808601526131d18282612b11565b91505060a083015184820360a08601526131eb8282612b86565b91505060c083015184820360c08601526132058282612a9c565b91505060e083015184820360e086015261321f8282612d43565b915050610100830151613236610100860182612e2d565b5061012083015161324b610120860182612e2d565b506101408301518482036101408601526132658282612a3e565b91505061016083015161327c61016086018261348e565b5061018083015161329161018086018261348e565b506101a08301516132a66101a086018261348e565b506101c08301516132bb6101c086018261348e565b506101e08301516132d06101e086018261348e565b506102008301516132e561020086018261348e565b508091505092915050565b600061022083016000830151613309600086018261348e565b50602083015184820360208601526133218282612e3c565b9150506040830151848203604086015261333b8282612e3c565b915050606083015184820360608601526133558282612e3c565b9150506080830151848203608086015261336f8282612b11565b91505060a083015184820360a08601526133898282612b86565b91505060c083015184820360c08601526133a38282612a9c565b91505060e083015184820360e08601526133bd8282612d43565b9150506101008301516133d4610100860182612e2d565b506101208301516133e9610120860182612e2d565b506101408301518482036101408601526134038282612a3e565b91505061016083015161341a61016086018261348e565b5061018083015161342f61018086018261348e565b506101a08301516134446101a086018261348e565b506101c08301516134596101c086018261348e565b506101e083015161346e6101e086018261348e565b5061020083015161348361020086018261348e565b508091505092915050565b613497816138bd565b82525050565b6134a6816138bd565b82525050565b60006134b88284612eae565b915081905092915050565b600060208201905081810360008301526134dd8184612db8565b905092915050565b600060208201905081810360008301526134ff8184612e75565b905092915050565b6000602082019050818103600083015261352181846132f0565b905092915050565b600060608201905061353e600083018661349d565b81810360208301526135508185612e75565b905081810360408301526135648184612e75565b9050949350505050565b6000613578613589565b9050613584828261393b565b919050565b6000604051905090565b600067ffffffffffffffff8211156135ae576135ad613a42565b5b602082029050602081019050919050565b600067ffffffffffffffff8211156135da576135d9613a42565b5b6135e382613a94565b9050602081019050919050565b6000819050602082019050919050565b6000819050602082019050919050565b6000819050602082019050919050565b6000819050602082019050919050565b6000819050602082019050919050565b6000819050602082019050919050565b6000819050602082019050919050565b6000819050602082019050919050565b6000819050602082019050919050565b600081519050919050565b600081519050919050565b600081519050919050565b600081519050919050565b600081519050919050565b600081519050919050565b600081519050919050565b600081519050919050565b600081519050919050565b600081519050919050565b6000602082019050919050565b6000602082019050919050565b6000602082019050919050565b6000602082019050919050565b6000602082019050919050565b6000602082019050919050565b6000602082019050919050565b6000602082019050919050565b6000602082019050919050565b600082825260208201905092915050565b600082825260208201905092915050565b600082825260208201905092915050565b600082825260208201905092915050565b600082825260208201905092915050565b600082825260208201905092915050565b600082825260208201905092915050565b600082825260208201905092915050565b600082825260208201905092915050565b600082825260208201905092915050565b600082825260208201905092915050565b600081905092915050565b6000613834826138bd565b915061383f836138bd565b9250827fffffffffffffffffffffffffffffffffffffffffffffffffffffffffffffffff03821115613874576138736139b5565b5b828201905092915050565b600061388a8261389d565b9050919050565b60008115159050919050565b600073ffffffffffffffffffffffffffffffffffffffff82169050919050565b6000819050919050565b82818337600083830152505050565b60005b838110156138f45780820151818401526020810190506138d9565b83811115613903576000848401525b50505050565b6000600282049050600182168061392157607f821691505b60208210811415613935576139346139e4565b5b50919050565b61394482613a94565b810181811067ffffffffffffffff8211171561396357613962613a42565b5b80604052505050565b6000613977826138bd565b91507fffffffffffffffffffffffffffffffffffffffffffffffffffffffffffffffff8214156139aa576139a96139b5565b5b600182019050919050565b7f4e487b7100000000000000000000000000000000000000000000000000000000600052601160045260246000fd5b7f4e487b7100000000000000000000000000000000000000000000000000000000600052602260045260246000fd5b7f4e487b7100000000000000000000000000000000000000000000000000000000600052603260045260246000fd5b7f4e487b7100000000000000000000000000000000000000000000000000000000600052604160045260246000fd5b600080fd5b600080fd5b600080fd5b600080fd5b600080fd5b600080fd5b600080fd5b6000601f19601f8301169050919050565b613aae8161387f565b8114613ab957600080fd5b50565b613ac5816138bd565b8114613ad057600080fd5b5056fea2646970667358221220d1b891c2109fc495a9c0ad101bdbb5bb002d2dadf2a8af1fafa6330cef0a5aea64736f6c63430008060033",
  "linkReferences": {},
  "deployedLinkReferences": {}
}