{
  "_format": "hh-sol-artifact-1",
  "contractName": "UserScore",
  "sourceName": "contracts/UserScore.sol",
  "abi": [
    {
      "anonymous": false,
      "inputs": [
        {
          "indexed": false,
          "internalType": "address",
          "name": "user",
          "type": "address"
        },
        {
          "indexed": false,
          "internalType": "uint256",
          "name": "reqId",
          "type": "uint256"
        },
        {
          "indexed": false,
          "internalType": "address[]",
          "name": "funders",
          "type": "address[]"
        }
      ],
      "name": "BidsAccepted",
      "type": "event"
    },
    {
      "anonymous": false,
      "inputs": [
        {
          "indexed": false,
          "internalType": "uint256",
          "name": "id",
          "type": "uint256"
        },
        {
          "indexed": false,
          "internalType": "string",
          "name": "name",
          "type": "string"
        },
        {
          "indexed": false,
          "internalType": "string",
          "name": "hash",
          "type": "string"
        }
      ],
      "name": "CategoryCreated",
      "type": "event"
    },
    {
      "anonymous": false,
      "inputs": [
        {
          "indexed": false,
          "internalType": "address",
          "name": "user",
          "type": "address"
        },
        {
          "indexed": false,
          "internalType": "address",
          "name": "funder",
          "type": "address"
        },
        {
          "indexed": false,
          "internalType": "uint256",
          "name": "amount",
          "type": "uint256"
        },
        {
          "indexed": false,
          "internalType": "uint256",
          "name": "percent",
          "type": "uint256"
        }
      ],
      "name": "FundingBidPosted",
      "type": "event"
    },
    {
      "anonymous": false,
      "inputs": [
        {
          "indexed": false,
          "internalType": "address",
          "name": "user",
          "type": "address"
        },
        {
          "indexed": false,
          "internalType": "enum Data.ReqType",
          "name": "reqType",
          "type": "uint8"
        },
        {
          "indexed": false,
          "internalType": "uint256",
          "name": "reqId",
          "type": "uint256"
        }
      ],
      "name": "FundingRequested",
      "type": "event"
    },
    {
      "anonymous": false,
      "inputs": [
        {
          "indexed": false,
          "internalType": "uint256",
          "name": "id",
          "type": "uint256"
        },
        {
          "indexed": false,
          "internalType": "string",
          "name": "postHash",
          "type": "string"
        },
        {
          "indexed": false,
          "internalType": "string",
          "name": "revHash",
          "type": "string"
        }
      ],
      "name": "InitReviewCreated",
      "type": "event"
    },
    {
      "anonymous": false,
      "inputs": [
        {
          "indexed": false,
          "internalType": "uint256",
          "name": "id",
          "type": "uint256"
        },
        {
          "indexed": false,
          "internalType": "string",
          "name": "title",
          "type": "string"
        },
        {
          "indexed": false,
          "internalType": "string",
          "name": "hash",
          "type": "string"
        }
      ],
      "name": "PostCreated",
      "type": "event"
    },
    {
      "anonymous": false,
      "inputs": [
        {
          "indexed": false,
          "internalType": "uint256",
          "name": "id",
          "type": "uint256"
        },
        {
          "indexed": false,
          "internalType": "string",
          "name": "title",
          "type": "string"
        },
        {
          "indexed": false,
          "internalType": "string",
          "name": "hash",
          "type": "string"
        },
        {
          "indexed": false,
          "internalType": "bool",
          "name": "published",
          "type": "bool"
        }
      ],
      "name": "PostUpdated",
      "type": "event"
    },
    {
      "inputs": [
        {
          "internalType": "address",
          "name": "",
          "type": "address"
        },
        {
          "internalType": "uint256",
          "name": "",
          "type": "uint256"
        },
        {
          "internalType": "address",
          "name": "",
          "type": "address"
        }
      ],
      "name": "acceptedBid",
      "outputs": [
        {
          "internalType": "uint256",
          "name": "amountProvided",
          "type": "uint256"
        },
        {
          "internalType": "uint256",
          "name": "bidId",
          "type": "uint256"
        },
        {
          "internalType": "uint256",
          "name": "returnRate",
          "type": "uint256"
        },
        {
          "internalType": "bool",
          "name": "accepted",
          "type": "bool"
        },
        {
          "internalType": "address",
          "name": "bidder",
          "type": "address"
        }
      ],
      "stateMutability": "view",
      "type": "function"
    },
    {
      "inputs": [
        {
          "internalType": "address",
          "name": "",
          "type": "address"
        },
        {
          "internalType": "uint256",
          "name": "",
          "type": "uint256"
        },
        {
          "internalType": "uint256",
          "name": "",
          "type": "uint256"
        }
      ],
      "name": "acceptedBidders",
      "outputs": [
        {
          "internalType": "address",
          "name": "",
          "type": "address"
        }
      ],
      "stateMutability": "view",
      "type": "function"
    },
    {
      "inputs": [
        {
          "internalType": "address",
          "name": "",
          "type": "address"
        },
        {
          "internalType": "string",
          "name": "",
          "type": "string"
        },
        {
          "internalType": "uint256",
          "name": "",
          "type": "uint256"
        }
      ],
      "name": "catPost",
      "outputs": [
        {
          "internalType": "string",
          "name": "postHash",
          "type": "string"
        },
        {
          "internalType": "uint256",
          "name": "catImpact",
          "type": "uint256"
        },
        {
          "internalType": "uint256",
          "name": "postCred",
          "type": "uint256"
        },
        {
          "internalType": "uint256",
          "name": "timestamp",
          "type": "uint256"
        }
      ],
      "stateMutability": "view",
      "type": "function"
    },
    {
      "inputs": [
        {
          "internalType": "address",
          "name": "",
          "type": "address"
        },
        {
          "internalType": "uint256",
          "name": "",
          "type": "uint256"
        },
        {
          "internalType": "address",
          "name": "",
          "type": "address"
        }
      ],
      "name": "fundingBid",
      "outputs": [
        {
          "internalType": "uint256",
          "name": "amountProvided",
          "type": "uint256"
        },
        {
          "internalType": "uint256",
          "name": "bidId",
          "type": "uint256"
        },
        {
          "internalType": "uint256",
          "name": "returnRate",
          "type": "uint256"
        },
        {
          "internalType": "bool",
          "name": "accepted",
          "type": "bool"
        },
        {
          "internalType": "address",
          "name": "bidder",
          "type": "address"
        }
      ],
      "stateMutability": "view",
      "type": "function"
    },
    {
      "inputs": [
        {
          "internalType": "address",
          "name": "",
          "type": "address"
        },
        {
          "internalType": "uint256",
          "name": "",
          "type": "uint256"
        },
        {
          "internalType": "uint256",
          "name": "",
          "type": "uint256"
        }
      ],
      "name": "fundingBidders",
      "outputs": [
        {
          "internalType": "address",
          "name": "",
          "type": "address"
        }
      ],
      "stateMutability": "view",
      "type": "function"
    },
    {
      "inputs": [
        {
          "internalType": "address",
          "name": "",
          "type": "address"
        },
        {
          "internalType": "uint256",
          "name": "",
          "type": "uint256"
        },
        {
          "internalType": "uint256",
          "name": "",
          "type": "uint256"
        }
      ],
      "name": "fundingBids",
      "outputs": [
        {
          "internalType": "uint256",
          "name": "amountProvided",
          "type": "uint256"
        },
        {
          "internalType": "uint256",
          "name": "bidId",
          "type": "uint256"
        },
        {
          "internalType": "uint256",
          "name": "returnRate",
          "type": "uint256"
        },
        {
          "internalType": "bool",
          "name": "accepted",
          "type": "bool"
        },
        {
          "internalType": "address",
          "name": "bidder",
          "type": "address"
        }
      ],
      "stateMutability": "view",
      "type": "function"
    },
    {
      "inputs": [
        {
          "internalType": "address",
          "name": "",
          "type": "address"
        },
        {
          "internalType": "uint256",
          "name": "",
          "type": "uint256"
        }
      ],
      "name": "fundingReq",
      "outputs": [
        {
          "internalType": "uint256",
          "name": "amountRequested",
          "type": "uint256"
        },
        {
          "internalType": "uint256",
          "name": "reqId",
          "type": "uint256"
        },
        {
          "internalType": "uint256",
          "name": "deadline",
          "type": "uint256"
        },
        {
          "internalType": "uint256",
          "name": "returnRate",
          "type": "uint256"
        },
        {
          "internalType": "enum Data.ReqType",
          "name": "reqType",
          "type": "uint8"
        }
      ],
      "stateMutability": "view",
      "type": "function"
    },
    {
      "inputs": [
        {
          "internalType": "address",
          "name": "",
          "type": "address"
        },
        {
          "internalType": "uint256",
          "name": "",
          "type": "uint256"
        }
      ],
      "name": "fundingReqs",
      "outputs": [
        {
          "internalType": "uint256",
          "name": "amountRequested",
          "type": "uint256"
        },
        {
          "internalType": "uint256",
          "name": "reqId",
          "type": "uint256"
        },
        {
          "internalType": "uint256",
          "name": "deadline",
          "type": "uint256"
        },
        {
          "internalType": "uint256",
          "name": "returnRate",
          "type": "uint256"
        },
        {
          "internalType": "enum Data.ReqType",
          "name": "reqType",
          "type": "uint8"
        }
      ],
      "stateMutability": "view",
      "type": "function"
    },
    {
      "inputs": [
        {
          "internalType": "uint256",
          "name": "",
          "type": "uint256"
        }
      ],
      "name": "keys",
      "outputs": [
        {
          "internalType": "address",
          "name": "",
          "type": "address"
        }
      ],
      "stateMutability": "view",
      "type": "function"
    },
    {
      "inputs": [],
      "name": "owner",
      "outputs": [
        {
          "internalType": "address",
          "name": "",
          "type": "address"
        }
      ],
      "stateMutability": "view",
      "type": "function"
    },
    {
      "inputs": [
        {
          "internalType": "address",
          "name": "_user",
          "type": "address"
        },
        {
          "internalType": "string",
          "name": "_postHash",
          "type": "string"
        },
        {
          "internalType": "uint256",
          "name": "_time",
          "type": "uint256"
        },
        {
          "internalType": "uint256",
          "name": "_postCred",
          "type": "uint256"
        },
        {
          "components": [
            {
              "internalType": "string",
              "name": "catHash",
              "type": "string"
            },
            {
              "internalType": "uint256",
              "name": "catImpact",
              "type": "uint256"
            }
          ],
          "internalType": "struct Data.PostCats[]",
          "name": "_postCats",
          "type": "tuple[]"
        }
      ],
      "name": "saveCatPost",
      "outputs": [],
      "stateMutability": "nonpayable",
      "type": "function"
    },
    {
      "inputs": [],
      "name": "totalCategoryVotes",
      "outputs": [
        {
          "internalType": "uint256",
          "name": "",
          "type": "uint256"
        }
      ],
      "stateMutability": "view",
      "type": "function"
    },
    {
      "inputs": [
        {
          "internalType": "address",
          "name": "",
          "type": "address"
        }
      ],
      "name": "totalFundingReq",
      "outputs": [
        {
          "internalType": "uint256",
          "name": "",
          "type": "uint256"
        }
      ],
      "stateMutability": "view",
      "type": "function"
    },
    {
      "inputs": [
        {
          "internalType": "address",
          "name": "",
          "type": "address"
        }
      ],
      "name": "userAdded",
      "outputs": [
        {
          "internalType": "bool",
          "name": "",
          "type": "bool"
        }
      ],
      "stateMutability": "view",
      "type": "function"
    },
    {
      "inputs": [
        {
          "internalType": "address",
          "name": "",
          "type": "address"
        },
        {
          "internalType": "uint256",
          "name": "",
          "type": "uint256"
        }
      ],
      "name": "userCats",
      "outputs": [
        {
          "internalType": "string",
          "name": "",
          "type": "string"
        }
      ],
      "stateMutability": "view",
      "type": "function"
    },
    {
      "inputs": [
        {
          "internalType": "address",
          "name": "",
          "type": "address"
        },
        {
          "internalType": "uint256",
          "name": "",
          "type": "uint256"
        }
      ],
      "name": "userFunding",
      "outputs": [
        {
          "internalType": "address",
          "name": "requestingFunds",
          "type": "address"
        },
        {
          "internalType": "address",
          "name": "providingFunds",
          "type": "address"
        },
        {
          "internalType": "uint256",
          "name": "amountProvided",
          "type": "uint256"
        },
        {
          "internalType": "uint256",
          "name": "amountRemaining",
          "type": "uint256"
        },
        {
          "internalType": "uint256",
          "name": "returnRate",
          "type": "uint256"
        },
        {
          "internalType": "bool",
          "name": "accepted",
          "type": "bool"
        },
        {
          "internalType": "bool",
          "name": "withdrawn",
          "type": "bool"
        }
      ],
      "stateMutability": "view",
      "type": "function"
    },
    {
      "inputs": [
        {
          "internalType": "address",
          "name": "",
          "type": "address"
        }
      ],
      "name": "users",
      "outputs": [
        {
          "internalType": "uint256",
          "name": "",
          "type": "uint256"
        }
      ],
      "stateMutability": "view",
      "type": "function"
    }
  ],
  "bytecode": "0x608060405234801561001057600080fd5b50611753806100206000396000f3fe608060405234801561001057600080fd5b506004361061010b5760003560e01c80636bda722b116100a2578063a87430ba11610071578063a87430ba1461033d578063ce2bfa3d1461036d578063d23c5a131461039d578063d5d23763146103d1578063e66e3df0146103ef5761010b565b80636bda722b1461028b5780638144170b146102bb5780638da5cb5b146102ef578063a4fc1a131461030d5761010b565b806354db2453116100de57806354db2453146101d85780635905f8e01461020c5780635bd0161f1461023c578063607488f91461026f5761010b565b80630cb6aaf11461011057806329c73e99146101405780632e2cf7571461017457806336aba8dd146101a8575b600080fd5b61012a60048036038101906101259190610d54565b610425565b6040516101379190610dc2565b60405180910390f35b61015a60048036038101906101559190610e09565b610464565b60405161016b959493929190610e86565b60405180910390f35b61018e60048036038101906101899190610ed9565b6104e1565b60405161019f959493929190610f90565b60405180910390f35b6101c260048036038101906101bd9190610fe3565b610541565b6040516101cf9190611010565b60405180910390f35b6101f260048036038101906101ed919061102b565b610559565b604051610203959493929190610e86565b60405180910390f35b6102266004803603810190610221919061102b565b6105e6565b6040516102339190610dc2565b60405180910390f35b610256600480360381019061025191906111c4565b610641565b60405161026694939291906112bb565b60405180910390f35b61028960048036038101906102849190611463565b610739565b005b6102a560048036038101906102a09190610fe3565b61096b565b6040516102b29190611516565b60405180910390f35b6102d560048036038101906102d09190610e09565b61098b565b6040516102e6959493929190610e86565b60405180910390f35b6102f7610a08565b6040516103049190610dc2565b60405180910390f35b61032760048036038101906103229190610ed9565b610a2c565b6040516103349190611531565b60405180910390f35b61035760048036038101906103529190610fe3565b610ae5565b6040516103649190611010565b60405180910390f35b6103876004803603810190610382919061102b565b610afd565b6040516103949190610dc2565b60405180910390f35b6103b760048036038101906103b29190610ed9565b610b58565b6040516103c8959493929190610f90565b60405180910390f35b6103d9610ba8565b6040516103e69190611010565b60405180910390f35b61040960048036038101906104049190610ed9565b610bae565b60405161041c9796959493929190611553565b60405180910390f35b600f818154811061043557600080fd5b906000526020600020016000915054906101000a900473ffffffffffffffffffffffffffffffffffffffff1681565b601760205282600052604060002060205281600052604060002060205280600052604060002060009250925050508060000154908060010154908060020154908060030160009054906101000a900460ff16908060030160019054906101000a900473ffffffffffffffffffffffffffffffffffffffff16905085565b601260205281600052604060002081815481106104fd57600080fd5b9060005260206000209060050201600091509150508060000154908060010154908060020154908060030154908060040160009054906101000a900460ff16905085565b600c6020528060005260406000206000915090505481565b6013602052826000526040600020602052816000526040600020818154811061058157600080fd5b906000526020600020906004020160009250925050508060000154908060010154908060020154908060030160009054906101000a900460ff16908060030160019054906101000a900473ffffffffffffffffffffffffffffffffffffffff16905085565b6014602052826000526040600020602052816000526040600020818154811061060e57600080fd5b90600052602060002001600092509250509054906101000a900473ffffffffffffffffffffffffffffffffffffffff1681565b600260205282600052604060002082805160208101820180518482526020830160208501208183528095505050505050818154811061067f57600080fd5b906000526020600020906004020160009250925050508060000180546106a4906115f1565b80601f01602080910402602001604051908101604052809291908181526020018280546106d0906115f1565b801561071d5780601f106106f25761010080835404028352916020019161071d565b820191906000526020600020905b81548152906001019060200180831161070057829003601f168201915b5050505050908060010154908060020154908060030154905084565b60005b815181101561096357600082828151811061075a57610759611623565b5b6020026020010151600001519050600083838151811061077d5761077c611623565b5b60200260200101516020015190506000600260008a73ffffffffffffffffffffffffffffffffffffffff1673ffffffffffffffffffffffffffffffffffffffff168152602001908152602001600020836040516107da919061168e565b908152602001604051809103902080549050141561086c57600360008973ffffffffffffffffffffffffffffffffffffffff1673ffffffffffffffffffffffffffffffffffffffff1681526020019081526020016000208290806001815401808255809150506001900390600052602060002001600090919091909150908051906020019061086a929190610c67565b505b600260008973ffffffffffffffffffffffffffffffffffffffff1673ffffffffffffffffffffffffffffffffffffffff168152602001908152602001600020826040516108b9919061168e565b90815260200160405180910390206040518060800160405280898152602001838152602001878152602001888152509080600181540180825580915050600190039060005260206000209060040201600090919091909150600082015181600001908051906020019061092d929190610c67565b5060208201518160010155604082015181600201556060820151816003015550505050808061095b906116d4565b91505061073c565b505050505050565b600e6020528060005260406000206000915054906101000a900460ff1681565b601660205282600052604060002060205281600052604060002060205280600052604060002060009250925050508060000154908060010154908060020154908060030160009054906101000a900460ff16908060030160019054906101000a900473ffffffffffffffffffffffffffffffffffffffff16905085565b60008054906101000a900473ffffffffffffffffffffffffffffffffffffffff1681565b60036020528160005260406000208181548110610a4857600080fd5b90600052602060002001600091509150508054610a64906115f1565b80601f0160208091040260200160405190810160405280929190818152602001828054610a90906115f1565b8015610add5780601f10610ab257610100808354040283529160200191610add565b820191906000526020600020905b815481529060010190602001808311610ac057829003601f168201915b505050505081565b600d6020528060005260406000206000915090505481565b60156020528260005260406000206020528160005260406000208181548110610b2557600080fd5b90600052602060002001600092509250509054906101000a900473ffffffffffffffffffffffffffffffffffffffff1681565b6011602052816000526040600020602052806000526040600020600091509150508060000154908060010154908060020154908060030154908060040160009054906101000a900460ff16905085565b60015481565b60106020528160005260406000208181548110610bca57600080fd5b9060005260206000209060060201600091509150508060000160009054906101000a900473ffffffffffffffffffffffffffffffffffffffff16908060010160009054906101000a900473ffffffffffffffffffffffffffffffffffffffff16908060020154908060030154908060040154908060050160009054906101000a900460ff16908060050160019054906101000a900460ff16905087565b828054610c73906115f1565b90600052602060002090601f016020900481019282610c955760008555610cdc565b82601f10610cae57805160ff1916838001178555610cdc565b82800160010185558215610cdc579182015b82811115610cdb578251825591602001919060010190610cc0565b5b509050610ce99190610ced565b5090565b5b80821115610d06576000816000905550600101610cee565b5090565b6000604051905090565b600080fd5b600080fd5b6000819050919050565b610d3181610d1e565b8114610d3c57600080fd5b50565b600081359050610d4e81610d28565b92915050565b600060208284031215610d6a57610d69610d14565b5b6000610d7884828501610d3f565b91505092915050565b600073ffffffffffffffffffffffffffffffffffffffff82169050919050565b6000610dac82610d81565b9050919050565b610dbc81610da1565b82525050565b6000602082019050610dd76000830184610db3565b92915050565b610de681610da1565b8114610df157600080fd5b50565b600081359050610e0381610ddd565b92915050565b600080600060608486031215610e2257610e21610d14565b5b6000610e3086828701610df4565b9350506020610e4186828701610d3f565b9250506040610e5286828701610df4565b9150509250925092565b610e6581610d1e565b82525050565b60008115159050919050565b610e8081610e6b565b82525050565b600060a082019050610e9b6000830188610e5c565b610ea86020830187610e5c565b610eb56040830186610e5c565b610ec26060830185610e77565b610ecf6080830184610db3565b9695505050505050565b60008060408385031215610ef057610eef610d14565b5b6000610efe85828601610df4565b9250506020610f0f85828601610d3f565b9150509250929050565b7f4e487b7100000000000000000000000000000000000000000000000000000000600052602160045260246000fd5b60048110610f5957610f58610f19565b5b50565b6000819050610f6a82610f48565b919050565b6000610f7a82610f5c565b9050919050565b610f8a81610f6f565b82525050565b600060a082019050610fa56000830188610e5c565b610fb26020830187610e5c565b610fbf6040830186610e5c565b610fcc6060830185610e5c565b610fd96080830184610f81565b9695505050505050565b600060208284031215610ff957610ff8610d14565b5b600061100784828501610df4565b91505092915050565b60006020820190506110256000830184610e5c565b92915050565b60008060006060848603121561104457611043610d14565b5b600061105286828701610df4565b935050602061106386828701610d3f565b925050604061107486828701610d3f565b9150509250925092565b600080fd5b600080fd5b6000601f19601f8301169050919050565b7f4e487b7100000000000000000000000000000000000000000000000000000000600052604160045260246000fd5b6110d182611088565b810181811067ffffffffffffffff821117156110f0576110ef611099565b5b80604052505050565b6000611103610d0a565b905061110f82826110c8565b919050565b600067ffffffffffffffff82111561112f5761112e611099565b5b61113882611088565b9050602081019050919050565b82818337600083830152505050565b600061116761116284611114565b6110f9565b90508281526020810184848401111561118357611182611083565b5b61118e848285611145565b509392505050565b600082601f8301126111ab576111aa61107e565b5b81356111bb848260208601611154565b91505092915050565b6000806000606084860312156111dd576111dc610d14565b5b60006111eb86828701610df4565b935050602084013567ffffffffffffffff81111561120c5761120b610d19565b5b61121886828701611196565b925050604061122986828701610d3f565b9150509250925092565b600081519050919050565b600082825260208201905092915050565b60005b8381101561126d578082015181840152602081019050611252565b8381111561127c576000848401525b50505050565b600061128d82611233565b611297818561123e565b93506112a781856020860161124f565b6112b081611088565b840191505092915050565b600060808201905081810360008301526112d58187611282565b90506112e46020830186610e5c565b6112f16040830185610e5c565b6112fe6060830184610e5c565b95945050505050565b600067ffffffffffffffff82111561132257611321611099565b5b602082029050602081019050919050565b600080fd5b600080fd5b600080fd5b60006040828403121561135857611357611338565b5b61136260406110f9565b9050600082013567ffffffffffffffff8111156113825761138161133d565b5b61138e84828501611196565b60008301525060206113a284828501610d3f565b60208301525092915050565b60006113c16113bc84611307565b6110f9565b905080838252602082019050602084028301858111156113e4576113e3611333565b5b835b8181101561142b57803567ffffffffffffffff8111156114095761140861107e565b5b8086016114168982611342565b855260208501945050506020810190506113e6565b5050509392505050565b600082601f83011261144a5761144961107e565b5b813561145a8482602086016113ae565b91505092915050565b600080600080600060a0868803121561147f5761147e610d14565b5b600061148d88828901610df4565b955050602086013567ffffffffffffffff8111156114ae576114ad610d19565b5b6114ba88828901611196565b94505060406114cb88828901610d3f565b93505060606114dc88828901610d3f565b925050608086013567ffffffffffffffff8111156114fd576114fc610d19565b5b61150988828901611435565b9150509295509295909350565b600060208201905061152b6000830184610e77565b92915050565b6000602082019050818103600083015261154b8184611282565b905092915050565b600060e082019050611568600083018a610db3565b6115756020830189610db3565b6115826040830188610e5c565b61158f6060830187610e5c565b61159c6080830186610e5c565b6115a960a0830185610e77565b6115b660c0830184610e77565b98975050505050505050565b7f4e487b7100000000000000000000000000000000000000000000000000000000600052602260045260246000fd5b6000600282049050600182168061160957607f821691505b6020821081141561161d5761161c6115c2565b5b50919050565b7f4e487b7100000000000000000000000000000000000000000000000000000000600052603260045260246000fd5b600081905092915050565b600061166882611233565b6116728185611652565b935061168281856020860161124f565b80840191505092915050565b600061169a828461165d565b915081905092915050565b7f4e487b7100000000000000000000000000000000000000000000000000000000600052601160045260246000fd5b60006116df82610d1e565b91507fffffffffffffffffffffffffffffffffffffffffffffffffffffffffffffffff821415611712576117116116a5565b5b60018201905091905056fea2646970667358221220220c203f46e3d15942b260c045b5a8ae2a3f12b77ee8bb0bc3b56ae9c96f187e64736f6c634300080c0033",
  "linkReferences": {},
  "deployedLinkReferences": {}
}