{
  "_format": "hh-sol-artifact-1",
  "contractName": "InitialReviewFacet",
  "sourceName": "contracts/facets/InitialReviewFacet.sol",
  "abi": [
    {
      "anonymous": false,
      "inputs": [
        {
          "indexed": false,
          "internalType": "uint256",
          "name": "id",
          "type": "uint256"
        },
        {
          "indexed": false,
          "internalType": "string",
          "name": "postHash",
          "type": "string"
        },
        {
          "indexed": false,
          "internalType": "string",
          "name": "revHash",
          "type": "string"
        }
      ],
      "name": "InitReviewCreated",
      "type": "event"
    },
    {
      "inputs": [
        {
          "internalType": "string",
          "name": "_postHash",
          "type": "string"
        },
        {
          "internalType": "string",
          "name": "_reviewHash",
          "type": "string"
        },
        {
          "internalType": "uint256",
          "name": "_validatorTotalWeight",
          "type": "uint256"
        },
        {
          "internalType": "uint256",
          "name": "_validatorCatWeight",
          "type": "uint256"
        },
        {
          "internalType": "uint256",
          "name": "_timestamp",
          "type": "uint256"
        },
        {
          "components": [
            {
              "internalType": "uint256",
              "name": "id",
              "type": "uint256"
            },
            {
              "internalType": "string",
              "name": "contentHash",
              "type": "string"
            },
            {
              "internalType": "uint256",
              "name": "percentInfluence",
              "type": "uint256"
            }
          ],
          "internalType": "struct PostReviewInflueces[]",
          "name": "_reviewInfluence",
          "type": "tuple[]"
        },
        {
          "components": [
            {
              "internalType": "string",
              "name": "catId",
              "type": "string"
            },
            {
              "internalType": "uint256",
              "name": "impact",
              "type": "uint256"
            }
          ],
          "internalType": "struct PostReviewCategories[]",
          "name": "_reviewCat",
          "type": "tuple[]"
        },
        {
          "components": [
            {
              "internalType": "address",
              "name": "author",
              "type": "address"
            },
            {
              "internalType": "uint256",
              "name": "authorWeight",
              "type": "uint256"
            }
          ],
          "internalType": "struct PostReviewAuthors[]",
          "name": "_reviewAuthor",
          "type": "tuple[]"
        }
      ],
      "name": "createInitialReview",
      "outputs": [],
      "stateMutability": "nonpayable",
      "type": "function"
    },
    {
      "inputs": [
        {
          "internalType": "string",
          "name": "_hash",
          "type": "string"
        }
      ],
      "name": "fetchInitReview",
      "outputs": [
        {
          "components": [
            {
              "internalType": "address",
              "name": "validator",
              "type": "address"
            },
            {
              "internalType": "string",
              "name": "reviewHash",
              "type": "string"
            },
            {
              "internalType": "uint256",
              "name": "validatorTotalWeight",
              "type": "uint256"
            },
            {
              "internalType": "uint256",
              "name": "validatorCatWeight",
              "type": "uint256"
            },
            {
              "internalType": "uint256",
              "name": "timestamp",
              "type": "uint256"
            },
            {
              "internalType": "enum Urgency",
              "name": "urgency",
              "type": "uint8"
            },
            {
              "internalType": "bool",
              "name": "funding",
              "type": "bool"
            },
            {
              "internalType": "uint256",
              "name": "selfScore",
              "type": "uint256"
            },
            {
              "internalType": "uint256",
              "name": "selfCrS",
              "type": "uint256"
            },
            {
              "internalType": "uint256",
              "name": "selfIS",
              "type": "uint256"
            },
            {
              "internalType": "uint256",
              "name": "postScore",
              "type": "uint256"
            },
            {
              "internalType": "uint256",
              "name": "postCrS",
              "type": "uint256"
            },
            {
              "internalType": "uint256",
              "name": "postIS",
              "type": "uint256"
            },
            {
              "components": [
                {
                  "internalType": "uint256",
                  "name": "id",
                  "type": "uint256"
                },
                {
                  "internalType": "string",
                  "name": "contentHash",
                  "type": "string"
                },
                {
                  "internalType": "uint256",
                  "name": "percentInfluence",
                  "type": "uint256"
                }
              ],
              "internalType": "struct PostReviewInflueces[]",
              "name": "reviewInfluence",
              "type": "tuple[]"
            },
            {
              "components": [
                {
                  "internalType": "string",
                  "name": "catId",
                  "type": "string"
                },
                {
                  "internalType": "uint256",
                  "name": "impact",
                  "type": "uint256"
                }
              ],
              "internalType": "struct PostReviewCategories[]",
              "name": "reviewCat",
              "type": "tuple[]"
            },
            {
              "components": [
                {
                  "internalType": "address",
                  "name": "author",
                  "type": "address"
                },
                {
                  "internalType": "uint256",
                  "name": "authorWeight",
                  "type": "uint256"
                }
              ],
              "internalType": "struct PostReviewAuthors[]",
              "name": "reviewAuthor",
              "type": "tuple[]"
            }
          ],
          "internalType": "struct InitialReview",
          "name": "",
          "type": "tuple"
        }
      ],
      "stateMutability": "view",
      "type": "function"
    },
    {
      "inputs": [
        {
          "internalType": "string",
          "name": "_hash",
          "type": "string"
        }
      ],
      "name": "fetchInitReviewByPoat",
      "outputs": [
        {
          "components": [
            {
              "internalType": "address",
              "name": "validator",
              "type": "address"
            },
            {
              "internalType": "string",
              "name": "reviewHash",
              "type": "string"
            },
            {
              "internalType": "uint256",
              "name": "validatorTotalWeight",
              "type": "uint256"
            },
            {
              "internalType": "uint256",
              "name": "validatorCatWeight",
              "type": "uint256"
            },
            {
              "internalType": "uint256",
              "name": "timestamp",
              "type": "uint256"
            },
            {
              "internalType": "enum Urgency",
              "name": "urgency",
              "type": "uint8"
            },
            {
              "internalType": "bool",
              "name": "funding",
              "type": "bool"
            },
            {
              "internalType": "uint256",
              "name": "selfScore",
              "type": "uint256"
            },
            {
              "internalType": "uint256",
              "name": "selfCrS",
              "type": "uint256"
            },
            {
              "internalType": "uint256",
              "name": "selfIS",
              "type": "uint256"
            },
            {
              "internalType": "uint256",
              "name": "postScore",
              "type": "uint256"
            },
            {
              "internalType": "uint256",
              "name": "postCrS",
              "type": "uint256"
            },
            {
              "internalType": "uint256",
              "name": "postIS",
              "type": "uint256"
            },
            {
              "components": [
                {
                  "internalType": "uint256",
                  "name": "id",
                  "type": "uint256"
                },
                {
                  "internalType": "string",
                  "name": "contentHash",
                  "type": "string"
                },
                {
                  "internalType": "uint256",
                  "name": "percentInfluence",
                  "type": "uint256"
                }
              ],
              "internalType": "struct PostReviewInflueces[]",
              "name": "reviewInfluence",
              "type": "tuple[]"
            },
            {
              "components": [
                {
                  "internalType": "string",
                  "name": "catId",
                  "type": "string"
                },
                {
                  "internalType": "uint256",
                  "name": "impact",
                  "type": "uint256"
                }
              ],
              "internalType": "struct PostReviewCategories[]",
              "name": "reviewCat",
              "type": "tuple[]"
            },
            {
              "components": [
                {
                  "internalType": "address",
                  "name": "author",
                  "type": "address"
                },
                {
                  "internalType": "uint256",
                  "name": "authorWeight",
                  "type": "uint256"
                }
              ],
              "internalType": "struct PostReviewAuthors[]",
              "name": "reviewAuthor",
              "type": "tuple[]"
            }
          ],
          "internalType": "struct InitialReview",
          "name": "",
          "type": "tuple"
        }
      ],
      "stateMutability": "view",
      "type": "function"
    }
  ],
  "bytecode": "0x608060405234801561001057600080fd5b50612e68806100206000396000f3fe608060405234801561001057600080fd5b50600436106100415760003560e01c806382fcdb1314610046578063dfb9614b14610062578063f1e2af4514610092575b600080fd5b610060600480360381019061005b9190612304565b6100c2565b005b61007c600480360381019061007791906122bb565b610ab0565b60405161008991906128fc565b60405180910390f35b6100ac60048036038101906100a791906122bb565b610f43565b6040516100b991906128fc565b60405180910390f35b4261012c856100d19190612b20565b116100db57600080fd5b600080600401896040516100ef91906128e5565b908152602001604051809103902090508060080160009054906101000a900460ff161561011b57600080fd5b610125601f611487565b6000610131601f61149d565b905060018260080160006101000a81548160ff021916908315150217905550888260030190805190602001906101689291906114ab565b5060008060070160008381526020019081526020016000209050338160000160006101000a81548173ffffffffffffffffffffffffffffffffffffffff021916908373ffffffffffffffffffffffffffffffffffffffff160217905550898160010190805190602001906101dd9291906114ab565b5088816002018190555087816003018190555086816004018190555060005b86518110156102935781600c0187828151811061021c5761021b612d5e565b5b602002602001015190806001815401808255809150506001900390600052602060002090600302016000909190919091506000820151816000015560208201518160010190805190602001906102739291906114ab565b50604082015181600201555050808061028b90612c88565b9150506101fc565b5060005b85518110156103245781600d018682815181106102b7576102b6612d5e565b5b6020026020010151908060018154018082558091505060019003906000526020600020906002020160009091909190915060008201518160000190805190602001906103049291906114ab565b50602082015181600101555050808061031c90612c88565b915050610297565b5060005b84518110156103df5781600e0185828151811061034857610347612d5e565b5b6020026020010151908060018154018082558091505060019003906000526020600020906002020160009091909190915060008201518160000160006101000a81548173ffffffffffffffffffffffffffffffffffffffff021916908373ffffffffffffffffffffffffffffffffffffffff16021790555060208201518160010155505080806103d790612c88565b915050610328565b5080600060070160008481526020019081526020016000206000820160009054906101000a900473ffffffffffffffffffffffffffffffffffffffff168160000160006101000a81548173ffffffffffffffffffffffffffffffffffffffff021916908373ffffffffffffffffffffffffffffffffffffffff160217905550600182018160010190805461047290612c25565b61047d929190611531565b506002820154816002015560038201548160030155600482015481600401556005820160009054906101000a900460ff168160050160006101000a81548160ff021916908360038111156104d4576104d3612d00565b5b02179055506005820160019054906101000a900460ff168160050160016101000a81548160ff02191690831515021790555060068201548160060155600782015481600701556008820154816008015560098201548160090155600a82015481600a0155600b82015481600b0155600c820181600c019080546105589291906115be565b50600d820181600d0190805461056f92919061164a565b50600e820181600e019080546105869291906116cc565b509050508060006008018b60405161059e91906128e5565b90815260200160405180910390206000820160009054906101000a900473ffffffffffffffffffffffffffffffffffffffff168160000160006101000a81548173ffffffffffffffffffffffffffffffffffffffff021916908373ffffffffffffffffffffffffffffffffffffffff160217905550600182018160010190805461062790612c25565b610632929190611531565b506002820154816002015560038201548160030155600482015481600401556005820160009054906101000a900460ff168160050160006101000a81548160ff0219169083600381111561068957610688612d00565b5b02179055506005820160019054906101000a900460ff168160050160016101000a81548160ff02191690831515021790555060068201548160060155600782015481600701556008820154816008015560098201548160090155600a82015481600a0155600b82015481600b0155600c820181600c0190805461070d9291906115be565b50600d820181600d0190805461072492919061164a565b50600e820181600e0190805461073b9291906116cc565b5090505082600060030160008560000154815260200190815260200160002060008201548160000155600182018160010190805461077890612c25565b610783929190611531565b50600282018160020190805461079890612c25565b6107a3929190611531565b5060038201816003019080546107b890612c25565b6107c3929190611531565b5060048201816004019080546107da929190611795565b5060058201816005019080546107f1929190611817565b5060068201816006019080546108089291906118a3565b50600782018160070190805461081f92919061198c565b506008820160009054906101000a900460ff168160080160006101000a81548160ff0219169083151502179055506008820160019054906101000a900460ff168160080160016101000a81548160ff0219169083151502179055506009820181600901908054610890929190611afb565b50600a82015481600a0155600b82015481600b0155600c82015481600c0155600d82015481600d0155600e82015481600e0155600f82015481600f01559050508260006004018c6040516108e491906128e5565b908152602001604051809103902060008201548160000155600182018160010190805461091090612c25565b61091b929190611531565b50600282018160020190805461093090612c25565b61093b929190611531565b50600382018160030190805461095090612c25565b61095b929190611531565b506004820181600401908054610972929190611795565b506005820181600501908054610989929190611817565b5060068201816006019080546109a09291906118a3565b5060078201816007019080546109b792919061198c565b506008820160009054906101000a900460ff168160080160006101000a81548160ff0219169083151502179055506008820160019054906101000a900460ff168160080160016101000a81548160ff0219169083151502179055506009820181600901908054610a28929190611afb565b50600a82015481600a0155600b82015481600b0155600c82015481600c0155600d82015481600d0155600e82015481600e0155600f82015481600f01559050507fdd6817c707f804f4ba0602f6785936e85333010a921c480aeca9d4abe74e48fb828c8c604051610a9b9392919061291e565b60405180910390a15050505050505050505050565b610ab8611b4d565b600060080182604051610acb91906128e5565b9081526020016040518091039020604051806102000160405290816000820160009054906101000a900473ffffffffffffffffffffffffffffffffffffffff1673ffffffffffffffffffffffffffffffffffffffff1673ffffffffffffffffffffffffffffffffffffffff168152602001600182018054610b4b90612c25565b80601f0160208091040260200160405190810160405280929190818152602001828054610b7790612c25565b8015610bc45780601f10610b9957610100808354040283529160200191610bc4565b820191906000526020600020905b815481529060010190602001808311610ba757829003601f168201915b505050505081526020016002820154815260200160038201548152602001600482015481526020016005820160009054906101000a900460ff166003811115610c1057610c0f612d00565b5b6003811115610c2257610c21612d00565b5b81526020016005820160019054906101000a900460ff1615151515815260200160068201548152602001600782015481526020016008820154815260200160098201548152602001600a8201548152602001600b8201548152602001600c8201805480602002602001604051908101604052809291908181526020016000905b82821015610d7a578382906000526020600020906003020160405180606001604052908160008201548152602001600182018054610cdf90612c25565b80601f0160208091040260200160405190810160405280929190818152602001828054610d0b90612c25565b8015610d585780601f10610d2d57610100808354040283529160200191610d58565b820191906000526020600020905b815481529060010190602001808311610d3b57829003601f168201915b5050505050815260200160028201548152505081526020019060010190610ca2565b505050508152602001600d8201805480602002602001604051908101604052809291908181526020016000905b82821015610e755783829060005260206000209060020201604051806040016040529081600082018054610dda90612c25565b80601f0160208091040260200160405190810160405280929190818152602001828054610e0690612c25565b8015610e535780601f10610e2857610100808354040283529160200191610e53565b820191906000526020600020905b815481529060010190602001808311610e3657829003601f168201915b5050505050815260200160018201548152505081526020019060010190610da7565b505050508152602001600e8201805480602002602001604051908101604052809291908181526020016000905b82821015610f3457838290600052602060002090600202016040518060400160405290816000820160009054906101000a900473ffffffffffffffffffffffffffffffffffffffff1673ffffffffffffffffffffffffffffffffffffffff1673ffffffffffffffffffffffffffffffffffffffff16815260200160018201548152505081526020019060010190610ea2565b50505050815250509050919050565b610f4b611b4d565b60008060040183604051610f5f91906128e5565b90815260200160405180910390206003018054610f7b90612c25565b80601f0160208091040260200160405190810160405280929190818152602001828054610fa790612c25565b8015610ff45780601f10610fc957610100808354040283529160200191610ff4565b820191906000526020600020905b815481529060010190602001808311610fd757829003601f168201915b5050505050905060006008018160405161100e91906128e5565b9081526020016040518091039020604051806102000160405290816000820160009054906101000a900473ffffffffffffffffffffffffffffffffffffffff1673ffffffffffffffffffffffffffffffffffffffff1673ffffffffffffffffffffffffffffffffffffffff16815260200160018201805461108e90612c25565b80601f01602080910402602001604051908101604052809291908181526020018280546110ba90612c25565b80156111075780601f106110dc57610100808354040283529160200191611107565b820191906000526020600020905b8154815290600101906020018083116110ea57829003601f168201915b505050505081526020016002820154815260200160038201548152602001600482015481526020016005820160009054906101000a900460ff16600381111561115357611152612d00565b5b600381111561116557611164612d00565b5b81526020016005820160019054906101000a900460ff1615151515815260200160068201548152602001600782015481526020016008820154815260200160098201548152602001600a8201548152602001600b8201548152602001600c8201805480602002602001604051908101604052809291908181526020016000905b828210156112bd57838290600052602060002090600302016040518060600160405290816000820154815260200160018201805461122290612c25565b80601f016020809104026020016040519081016040528092919081815260200182805461124e90612c25565b801561129b5780601f106112705761010080835404028352916020019161129b565b820191906000526020600020905b81548152906001019060200180831161127e57829003601f168201915b50505050508152602001600282015481525050815260200190600101906111e5565b505050508152602001600d8201805480602002602001604051908101604052809291908181526020016000905b828210156113b8578382906000526020600020906002020160405180604001604052908160008201805461131d90612c25565b80601f016020809104026020016040519081016040528092919081815260200182805461134990612c25565b80156113965780601f1061136b57610100808354040283529160200191611396565b820191906000526020600020905b81548152906001019060200180831161137957829003601f168201915b50505050508152602001600182015481525050815260200190600101906112ea565b505050508152602001600e8201805480602002602001604051908101604052809291908181526020016000905b8282101561147757838290600052602060002090600202016040518060400160405290816000820160009054906101000a900473ffffffffffffffffffffffffffffffffffffffff1673ffffffffffffffffffffffffffffffffffffffff1673ffffffffffffffffffffffffffffffffffffffff168152602001600182015481525050815260200190600101906113e5565b5050505081525050915050919050565b6001816000016000828254019250508190555050565b600081600001549050919050565b8280546114b790612c25565b90600052602060002090601f0160209004810192826114d95760008555611520565b82601f106114f257805160ff1916838001178555611520565b82800160010185558215611520579182015b8281111561151f578251825591602001919060010190611504565b5b50905061152d9190611bf4565b5090565b82805461153d90612c25565b90600052602060002090601f01602090048101928261155f57600085556115ad565b82601f1061157057805485556115ad565b828001600101855582156115ad57600052602060002091601f016020900482015b828111156115ac578254825591600101919060010190611591565b5b5090506115ba9190611bf4565b5090565b8280548282559060005260206000209060030281019282156116395760005260206000209160030282015b8281111561163857828260008201548160000155600182018160010190805461161190612c25565b61161c929190611531565b50600282015481600201555050916003019190600301906115e9565b5b5090506116469190611c11565b5090565b8280548282559060005260206000209060020281019282156116bb5760005260206000209160020282015b828111156116ba578282600082018160000190805461169390612c25565b61169e929190611531565b5060018201548160010155505091600201919060020190611675565b5b5090506116c89190611c48565b5090565b8280548282559060005260206000209060020281019282156117845760005260206000209160020282015b828111156117835782826000820160009054906101000a900473ffffffffffffffffffffffffffffffffffffffff168160000160006101000a81548173ffffffffffffffffffffffffffffffffffffffff021916908373ffffffffffffffffffffffffffffffffffffffff160217905550600182015481600101555050916002019190600201906116f7565b5b5090506117919190611c77565b5090565b8280548282559060005260206000209060020281019282156118065760005260206000209160020282015b8281111561180557828260008201816000019080546117de90612c25565b6117e9929190611531565b50600182015481600101555050916002019190600201906117c0565b5b5090506118139190611cbd565b5090565b8280548282559060005260206000209060030281019282156118925760005260206000209160030282015b8281111561189157828260008201548160000155600182018160010190805461186a90612c25565b611875929190611531565b5060028201548160020155505091600301919060030190611842565b5b50905061189f9190611cec565b5090565b82805482825590600052602060002090600302810192821561197b5760005260206000209160030282015b8281111561197a5782826000820160009054906101000a900473ffffffffffffffffffffffffffffffffffffffff168160000160006101000a81548173ffffffffffffffffffffffffffffffffffffffff021916908373ffffffffffffffffffffffffffffffffffffffff160217905550600182018160010190805461195390612c25565b61195e929190611531565b50600282015481600201555050916003019190600301906118ce565b5b5090506119889190611d23565b5090565b828054828255906000526020600020906009028101928215611aea5760005260206000209160090282015b82811115611ae95782826000820160009054906101000a900473ffffffffffffffffffffffffffffffffffffffff168160000160006101000a81548173ffffffffffffffffffffffffffffffffffffffff021916908373ffffffffffffffffffffffffffffffffffffffff1602179055506001820181600101908054611a3c90612c25565b611a47929190611531565b5060028201548160020155600382015481600301556004820160009054906101000a900460ff168160040160006101000a81548160ff021916908315150217905550600582015481600501556006820181600601908054611aa99291906115be565b506007820181600701908054611ac092919061164a565b506008820181600801908054611ad79291906116cc565b505050916009019190600901906119b7565b5b509050611af79190611d79565b5090565b828054828255906000526020600020908101928215611b3c5760005260206000209182015b82811115611b3b578254825591600101919060010190611b20565b5b509050611b499190611bf4565b5090565b604051806102000160405280600073ffffffffffffffffffffffffffffffffffffffff1681526020016060815260200160008152602001600081526020016000815260200160006003811115611ba657611ba5612d00565b5b81526020016000151581526020016000815260200160008152602001600081526020016000815260200160008152602001600081526020016060815260200160608152602001606081525090565b5b80821115611c0d576000816000905550600101611bf5565b5090565b5b80821115611c4457600080820160009055600182016000611c339190611e23565b600282016000905550600301611c12565b5090565b5b80821115611c735760008082016000611c629190611e23565b600182016000905550600201611c49565b5090565b5b80821115611cb957600080820160006101000a81549073ffffffffffffffffffffffffffffffffffffffff0219169055600182016000905550600201611c78565b5090565b5b80821115611ce85760008082016000611cd79190611e23565b600182016000905550600201611cbe565b5090565b5b80821115611d1f57600080820160009055600182016000611d0e9190611e23565b600282016000905550600301611ced565b5090565b5b80821115611d7557600080820160006101000a81549073ffffffffffffffffffffffffffffffffffffffff0219169055600182016000611d649190611e23565b600282016000905550600301611d24565b5090565b5b80821115611e1f57600080820160006101000a81549073ffffffffffffffffffffffffffffffffffffffff0219169055600182016000611dba9190611e23565b600282016000905560038201600090556004820160006101000a81549060ff02191690556005820160009055600682016000611df69190611e63565b600782016000611e069190611e87565b600882016000611e169190611eab565b50600901611d7a565b5090565b508054611e2f90612c25565b6000825580601f10611e415750611e60565b601f016020900490600052602060002090810190611e5f9190611bf4565b5b50565b5080546000825560030290600052602060002090810190611e849190611c11565b50565b5080546000825560020290600052602060002090810190611ea89190611c48565b50565b5080546000825560020290600052602060002090810190611ecc9190611c77565b50565b6000611ee2611edd84612988565b612963565b90508083825260208201905082856040860282011115611f0557611f04612dcb565b5b60005b85811015611f355781611f1b888261216a565b845260208401935060408301925050600181019050611f08565b5050509392505050565b6000611f52611f4d846129b4565b612963565b90508083825260208201905082856020860282011115611f7557611f74612dcb565b5b60005b85811015611fc357813567ffffffffffffffff811115611f9b57611f9a612dbc565b5b808601611fa889826121ba565b85526020850194506020840193505050600181019050611f78565b5050509392505050565b6000611fe0611fdb846129e0565b612963565b9050808382526020820190508285602086028201111561200357612002612dcb565b5b60005b8581101561205157813567ffffffffffffffff81111561202957612028612dbc565b5b8086016120368982612226565b85526020850194506020840193505050600181019050612006565b5050509392505050565b600061206e61206984612a0c565b612963565b90508281526020810184848401111561208a57612089612dd0565b5b612095848285612be3565b509392505050565b6000813590506120ac81612e04565b92915050565b600082601f8301126120c7576120c6612dbc565b5b81356120d7848260208601611ecf565b91505092915050565b600082601f8301126120f5576120f4612dbc565b5b8135612105848260208601611f3f565b91505092915050565b600082601f83011261212357612122612dbc565b5b8135612133848260208601611fcd565b91505092915050565b600082601f83011261215157612150612dbc565b5b813561216184826020860161205b565b91505092915050565b6000604082840312156121805761217f612dc1565b5b61218a6040612963565b9050600061219a8482850161209d565b60008301525060206121ae848285016122a6565b60208301525092915050565b6000604082840312156121d0576121cf612dc1565b5b6121da6040612963565b9050600082013567ffffffffffffffff8111156121fa576121f9612dc6565b5b6122068482850161213c565b600083015250602061221a848285016122a6565b60208301525092915050565b60006060828403121561223c5761223b612dc1565b5b6122466060612963565b90506000612256848285016122a6565b600083015250602082013567ffffffffffffffff81111561227a57612279612dc6565b5b6122868482850161213c565b602083015250604061229a848285016122a6565b60408301525092915050565b6000813590506122b581612e1b565b92915050565b6000602082840312156122d1576122d0612dda565b5b600082013567ffffffffffffffff8111156122ef576122ee612dd5565b5b6122fb8482850161213c565b91505092915050565b600080600080600080600080610100898b03121561232557612324612dda565b5b600089013567ffffffffffffffff81111561234357612342612dd5565b5b61234f8b828c0161213c565b985050602089013567ffffffffffffffff8111156123705761236f612dd5565b5b61237c8b828c0161213c565b975050604061238d8b828c016122a6565b965050606061239e8b828c016122a6565b95505060806123af8b828c016122a6565b94505060a089013567ffffffffffffffff8111156123d0576123cf612dd5565b5b6123dc8b828c0161210e565b93505060c089013567ffffffffffffffff8111156123fd576123fc612dd5565b5b6124098b828c016120e0565b92505060e089013567ffffffffffffffff81111561242a57612429612dd5565b5b6124368b828c016120b2565b9150509295985092959890939650565b6000612452838361280b565b60408301905092915050565b600061246a838361283a565b905092915050565b600061247e8383612877565b905092915050565b61248f81612b76565b82525050565b60006124a082612a6d565b6124aa8185612ac0565b93506124b583612a3d565b8060005b838110156124e65781516124cd8882612446565b97506124d883612a99565b9250506001810190506124b9565b5085935050505092915050565b60006124fe82612a78565b6125088185612ad1565b93508360208202850161251a85612a4d565b8060005b858110156125565784840389528151612537858261245e565b945061254283612aa6565b925060208a0199505060018101905061251e565b50829750879550505050505092915050565b600061257382612a83565b61257d8185612ae2565b93508360208202850161258f85612a5d565b8060005b858110156125cb57848403895281516125ac8582612472565b94506125b783612ab3565b925060208a01995050600181019050612593565b50829750879550505050505092915050565b6125e681612b88565b82525050565b6125f581612bd1565b82525050565b600061260682612a8e565b6126108185612af3565b9350612620818560208601612bf2565b61262981612ddf565b840191505092915050565b600061263f82612a8e565b6126498185612b04565b9350612659818560208601612bf2565b61266281612ddf565b840191505092915050565b600061267882612a8e565b6126828185612b15565b9350612692818560208601612bf2565b80840191505092915050565b6000610200830160008301516126b76000860182612486565b50602083015184820360208601526126cf82826125fb565b91505060408301516126e460408601826128c7565b5060608301516126f760608601826128c7565b50608083015161270a60808601826128c7565b5060a083015161271d60a08601826125ec565b5060c083015161273060c08601826125dd565b5060e083015161274360e08601826128c7565b506101008301516127586101008601826128c7565b5061012083015161276d6101208601826128c7565b506101408301516127826101408601826128c7565b506101608301516127976101608601826128c7565b506101808301516127ac6101808601826128c7565b506101a08301518482036101a08601526127c68282612568565b9150506101c08301518482036101c08601526127e282826124f3565b9150506101e08301518482036101e08601526127fe8282612495565b9150508091505092915050565b6040820160008201516128216000850182612486565b50602082015161283460208501826128c7565b50505050565b6000604083016000830151848203600086015261285782826125fb565b915050602083015161286c60208601826128c7565b508091505092915050565b600060608301600083015161288f60008601826128c7565b50602083015184820360208601526128a782826125fb565b91505060408301516128bc60408601826128c7565b508091505092915050565b6128d081612bc7565b82525050565b6128df81612bc7565b82525050565b60006128f1828461266d565b915081905092915050565b60006020820190508181036000830152612916818461269e565b905092915050565b600060608201905061293360008301866128d6565b81810360208301526129458185612634565b905081810360408301526129598184612634565b9050949350505050565b600061296d61297e565b90506129798282612c57565b919050565b6000604051905090565b600067ffffffffffffffff8211156129a3576129a2612d8d565b5b602082029050602081019050919050565b600067ffffffffffffffff8211156129cf576129ce612d8d565b5b602082029050602081019050919050565b600067ffffffffffffffff8211156129fb576129fa612d8d565b5b602082029050602081019050919050565b600067ffffffffffffffff821115612a2757612a26612d8d565b5b612a3082612ddf565b9050602081019050919050565b6000819050602082019050919050565b6000819050602082019050919050565b6000819050602082019050919050565b600081519050919050565b600081519050919050565b600081519050919050565b600081519050919050565b6000602082019050919050565b6000602082019050919050565b6000602082019050919050565b600082825260208201905092915050565b600082825260208201905092915050565b600082825260208201905092915050565b600082825260208201905092915050565b600082825260208201905092915050565b600081905092915050565b6000612b2b82612bc7565b9150612b3683612bc7565b9250827fffffffffffffffffffffffffffffffffffffffffffffffffffffffffffffffff03821115612b6b57612b6a612cd1565b5b828201905092915050565b6000612b8182612ba7565b9050919050565b60008115159050919050565b6000819050612ba282612df0565b919050565b600073ffffffffffffffffffffffffffffffffffffffff82169050919050565b6000819050919050565b6000612bdc82612b94565b9050919050565b82818337600083830152505050565b60005b83811015612c10578082015181840152602081019050612bf5565b83811115612c1f576000848401525b50505050565b60006002820490506001821680612c3d57607f821691505b60208210811415612c5157612c50612d2f565b5b50919050565b612c6082612ddf565b810181811067ffffffffffffffff82111715612c7f57612c7e612d8d565b5b80604052505050565b6000612c9382612bc7565b91507fffffffffffffffffffffffffffffffffffffffffffffffffffffffffffffffff821415612cc657612cc5612cd1565b5b600182019050919050565b7f4e487b7100000000000000000000000000000000000000000000000000000000600052601160045260246000fd5b7f4e487b7100000000000000000000000000000000000000000000000000000000600052602160045260246000fd5b7f4e487b7100000000000000000000000000000000000000000000000000000000600052602260045260246000fd5b7f4e487b7100000000000000000000000000000000000000000000000000000000600052603260045260246000fd5b7f4e487b7100000000000000000000000000000000000000000000000000000000600052604160045260246000fd5b600080fd5b600080fd5b600080fd5b600080fd5b600080fd5b600080fd5b600080fd5b6000601f19601f8301169050919050565b60048110612e0157612e00612d00565b5b50565b612e0d81612b76565b8114612e1857600080fd5b50565b612e2481612bc7565b8114612e2f57600080fd5b5056fea2646970667358221220a9d8bcfee7f1150221ab217636ae290330bc2a81e4ab5af300c3d7942d8fd68364736f6c63430008060033",
  "linkReferences": {},
  "deployedLinkReferences": {}
}