{
  "_format": "hh-sol-artifact-1",
  "contractName": "UserFunding",
  "sourceName": "contracts/UserFunding.sol",
  "abi": [
    {
      "anonymous": false,
      "inputs": [
        {
          "indexed": false,
          "internalType": "address",
          "name": "user",
          "type": "address"
        },
        {
          "indexed": false,
          "internalType": "uint256",
          "name": "reqId",
          "type": "uint256"
        },
        {
          "indexed": false,
          "internalType": "address[]",
          "name": "funders",
          "type": "address[]"
        }
      ],
      "name": "BidsAccepted",
      "type": "event"
    },
    {
      "anonymous": false,
      "inputs": [
        {
          "indexed": false,
          "internalType": "uint256",
          "name": "id",
          "type": "uint256"
        },
        {
          "indexed": false,
          "internalType": "string",
          "name": "name",
          "type": "string"
        },
        {
          "indexed": false,
          "internalType": "string",
          "name": "hash",
          "type": "string"
        }
      ],
      "name": "CategoryCreated",
      "type": "event"
    },
    {
      "anonymous": false,
      "inputs": [
        {
          "indexed": false,
          "internalType": "address",
          "name": "user",
          "type": "address"
        },
        {
          "indexed": false,
          "internalType": "address",
          "name": "funder",
          "type": "address"
        },
        {
          "indexed": false,
          "internalType": "uint256",
          "name": "amount",
          "type": "uint256"
        },
        {
          "indexed": false,
          "internalType": "uint256",
          "name": "percent",
          "type": "uint256"
        }
      ],
      "name": "FundingBidPosted",
      "type": "event"
    },
    {
      "anonymous": false,
      "inputs": [
        {
          "indexed": false,
          "internalType": "address",
          "name": "user",
          "type": "address"
        },
        {
          "indexed": false,
          "internalType": "enum Data.ReqType",
          "name": "reqType",
          "type": "uint8"
        },
        {
          "indexed": false,
          "internalType": "uint256",
          "name": "reqId",
          "type": "uint256"
        }
      ],
      "name": "FundingRequested",
      "type": "event"
    },
    {
      "anonymous": false,
      "inputs": [
        {
          "indexed": false,
          "internalType": "uint256",
          "name": "id",
          "type": "uint256"
        },
        {
          "indexed": false,
          "internalType": "string",
          "name": "postHash",
          "type": "string"
        },
        {
          "indexed": false,
          "internalType": "string",
          "name": "revHash",
          "type": "string"
        }
      ],
      "name": "InitReviewCreated",
      "type": "event"
    },
    {
      "anonymous": false,
      "inputs": [
        {
          "indexed": false,
          "internalType": "uint256",
          "name": "id",
          "type": "uint256"
        },
        {
          "indexed": false,
          "internalType": "string",
          "name": "title",
          "type": "string"
        },
        {
          "indexed": false,
          "internalType": "string",
          "name": "hash",
          "type": "string"
        }
      ],
      "name": "PostCreated",
      "type": "event"
    },
    {
      "anonymous": false,
      "inputs": [
        {
          "indexed": false,
          "internalType": "uint256",
          "name": "id",
          "type": "uint256"
        },
        {
          "indexed": false,
          "internalType": "string",
          "name": "title",
          "type": "string"
        },
        {
          "indexed": false,
          "internalType": "string",
          "name": "hash",
          "type": "string"
        },
        {
          "indexed": false,
          "internalType": "bool",
          "name": "published",
          "type": "bool"
        }
      ],
      "name": "PostUpdated",
      "type": "event"
    },
    {
      "inputs": [
        {
          "internalType": "uint256",
          "name": "_reqId",
          "type": "uint256"
        },
        {
          "internalType": "address[]",
          "name": "_addresses",
          "type": "address[]"
        },
        {
          "components": [
            {
              "internalType": "address",
              "name": "bidder",
              "type": "address"
            },
            {
              "internalType": "uint256",
              "name": "amount",
              "type": "uint256"
            }
          ],
          "internalType": "struct Data.PartialBid",
          "name": "_partial",
          "type": "tuple"
        }
      ],
      "name": "acceptBids",
      "outputs": [],
      "stateMutability": "nonpayable",
      "type": "function"
    },
    {
      "inputs": [
        {
          "internalType": "address",
          "name": "_user",
          "type": "address"
        },
        {
          "internalType": "uint256",
          "name": "_reqId",
          "type": "uint256"
        },
        {
          "internalType": "address[]",
          "name": "_addresses",
          "type": "address[]"
        },
        {
          "components": [
            {
              "internalType": "address",
              "name": "bidder",
              "type": "address"
            },
            {
              "internalType": "uint256",
              "name": "amount",
              "type": "uint256"
            }
          ],
          "internalType": "struct Data.PartialBid",
          "name": "_partial",
          "type": "tuple"
        }
      ],
      "name": "acceptBidsFraudProof",
      "outputs": [
        {
          "internalType": "bool",
          "name": "",
          "type": "bool"
        }
      ],
      "stateMutability": "view",
      "type": "function"
    },
    {
      "inputs": [
        {
          "internalType": "address",
          "name": "",
          "type": "address"
        },
        {
          "internalType": "uint256",
          "name": "",
          "type": "uint256"
        },
        {
          "internalType": "address",
          "name": "",
          "type": "address"
        }
      ],
      "name": "acceptedBid",
      "outputs": [
        {
          "internalType": "uint256",
          "name": "amountProvided",
          "type": "uint256"
        },
        {
          "internalType": "uint256",
          "name": "bidId",
          "type": "uint256"
        },
        {
          "internalType": "uint256",
          "name": "returnRate",
          "type": "uint256"
        },
        {
          "internalType": "bool",
          "name": "accepted",
          "type": "bool"
        },
        {
          "internalType": "address",
          "name": "bidder",
          "type": "address"
        }
      ],
      "stateMutability": "view",
      "type": "function"
    },
    {
      "inputs": [
        {
          "internalType": "address",
          "name": "",
          "type": "address"
        },
        {
          "internalType": "uint256",
          "name": "",
          "type": "uint256"
        },
        {
          "internalType": "uint256",
          "name": "",
          "type": "uint256"
        }
      ],
      "name": "acceptedBidders",
      "outputs": [
        {
          "internalType": "address",
          "name": "",
          "type": "address"
        }
      ],
      "stateMutability": "view",
      "type": "function"
    },
    {
      "inputs": [
        {
          "internalType": "address",
          "name": "_user",
          "type": "address"
        },
        {
          "internalType": "uint256",
          "name": "_reqId",
          "type": "uint256"
        },
        {
          "internalType": "uint256",
          "name": "_amount",
          "type": "uint256"
        },
        {
          "internalType": "uint256",
          "name": "_percent",
          "type": "uint256"
        }
      ],
      "name": "bidFunding",
      "outputs": [],
      "stateMutability": "nonpayable",
      "type": "function"
    },
    {
      "inputs": [
        {
          "internalType": "uint256",
          "name": "_reqId",
          "type": "uint256"
        }
      ],
      "name": "calculateLowestBids",
      "outputs": [
        {
          "internalType": "address[]",
          "name": "",
          "type": "address[]"
        },
        {
          "components": [
            {
              "internalType": "address",
              "name": "bidder",
              "type": "address"
            },
            {
              "internalType": "uint256",
              "name": "amount",
              "type": "uint256"
            }
          ],
          "internalType": "struct Data.PartialBid",
          "name": "",
          "type": "tuple"
        }
      ],
      "stateMutability": "view",
      "type": "function"
    },
    {
      "inputs": [
        {
          "internalType": "address",
          "name": "",
          "type": "address"
        },
        {
          "internalType": "string",
          "name": "",
          "type": "string"
        },
        {
          "internalType": "uint256",
          "name": "",
          "type": "uint256"
        }
      ],
      "name": "catPost",
      "outputs": [
        {
          "internalType": "string",
          "name": "postHash",
          "type": "string"
        },
        {
          "internalType": "uint256",
          "name": "catImpact",
          "type": "uint256"
        },
        {
          "internalType": "uint256",
          "name": "postCred",
          "type": "uint256"
        },
        {
          "internalType": "uint256",
          "name": "timestamp",
          "type": "uint256"
        }
      ],
      "stateMutability": "view",
      "type": "function"
    },
    {
      "inputs": [
        {
          "internalType": "address",
          "name": "_user",
          "type": "address"
        },
        {
          "internalType": "uint256",
          "name": "_reqId",
          "type": "uint256"
        },
        {
          "internalType": "address",
          "name": "_bidder",
          "type": "address"
        }
      ],
      "name": "findBidder",
      "outputs": [
        {
          "components": [
            {
              "internalType": "uint256",
              "name": "amountProvided",
              "type": "uint256"
            },
            {
              "internalType": "uint256",
              "name": "bidId",
              "type": "uint256"
            },
            {
              "internalType": "uint256",
              "name": "returnRate",
              "type": "uint256"
            },
            {
              "internalType": "bool",
              "name": "accepted",
              "type": "bool"
            },
            {
              "internalType": "address",
              "name": "bidder",
              "type": "address"
            }
          ],
          "internalType": "struct Data.FundingBid",
          "name": "",
          "type": "tuple"
        }
      ],
      "stateMutability": "view",
      "type": "function"
    },
    {
      "inputs": [
        {
          "internalType": "address",
          "name": "",
          "type": "address"
        },
        {
          "internalType": "uint256",
          "name": "",
          "type": "uint256"
        },
        {
          "internalType": "address",
          "name": "",
          "type": "address"
        }
      ],
      "name": "fundingBid",
      "outputs": [
        {
          "internalType": "uint256",
          "name": "amountProvided",
          "type": "uint256"
        },
        {
          "internalType": "uint256",
          "name": "bidId",
          "type": "uint256"
        },
        {
          "internalType": "uint256",
          "name": "returnRate",
          "type": "uint256"
        },
        {
          "internalType": "bool",
          "name": "accepted",
          "type": "bool"
        },
        {
          "internalType": "address",
          "name": "bidder",
          "type": "address"
        }
      ],
      "stateMutability": "view",
      "type": "function"
    },
    {
      "inputs": [
        {
          "internalType": "address",
          "name": "",
          "type": "address"
        },
        {
          "internalType": "uint256",
          "name": "",
          "type": "uint256"
        },
        {
          "internalType": "uint256",
          "name": "",
          "type": "uint256"
        }
      ],
      "name": "fundingBidders",
      "outputs": [
        {
          "internalType": "address",
          "name": "",
          "type": "address"
        }
      ],
      "stateMutability": "view",
      "type": "function"
    },
    {
      "inputs": [
        {
          "internalType": "address",
          "name": "",
          "type": "address"
        },
        {
          "internalType": "uint256",
          "name": "",
          "type": "uint256"
        },
        {
          "internalType": "uint256",
          "name": "",
          "type": "uint256"
        }
      ],
      "name": "fundingBids",
      "outputs": [
        {
          "internalType": "uint256",
          "name": "amountProvided",
          "type": "uint256"
        },
        {
          "internalType": "uint256",
          "name": "bidId",
          "type": "uint256"
        },
        {
          "internalType": "uint256",
          "name": "returnRate",
          "type": "uint256"
        },
        {
          "internalType": "bool",
          "name": "accepted",
          "type": "bool"
        },
        {
          "internalType": "address",
          "name": "bidder",
          "type": "address"
        }
      ],
      "stateMutability": "view",
      "type": "function"
    },
    {
      "inputs": [
        {
          "internalType": "address",
          "name": "",
          "type": "address"
        },
        {
          "internalType": "uint256",
          "name": "",
          "type": "uint256"
        }
      ],
      "name": "fundingReq",
      "outputs": [
        {
          "internalType": "uint256",
          "name": "amountRequested",
          "type": "uint256"
        },
        {
          "internalType": "uint256",
          "name": "reqId",
          "type": "uint256"
        },
        {
          "internalType": "uint256",
          "name": "deadline",
          "type": "uint256"
        },
        {
          "internalType": "uint256",
          "name": "returnRate",
          "type": "uint256"
        },
        {
          "internalType": "enum Data.ReqType",
          "name": "reqType",
          "type": "uint8"
        }
      ],
      "stateMutability": "view",
      "type": "function"
    },
    {
      "inputs": [
        {
          "internalType": "address",
          "name": "",
          "type": "address"
        },
        {
          "internalType": "uint256",
          "name": "",
          "type": "uint256"
        }
      ],
      "name": "fundingReqs",
      "outputs": [
        {
          "internalType": "uint256",
          "name": "amountRequested",
          "type": "uint256"
        },
        {
          "internalType": "uint256",
          "name": "reqId",
          "type": "uint256"
        },
        {
          "internalType": "uint256",
          "name": "deadline",
          "type": "uint256"
        },
        {
          "internalType": "uint256",
          "name": "returnRate",
          "type": "uint256"
        },
        {
          "internalType": "enum Data.ReqType",
          "name": "reqType",
          "type": "uint8"
        }
      ],
      "stateMutability": "view",
      "type": "function"
    },
    {
      "inputs": [
        {
          "internalType": "address",
          "name": "_user",
          "type": "address"
        },
        {
          "internalType": "uint256",
          "name": "_reqId",
          "type": "uint256"
        }
      ],
      "name": "getAcceptedBids",
      "outputs": [
        {
          "internalType": "address[]",
          "name": "",
          "type": "address[]"
        }
      ],
      "stateMutability": "view",
      "type": "function"
    },
    {
      "inputs": [
        {
          "internalType": "address",
          "name": "_user",
          "type": "address"
        }
      ],
      "name": "getAllFundingReqs",
      "outputs": [
        {
          "components": [
            {
              "internalType": "uint256",
              "name": "amountRequested",
              "type": "uint256"
            },
            {
              "internalType": "uint256",
              "name": "reqId",
              "type": "uint256"
            },
            {
              "internalType": "uint256",
              "name": "deadline",
              "type": "uint256"
            },
            {
              "internalType": "uint256",
              "name": "returnRate",
              "type": "uint256"
            },
            {
              "internalType": "enum Data.ReqType",
              "name": "reqType",
              "type": "uint8"
            }
          ],
          "internalType": "struct Data.FundingReq[]",
          "name": "",
          "type": "tuple[]"
        }
      ],
      "stateMutability": "view",
      "type": "function"
    },
    {
      "inputs": [
        {
          "internalType": "uint256",
          "name": "",
          "type": "uint256"
        }
      ],
      "name": "keys",
      "outputs": [
        {
          "internalType": "address",
          "name": "",
          "type": "address"
        }
      ],
      "stateMutability": "view",
      "type": "function"
    },
    {
      "inputs": [],
      "name": "owner",
      "outputs": [
        {
          "internalType": "address",
          "name": "",
          "type": "address"
        }
      ],
      "stateMutability": "view",
      "type": "function"
    },
    {
      "inputs": [
        {
          "internalType": "uint256",
          "name": "_amount",
          "type": "uint256"
        },
        {
          "internalType": "uint256",
          "name": "_percentReturn",
          "type": "uint256"
        },
        {
          "internalType": "uint256",
          "name": "_deadline",
          "type": "uint256"
        },
        {
          "internalType": "enum Data.ReqType",
          "name": "_reqType",
          "type": "uint8"
        }
      ],
      "name": "requestFunding",
      "outputs": [],
      "stateMutability": "nonpayable",
      "type": "function"
    },
    {
      "inputs": [],
      "name": "totalCategoryVotes",
      "outputs": [
        {
          "internalType": "uint256",
          "name": "",
          "type": "uint256"
        }
      ],
      "stateMutability": "view",
      "type": "function"
    },
    {
      "inputs": [
        {
          "internalType": "address",
          "name": "",
          "type": "address"
        }
      ],
      "name": "totalFundingReq",
      "outputs": [
        {
          "internalType": "uint256",
          "name": "",
          "type": "uint256"
        }
      ],
      "stateMutability": "view",
      "type": "function"
    },
    {
      "inputs": [
        {
          "internalType": "address",
          "name": "",
          "type": "address"
        }
      ],
      "name": "userAdded",
      "outputs": [
        {
          "internalType": "bool",
          "name": "",
          "type": "bool"
        }
      ],
      "stateMutability": "view",
      "type": "function"
    },
    {
      "inputs": [
        {
          "internalType": "address",
          "name": "",
          "type": "address"
        },
        {
          "internalType": "uint256",
          "name": "",
          "type": "uint256"
        }
      ],
      "name": "userCats",
      "outputs": [
        {
          "internalType": "string",
          "name": "",
          "type": "string"
        }
      ],
      "stateMutability": "view",
      "type": "function"
    },
    {
      "inputs": [
        {
          "internalType": "address",
          "name": "",
          "type": "address"
        },
        {
          "internalType": "uint256",
          "name": "",
          "type": "uint256"
        }
      ],
      "name": "userFunding",
      "outputs": [
        {
          "internalType": "address",
          "name": "requestingFunds",
          "type": "address"
        },
        {
          "internalType": "address",
          "name": "providingFunds",
          "type": "address"
        },
        {
          "internalType": "uint256",
          "name": "amountProvided",
          "type": "uint256"
        },
        {
          "internalType": "uint256",
          "name": "amountRemaining",
          "type": "uint256"
        },
        {
          "internalType": "uint256",
          "name": "returnRate",
          "type": "uint256"
        },
        {
          "internalType": "bool",
          "name": "accepted",
          "type": "bool"
        },
        {
          "internalType": "bool",
          "name": "withdrawn",
          "type": "bool"
        }
      ],
      "stateMutability": "view",
      "type": "function"
    },
    {
      "inputs": [
        {
          "internalType": "address",
          "name": "",
          "type": "address"
        }
      ],
      "name": "users",
      "outputs": [
        {
          "internalType": "uint256",
          "name": "",
          "type": "uint256"
        }
      ],
      "stateMutability": "view",
      "type": "function"
    }
  ],
  "bytecode": "0x608060405234801561001057600080fd5b506130ec806100206000396000f3fe608060405234801561001057600080fd5b50600436106101585760003560e01c8063733907cc116100c3578063d23c5a131161007c578063d23c5a13146104ab578063d5d23763146104df578063de8e05b1146104fd578063e66e3df014610519578063e8073a641461054f578063f0f6ae051461057f57610158565b8063733907cc146103ad5780638144170b146103c95780638da5cb5b146103fd578063a4fc1a131461041b578063a87430ba1461044b578063ce2bfa3d1461047b57610158565b806354db24531161011557806354db2453146102865780635905f8e0146102ba5780635bd0161f146102ea5780636bda722b1461031d5780636df2fdba1461034d57806372a02e411461037d57610158565b80630cb6aaf11461015d578063236963291461018d57806328af320b146101be57806329c73e99146101ee5780632e2cf7571461022257806336aba8dd14610256575b600080fd5b610177600480360381019061017291906121e1565b61059b565b604051610184919061224f565b60405180910390f35b6101a760048036038101906101a291906121e1565b6105da565b6040516101b5929190612366565b60405180910390f35b6101d860048036038101906101d391906123c2565b610a5e565b6040516101e59190612498565b60405180910390f35b610208600480360381019061020391906123c2565b610b96565b6040516102199594939291906124d1565b60405180910390f35b61023c60048036038101906102379190612524565b610c13565b60405161024d9594939291906125db565b60405180910390f35b610270600480360381019061026b919061262e565b610c73565b60405161027d919061265b565b60405180910390f35b6102a0600480360381019061029b9190612676565b610c8b565b6040516102b19594939291906124d1565b60405180910390f35b6102d460048036038101906102cf9190612676565b610d18565b6040516102e1919061224f565b60405180910390f35b61030460048036038101906102ff919061280f565b610d73565b6040516103149493929190612906565b60405180910390f35b6103376004803603810190610332919061262e565b610e6b565b6040516103449190612952565b60405180910390f35b61036760048036038101906103629190612a8a565b610e8b565b6040516103749190612952565b60405180910390f35b61039760048036038101906103929190612524565b610fdd565b6040516103a49190612b0d565b60405180910390f35b6103c760048036038101906103c29190612b2f565b6110bc565b005b6103e360048036038101906103de91906123c2565b6113dd565b6040516103f49594939291906124d1565b60405180910390f35b61040561145a565b604051610412919061224f565b60405180910390f35b61043560048036038101906104309190612524565b61147e565b6040516104429190612b96565b60405180910390f35b6104656004803603810190610460919061262e565b611537565b604051610472919061265b565b60405180910390f35b61049560048036038101906104909190612676565b61154f565b6040516104a2919061224f565b60405180910390f35b6104c560048036038101906104c09190612524565b6115aa565b6040516104d69594939291906125db565b60405180910390f35b6104e76115fa565b6040516104f4919061265b565b60405180910390f35b61051760048036038101906105129190612bb8565b611600565b005b610533600480360381019061052e9190612524565b611cda565b6040516105469796959493929190612c27565b60405180910390f35b6105696004803603810190610564919061262e565b611d93565b6040516105769190612dbc565b60405180910390f35b61059960048036038101906105949190612e03565b611e94565b005b600f81815481106105ab57600080fd5b906000526020600020016000915054906101000a900473ffffffffffffffffffffffffffffffffffffffff1681565b60606105e4612120565b6000601160003373ffffffffffffffffffffffffffffffffffffffff1673ffffffffffffffffffffffffffffffffffffffff1681526020019081526020016000206000858152602001908152602001600020600001549050600080601360003373ffffffffffffffffffffffffffffffffffffffff1673ffffffffffffffffffffffffffffffffffffffff1681526020019081526020016000206000878152602001908152602001600020805480602002602001604051908101604052809291908181526020016000905b8282101561077057838290600052602060002090600402016040518060a00160405290816000820154815260200160018201548152602001600282015481526020016003820160009054906101000a900460ff161515151581526020016003820160019054906101000a900473ffffffffffffffffffffffffffffffffffffffff1673ffffffffffffffffffffffffffffffffffffffff1673ffffffffffffffffffffffffffffffffffffffff1681525050815260200190600101906106af565b5050505090506000815167ffffffffffffffff811115610793576107926126e4565b5b6040519080825280602002602001820160405280156107c15781602001602082028036833780820191505090505b509050600080836000815181106107db576107da612e6a565b5b60200260200101516040015190506000805b8551811015610a0557878710156109f25760005b86518110156108915786818151811061081d5761081c612e6a565b5b60200260200101516060015115801561085457508387828151811061084557610844612e6a565b5b60200260200101516040015111155b1561087e5786818151811061086c5761086b612e6a565b5b60200260200101516040015193508092505b808061088990612ec8565b915050610801565b508582815181106108a5576108a4612e6a565b5b602002602001015160000151935060018683815181106108c8576108c7612e6a565b5b602002602001015160600190151590811515815250508582815181106108f1576108f0612e6a565b5b6020026020010151608001518583815181106109105761090f612e6a565b5b602002602001019073ffffffffffffffffffffffffffffffffffffffff16908173ffffffffffffffffffffffffffffffffffffffff16815250508784886109579190612f11565b11156109c5576000878961096b9190612f67565b905085604051806040016040528088868151811061098c5761098b612e6a565b5b602002602001015173ffffffffffffffffffffffffffffffffffffffff168152602001838152509a509a50505050505050505050610a59565b8582815181106109d8576109d7612e6a565b5b602002602001015160000151876109ef9190612f11565b96505b80806109fd90612ec8565b9150506107ed565b50836040518060400160405280868481518110610a2557610a24612e6a565b5b602002602001015173ffffffffffffffffffffffffffffffffffffffff168152602001600081525098509850505050505050505b915091565b610a66612150565b601660008573ffffffffffffffffffffffffffffffffffffffff1673ffffffffffffffffffffffffffffffffffffffff168152602001908152602001600020600084815260200190815260200160002060008373ffffffffffffffffffffffffffffffffffffffff1673ffffffffffffffffffffffffffffffffffffffff1681526020019081526020016000206040518060a00160405290816000820154815260200160018201548152602001600282015481526020016003820160009054906101000a900460ff161515151581526020016003820160019054906101000a900473ffffffffffffffffffffffffffffffffffffffff1673ffffffffffffffffffffffffffffffffffffffff1673ffffffffffffffffffffffffffffffffffffffff168152505090509392505050565b601760205282600052604060002060205281600052604060002060205280600052604060002060009250925050508060000154908060010154908060020154908060030160009054906101000a900460ff16908060030160019054906101000a900473ffffffffffffffffffffffffffffffffffffffff16905085565b60126020528160005260406000208181548110610c2f57600080fd5b9060005260206000209060050201600091509150508060000154908060010154908060020154908060030154908060040160009054906101000a900460ff16905085565b600c6020528060005260406000206000915090505481565b60136020528260005260406000206020528160005260406000208181548110610cb357600080fd5b906000526020600020906004020160009250925050508060000154908060010154908060020154908060030160009054906101000a900460ff16908060030160019054906101000a900473ffffffffffffffffffffffffffffffffffffffff16905085565b60146020528260005260406000206020528160005260406000208181548110610d4057600080fd5b90600052602060002001600092509250509054906101000a900473ffffffffffffffffffffffffffffffffffffffff1681565b6002602052826000526040600020828051602081018201805184825260208301602085012081835280955050505050508181548110610db157600080fd5b90600052602060002090600402016000925092505050806000018054610dd690612fca565b80601f0160208091040260200160405190810160405280929190818152602001828054610e0290612fca565b8015610e4f5780601f10610e2457610100808354040283529160200191610e4f565b820191906000526020600020905b815481529060010190602001808311610e3257829003601f168201915b5050505050908060010154908060020154908060030154905084565b600e6020528060005260406000206000915054906101000a900460ff1681565b600080600190506000601160008873ffffffffffffffffffffffffffffffffffffffff1673ffffffffffffffffffffffffffffffffffffffff16815260200190815260200160002060008781526020019081526020016000206000015490506000805b60018751610efc9190612f67565b811015610f52576000610f2a8a8a8a8581518110610f1d57610f1c612e6a565b5b6020026020010151610a5e565b6000015190508083610f3c9190612f11565b9250508080610f4a90612ec8565b915050610eee565b50600085602001511415610fa857610f9288888860018a51610f749190612f67565b81518110610f8557610f84612e6a565b5b6020026020010151610a5e565b6000015181610fa19190612f11565b9050610fbb565b846020015181610fb89190612f11565b90505b808210610fcd57829350505050610fd5565b821593505050505b949350505050565b6060601560008473ffffffffffffffffffffffffffffffffffffffff1673ffffffffffffffffffffffffffffffffffffffff16815260200190815260200160002060008381526020019081526020016000208054806020026020016040519081016040528092919081815260200182805480156110af57602002820191906000526020600020905b8160009054906101000a900473ffffffffffffffffffffffffffffffffffffffff1673ffffffffffffffffffffffffffffffffffffffff1681526020019060010190808311611065575b5050505050905092915050565b42601160008673ffffffffffffffffffffffffffffffffffffffff1673ffffffffffffffffffffffffffffffffffffffff1681526020019081526020016000206000858152602001908152602001600020600201541161111b57600080fd5b80601160008673ffffffffffffffffffffffffffffffffffffffff1673ffffffffffffffffffffffffffffffffffffffff168152602001908152602001600020600085815260200190815260200160002060030154111561117b57600080fd5b61118560196120fc565b60006111916019612112565b90506040518060a001604052808481526020018281526020018381526020016000151581526020013373ffffffffffffffffffffffffffffffffffffffff16815250601660008773ffffffffffffffffffffffffffffffffffffffff1673ffffffffffffffffffffffffffffffffffffffff168152602001908152602001600020600086815260200190815260200160002060003373ffffffffffffffffffffffffffffffffffffffff1673ffffffffffffffffffffffffffffffffffffffff16815260200190815260200160002060008201518160000155602082015181600101556040820151816002015560608201518160030160006101000a81548160ff02191690831515021790555060808201518160030160016101000a81548173ffffffffffffffffffffffffffffffffffffffff021916908373ffffffffffffffffffffffffffffffffffffffff160217905550905050601460008673ffffffffffffffffffffffffffffffffffffffff1673ffffffffffffffffffffffffffffffffffffffff1681526020019081526020016000206000858152602001908152602001600020339080600181540180825580915050600190039060005260206000200160009091909190916101000a81548173ffffffffffffffffffffffffffffffffffffffff021916908373ffffffffffffffffffffffffffffffffffffffff1602179055507fc7d3e9c7b2f8b7540e149072bb5f486a7efd24806fac05d0f0afb2b508695a9e853385856040516113ce9493929190612ffc565b60405180910390a15050505050565b601660205282600052604060002060205281600052604060002060205280600052604060002060009250925050508060000154908060010154908060020154908060030160009054906101000a900460ff16908060030160019054906101000a900473ffffffffffffffffffffffffffffffffffffffff16905085565b60008054906101000a900473ffffffffffffffffffffffffffffffffffffffff1681565b6003602052816000526040600020818154811061149a57600080fd5b906000526020600020016000915091505080546114b690612fca565b80601f01602080910402602001604051908101604052809291908181526020018280546114e290612fca565b801561152f5780601f106115045761010080835404028352916020019161152f565b820191906000526020600020905b81548152906001019060200180831161151257829003601f168201915b505050505081565b600d6020528060005260406000206000915090505481565b6015602052826000526040600020602052816000526040600020818154811061157757600080fd5b90600052602060002001600092509250509054906101000a900473ffffffffffffffffffffffffffffffffffffffff1681565b6011602052816000526040600020602052806000526040600020600091509150508060000154908060010154908060020154908060030154908060040160009054906101000a900460ff16905085565b60015481565b42601160003373ffffffffffffffffffffffffffffffffffffffff1673ffffffffffffffffffffffffffffffffffffffff1681526020019081526020016000206000858152602001908152602001600020600201541061165f57600080fd5b61166b33848484610e8b565b61167457600080fd5b60005b600183516116859190612f67565b8110156118be57601560003373ffffffffffffffffffffffffffffffffffffffff1673ffffffffffffffffffffffffffffffffffffffff16815260200190815260200160002060008581526020019081526020016000208382815181106116ef576116ee612e6a565b5b60200260200101519080600181540180825580915050600190039060005260206000200160009091909190916101000a81548173ffffffffffffffffffffffffffffffffffffffff021916908373ffffffffffffffffffffffffffffffffffffffff16021790555061177c338585848151811061176f5761176e612e6a565b5b6020026020010151610a5e565b601760003373ffffffffffffffffffffffffffffffffffffffff1673ffffffffffffffffffffffffffffffffffffffff168152602001908152602001600020600086815260200190815260200160002060008584815181106117e1576117e0612e6a565b5b602002602001015173ffffffffffffffffffffffffffffffffffffffff1673ffffffffffffffffffffffffffffffffffffffff16815260200190815260200160002060008201518160000155602082015181600101556040820151816002015560608201518160030160006101000a81548160ff02191690831515021790555060808201518160030160016101000a81548173ffffffffffffffffffffffffffffffffffffffff021916908373ffffffffffffffffffffffffffffffffffffffff16021790555090505080806118b690612ec8565b915050611677565b50601560003373ffffffffffffffffffffffffffffffffffffffff1673ffffffffffffffffffffffffffffffffffffffff1681526020019081526020016000206000848152602001908152602001600020826001845161191e9190612f67565b8151811061192f5761192e612e6a565b5b60200260200101519080600181540180825580915050600190039060005260206000200160009091909190916101000a81548173ffffffffffffffffffffffffffffffffffffffff021916908373ffffffffffffffffffffffffffffffffffffffff160217905550600081602001511415611b17576119d6338484600186516119b89190612f67565b815181106119c9576119c8612e6a565b5b6020026020010151610a5e565b601760003373ffffffffffffffffffffffffffffffffffffffff1673ffffffffffffffffffffffffffffffffffffffff168152602001908152602001600020600085815260200190815260200160002060008460018651611a379190612f67565b81518110611a4857611a47612e6a565b5b602002602001015173ffffffffffffffffffffffffffffffffffffffff1673ffffffffffffffffffffffffffffffffffffffff16815260200190815260200160002060008201518160000155602082015181600101556040820151816002015560608201518160030160006101000a81548160ff02191690831515021790555060808201518160030160016101000a81548173ffffffffffffffffffffffffffffffffffffffff021916908373ffffffffffffffffffffffffffffffffffffffff160217905550905050611c9a565b6000611b4b33858560018751611b2d9190612f67565b81518110611b3e57611b3d612e6a565b5b6020026020010151610a5e565b9050816020015181600001818152505080601760003373ffffffffffffffffffffffffffffffffffffffff1673ffffffffffffffffffffffffffffffffffffffff168152602001908152602001600020600086815260200190815260200160002060008560018751611bbd9190612f67565b81518110611bce57611bcd612e6a565b5b602002602001015173ffffffffffffffffffffffffffffffffffffffff1673ffffffffffffffffffffffffffffffffffffffff16815260200190815260200160002060008201518160000155602082015181600101556040820151816002015560608201518160030160006101000a81548160ff02191690831515021790555060808201518160030160016101000a81548173ffffffffffffffffffffffffffffffffffffffff021916908373ffffffffffffffffffffffffffffffffffffffff160217905550905050505b7f20ed1a7fa3ab1be7b914ea0810df70dd44d72dd0afb160f1bcab427ecd8566d4338484604051611ccd93929190613041565b60405180910390a1505050565b60106020528160005260406000208181548110611cf657600080fd5b9060005260206000209060060201600091509150508060000160009054906101000a900473ffffffffffffffffffffffffffffffffffffffff16908060010160009054906101000a900473ffffffffffffffffffffffffffffffffffffffff16908060020154908060030154908060040154908060050160009054906101000a900460ff16908060050160019054906101000a900460ff16905087565b6060601260008373ffffffffffffffffffffffffffffffffffffffff1673ffffffffffffffffffffffffffffffffffffffff168152602001908152602001600020805480602002602001604051908101604052809291908181526020016000905b82821015611e8957838290600052602060002090600502016040518060a0016040529081600082015481526020016001820154815260200160028201548152602001600382015481526020016004820160009054906101000a900460ff166003811115611e6457611e63612564565b5b6003811115611e7657611e75612564565b5b8152505081526020019060010190611df4565b505050509050919050565b611e9e60196120fc565b6000611eaa6019612112565b905060006040518060a001604052808781526020018381526020018542611ed19190612f11565b8152602001868152602001846003811115611eef57611eee612564565b5b815250905080601160003373ffffffffffffffffffffffffffffffffffffffff1673ffffffffffffffffffffffffffffffffffffffff16815260200190815260200160002060008481526020019081526020016000206000820151816000015560208201518160010155604082015181600201556060820151816003015560808201518160040160006101000a81548160ff02191690836003811115611f9857611f97612564565b5b0217905550905050601260003373ffffffffffffffffffffffffffffffffffffffff1673ffffffffffffffffffffffffffffffffffffffff1681526020019081526020016000208190806001815401808255809150506001900390600052602060002090600502016000909190919091506000820151816000015560208201518160010155604082015181600201556060820151816003015560808201518160040160006101000a81548160ff0219169083600381111561205c5761205b612564565b5b0217905550505085600c60003373ffffffffffffffffffffffffffffffffffffffff1673ffffffffffffffffffffffffffffffffffffffff16815260200190815260200160002060008282546120b29190612f11565b925050819055507fce01bf147f658a29130bcf795bc80e8fb8dfbae2ca674b020c10b6c6608fc3193384846040516120ec9392919061307f565b60405180910390a1505050505050565b6001816000016000828254019250508190555050565b600081600001549050919050565b6040518060400160405280600073ffffffffffffffffffffffffffffffffffffffff168152602001600081525090565b6040518060a00160405280600081526020016000815260200160008152602001600015158152602001600073ffffffffffffffffffffffffffffffffffffffff1681525090565b6000604051905090565b600080fd5b600080fd5b6000819050919050565b6121be816121ab565b81146121c957600080fd5b50565b6000813590506121db816121b5565b92915050565b6000602082840312156121f7576121f66121a1565b5b6000612205848285016121cc565b91505092915050565b600073ffffffffffffffffffffffffffffffffffffffff82169050919050565b60006122398261220e565b9050919050565b6122498161222e565b82525050565b60006020820190506122646000830184612240565b92915050565b600081519050919050565b600082825260208201905092915050565b6000819050602082019050919050565b61229f8161222e565b82525050565b60006122b18383612296565b60208301905092915050565b6000602082019050919050565b60006122d58261226a565b6122df8185612275565b93506122ea83612286565b8060005b8381101561231b57815161230288826122a5565b975061230d836122bd565b9250506001810190506122ee565b5085935050505092915050565b612331816121ab565b82525050565b60408201600082015161234d6000850182612296565b5060208201516123606020850182612328565b50505050565b6000606082019050818103600083015261238081856122ca565b905061238f6020830184612337565b9392505050565b61239f8161222e565b81146123aa57600080fd5b50565b6000813590506123bc81612396565b92915050565b6000806000606084860312156123db576123da6121a1565b5b60006123e9868287016123ad565b93505060206123fa868287016121cc565b925050604061240b868287016123ad565b9150509250925092565b60008115159050919050565b61242a81612415565b82525050565b60a0820160008201516124466000850182612328565b5060208201516124596020850182612328565b50604082015161246c6040850182612328565b50606082015161247f6060850182612421565b5060808201516124926080850182612296565b50505050565b600060a0820190506124ad6000830184612430565b92915050565b6124bc816121ab565b82525050565b6124cb81612415565b82525050565b600060a0820190506124e660008301886124b3565b6124f360208301876124b3565b61250060408301866124b3565b61250d60608301856124c2565b61251a6080830184612240565b9695505050505050565b6000806040838503121561253b5761253a6121a1565b5b6000612549858286016123ad565b925050602061255a858286016121cc565b9150509250929050565b7f4e487b7100000000000000000000000000000000000000000000000000000000600052602160045260246000fd5b600481106125a4576125a3612564565b5b50565b60008190506125b582612593565b919050565b60006125c5826125a7565b9050919050565b6125d5816125ba565b82525050565b600060a0820190506125f060008301886124b3565b6125fd60208301876124b3565b61260a60408301866124b3565b61261760608301856124b3565b61262460808301846125cc565b9695505050505050565b600060208284031215612644576126436121a1565b5b6000612652848285016123ad565b91505092915050565b600060208201905061267060008301846124b3565b92915050565b60008060006060848603121561268f5761268e6121a1565b5b600061269d868287016123ad565b93505060206126ae868287016121cc565b92505060406126bf868287016121cc565b9150509250925092565b600080fd5b600080fd5b6000601f19601f8301169050919050565b7f4e487b7100000000000000000000000000000000000000000000000000000000600052604160045260246000fd5b61271c826126d3565b810181811067ffffffffffffffff8211171561273b5761273a6126e4565b5b80604052505050565b600061274e612197565b905061275a8282612713565b919050565b600067ffffffffffffffff82111561277a576127796126e4565b5b612783826126d3565b9050602081019050919050565b82818337600083830152505050565b60006127b26127ad8461275f565b612744565b9050828152602081018484840111156127ce576127cd6126ce565b5b6127d9848285612790565b509392505050565b600082601f8301126127f6576127f56126c9565b5b813561280684826020860161279f565b91505092915050565b600080600060608486031215612828576128276121a1565b5b6000612836868287016123ad565b935050602084013567ffffffffffffffff811115612857576128566121a6565b5b612863868287016127e1565b9250506040612874868287016121cc565b9150509250925092565b600081519050919050565b600082825260208201905092915050565b60005b838110156128b857808201518184015260208101905061289d565b838111156128c7576000848401525b50505050565b60006128d88261287e565b6128e28185612889565b93506128f281856020860161289a565b6128fb816126d3565b840191505092915050565b6000608082019050818103600083015261292081876128cd565b905061292f60208301866124b3565b61293c60408301856124b3565b61294960608301846124b3565b95945050505050565b600060208201905061296760008301846124c2565b92915050565b600067ffffffffffffffff821115612988576129876126e4565b5b602082029050602081019050919050565b600080fd5b60006129b16129ac8461296d565b612744565b905080838252602082019050602084028301858111156129d4576129d3612999565b5b835b818110156129fd57806129e988826123ad565b8452602084019350506020810190506129d6565b5050509392505050565b600082601f830112612a1c57612a1b6126c9565b5b8135612a2c84826020860161299e565b91505092915050565b600080fd5b600060408284031215612a5057612a4f612a35565b5b612a5a6040612744565b90506000612a6a848285016123ad565b6000830152506020612a7e848285016121cc565b60208301525092915050565b60008060008060a08587031215612aa457612aa36121a1565b5b6000612ab2878288016123ad565b9450506020612ac3878288016121cc565b935050604085013567ffffffffffffffff811115612ae457612ae36121a6565b5b612af087828801612a07565b9250506060612b0187828801612a3a565b91505092959194509250565b60006020820190508181036000830152612b2781846122ca565b905092915050565b60008060008060808587031215612b4957612b486121a1565b5b6000612b57878288016123ad565b9450506020612b68878288016121cc565b9350506040612b79878288016121cc565b9250506060612b8a878288016121cc565b91505092959194509250565b60006020820190508181036000830152612bb081846128cd565b905092915050565b600080600060808486031215612bd157612bd06121a1565b5b6000612bdf868287016121cc565b935050602084013567ffffffffffffffff811115612c0057612bff6121a6565b5b612c0c86828701612a07565b9250506040612c1d86828701612a3a565b9150509250925092565b600060e082019050612c3c600083018a612240565b612c496020830189612240565b612c5660408301886124b3565b612c6360608301876124b3565b612c7060808301866124b3565b612c7d60a08301856124c2565b612c8a60c08301846124c2565b98975050505050505050565b600081519050919050565b600082825260208201905092915050565b6000819050602082019050919050565b612ccb816125ba565b82525050565b60a082016000820151612ce76000850182612328565b506020820151612cfa6020850182612328565b506040820151612d0d6040850182612328565b506060820151612d206060850182612328565b506080820151612d336080850182612cc2565b50505050565b6000612d458383612cd1565b60a08301905092915050565b6000602082019050919050565b6000612d6982612c96565b612d738185612ca1565b9350612d7e83612cb2565b8060005b83811015612daf578151612d968882612d39565b9750612da183612d51565b925050600181019050612d82565b5085935050505092915050565b60006020820190508181036000830152612dd68184612d5e565b905092915050565b60048110612deb57600080fd5b50565b600081359050612dfd81612dde565b92915050565b60008060008060808587031215612e1d57612e1c6121a1565b5b6000612e2b878288016121cc565b9450506020612e3c878288016121cc565b9350506040612e4d878288016121cc565b9250506060612e5e87828801612dee565b91505092959194509250565b7f4e487b7100000000000000000000000000000000000000000000000000000000600052603260045260246000fd5b7f4e487b7100000000000000000000000000000000000000000000000000000000600052601160045260246000fd5b6000612ed3826121ab565b91507fffffffffffffffffffffffffffffffffffffffffffffffffffffffffffffffff821415612f0657612f05612e99565b5b600182019050919050565b6000612f1c826121ab565b9150612f27836121ab565b9250827fffffffffffffffffffffffffffffffffffffffffffffffffffffffffffffffff03821115612f5c57612f5b612e99565b5b828201905092915050565b6000612f72826121ab565b9150612f7d836121ab565b925082821015612f9057612f8f612e99565b5b828203905092915050565b7f4e487b7100000000000000000000000000000000000000000000000000000000600052602260045260246000fd5b60006002820490506001821680612fe257607f821691505b60208210811415612ff657612ff5612f9b565b5b50919050565b60006080820190506130116000830187612240565b61301e6020830186612240565b61302b60408301856124b3565b61303860608301846124b3565b95945050505050565b60006060820190506130566000830186612240565b61306360208301856124b3565b818103604083015261307581846122ca565b9050949350505050565b60006060820190506130946000830186612240565b6130a160208301856125cc565b6130ae60408301846124b3565b94935050505056fea2646970667358221220f32296e64d69626583922599beff71ab554dca1faed3b3a049505e6fe78997a364736f6c634300080c0033",
  "linkReferences": {},
  "deployedLinkReferences": {}
}