{
  "_format": "hh-sol-artifact-1",
  "contractName": "AbundanceFacet",
  "sourceName": "contracts/facets/AbundanceFacet.sol",
  "abi": [
    {
      "anonymous": false,
      "inputs": [
        {
          "indexed": true,
          "internalType": "address",
          "name": "_owner",
          "type": "address"
        },
        {
          "indexed": true,
          "internalType": "address",
          "name": "_spender",
          "type": "address"
        },
        {
          "indexed": false,
          "internalType": "uint256",
          "name": "_value",
          "type": "uint256"
        }
      ],
      "name": "Approval",
      "type": "event"
    },
    {
      "anonymous": false,
      "inputs": [
        {
          "indexed": true,
          "internalType": "address",
          "name": "_from",
          "type": "address"
        },
        {
          "indexed": true,
          "internalType": "address",
          "name": "_to",
          "type": "address"
        },
        {
          "indexed": false,
          "internalType": "uint256",
          "name": "_value",
          "type": "uint256"
        }
      ],
      "name": "Transfer",
      "type": "event"
    },
    {
      "inputs": [
        {
          "internalType": "address",
          "name": "_owner",
          "type": "address"
        }
      ],
      "name": "balanceOf",
      "outputs": [
        {
          "internalType": "uint256",
          "name": "balance",
          "type": "uint256"
        }
      ],
      "stateMutability": "view",
      "type": "function"
    },
    {
      "inputs": [],
      "name": "decimals",
      "outputs": [
        {
          "internalType": "uint8",
          "name": "",
          "type": "uint8"
        }
      ],
      "stateMutability": "pure",
      "type": "function"
    },
    {
      "inputs": [
        {
          "internalType": "address",
          "name": "_receiver",
          "type": "address"
        },
        {
          "internalType": "uint256",
          "name": "_value",
          "type": "uint256"
        }
      ],
      "name": "mint",
      "outputs": [],
      "stateMutability": "nonpayable",
      "type": "function"
    },
    {
      "inputs": [],
      "name": "name",
      "outputs": [
        {
          "internalType": "string",
          "name": "",
          "type": "string"
        }
      ],
      "stateMutability": "pure",
      "type": "function"
    },
    {
      "inputs": [],
      "name": "symbol",
      "outputs": [
        {
          "internalType": "string",
          "name": "",
          "type": "string"
        }
      ],
      "stateMutability": "pure",
      "type": "function"
    },
    {
      "inputs": [],
      "name": "totalSupply",
      "outputs": [
        {
          "internalType": "uint256",
          "name": "",
          "type": "uint256"
        }
      ],
      "stateMutability": "view",
      "type": "function"
    }
  ],
  "bytecode": "0x608060405234801561001057600080fd5b5061069d806100206000396000f3fe608060405234801561001057600080fd5b50600436106100625760003560e01c806306fdde031461006757806318160ddd14610085578063313ce567146100a357806340c10f19146100c157806370a08231146100dd57806395d89b411461010d575b600080fd5b61006f61012b565b60405161007c9190610465565b60405180910390f35b61008d610168565b60405161009a91906104a7565b60405180910390f35b6100ab610174565b6040516100b891906104c2565b60405180910390f35b6100db60048036038101906100d691906103ab565b61017d565b005b6100f760048036038101906100f2919061037e565b6102cc565b60405161010491906104a7565b60405180910390f35b610115610317565b6040516101229190610465565b60405180910390f35b60606040518060400160405280600781526020017f576562636f696e00000000000000000000000000000000000000000000000000815250905090565b600080601b0154905090565b60006012905090565b600073ffffffffffffffffffffffffffffffffffffffff168273ffffffffffffffffffffffffffffffffffffffff1614156101ed576040517f08c379a00000000000000000000000000000000000000000000000000000000081526004016101e490610487565b60405180910390fd5b80600060190160008473ffffffffffffffffffffffffffffffffffffffff1673ffffffffffffffffffffffffffffffffffffffff168152602001908152602001600020600082825461023f91906104f9565b92505081905550806000601b01600082825461025b91906104f9565b925050819055508173ffffffffffffffffffffffffffffffffffffffff16600073ffffffffffffffffffffffffffffffffffffffff167fddf252ad1be2c89b69c2b068fc378daa952ba7f163c4a11628f55a4df523b3ef836040516102c091906104a7565b60405180910390a35050565b60008060190160008373ffffffffffffffffffffffffffffffffffffffff1673ffffffffffffffffffffffffffffffffffffffff168152602001908152602001600020549050919050565b60606040518060400160405280600381526020017f5745420000000000000000000000000000000000000000000000000000000000815250905090565b60008135905061036381610639565b92915050565b60008135905061037881610650565b92915050565b600060208284031215610394576103936105fa565b5b60006103a284828501610354565b91505092915050565b600080604083850312156103c2576103c16105fa565b5b60006103d085828601610354565b92505060206103e185828601610369565b9150509250929050565b60006103f6826104dd565b61040081856104e8565b9350610410818560208601610598565b610419816105ff565b840191505092915050565b6000610431601a836104e8565b915061043c82610610565b602082019050919050565b61045081610581565b82525050565b61045f8161058b565b82525050565b6000602082019050818103600083015261047f81846103eb565b905092915050565b600060208201905081810360008301526104a081610424565b9050919050565b60006020820190506104bc6000830184610447565b92915050565b60006020820190506104d76000830184610456565b92915050565b600081519050919050565b600082825260208201905092915050565b600061050482610581565b915061050f83610581565b9250827fffffffffffffffffffffffffffffffffffffffffffffffffffffffffffffffff03821115610544576105436105cb565b5b828201905092915050565b600061055a82610561565b9050919050565b600073ffffffffffffffffffffffffffffffffffffffff82169050919050565b6000819050919050565b600060ff82169050919050565b60005b838110156105b657808201518184015260208101905061059b565b838111156105c5576000848401525b50505050565b7f4e487b7100000000000000000000000000000000000000000000000000000000600052601160045260246000fd5b600080fd5b6000601f19601f8301169050919050565b7f5f746f2063616e6e6f74206265207a65726f2061646472657373000000000000600082015250565b6106428161054f565b811461064d57600080fd5b50565b61065981610581565b811461066457600080fd5b5056fea264697066735822122016f873f8aa93c98c478afa44b4ab50cd9d119d5291de7d97caba4f716b71fa4164736f6c63430008060033",
  "linkReferences": {},
  "deployedLinkReferences": {}
}