{
  "_format": "hh-sol-artifact-1",
  "contractName": "UserFundingFacet",
  "sourceName": "contracts/facets/UserFundingFacet.sol",
  "abi": [
    {
      "anonymous": false,
      "inputs": [
        {
          "indexed": false,
          "internalType": "address",
          "name": "user",
          "type": "address"
        },
        {
          "indexed": false,
          "internalType": "uint256",
          "name": "reqId",
          "type": "uint256"
        },
        {
          "indexed": false,
          "internalType": "address[]",
          "name": "funders",
          "type": "address[]"
        }
      ],
      "name": "BidsAccepted",
      "type": "event"
    },
    {
      "anonymous": false,
      "inputs": [
        {
          "indexed": false,
          "internalType": "address",
          "name": "user",
          "type": "address"
        },
        {
          "indexed": false,
          "internalType": "address",
          "name": "funder",
          "type": "address"
        },
        {
          "indexed": false,
          "internalType": "uint256",
          "name": "amount",
          "type": "uint256"
        },
        {
          "indexed": false,
          "internalType": "uint256",
          "name": "percent",
          "type": "uint256"
        }
      ],
      "name": "FundingBidPosted",
      "type": "event"
    },
    {
      "anonymous": false,
      "inputs": [
        {
          "indexed": false,
          "internalType": "address",
          "name": "user",
          "type": "address"
        },
        {
          "indexed": false,
          "internalType": "uint256",
          "name": "amount",
          "type": "uint256"
        },
        {
          "indexed": false,
          "internalType": "uint256",
          "name": "percent",
          "type": "uint256"
        },
        {
          "indexed": false,
          "internalType": "uint256",
          "name": "deadline",
          "type": "uint256"
        },
        {
          "indexed": false,
          "internalType": "enum ReqType",
          "name": "reqType",
          "type": "uint8"
        }
      ],
      "name": "FundingRequested",
      "type": "event"
    },
    {
      "inputs": [
        {
          "internalType": "uint256",
          "name": "_reqId",
          "type": "uint256"
        },
        {
          "internalType": "address[]",
          "name": "_addresses",
          "type": "address[]"
        },
        {
          "components": [
            {
              "internalType": "address",
              "name": "bidder",
              "type": "address"
            },
            {
              "internalType": "uint256",
              "name": "amount",
              "type": "uint256"
            }
          ],
          "internalType": "struct PartialBid",
          "name": "_partial",
          "type": "tuple"
        }
      ],
      "name": "acceptBids",
      "outputs": [],
      "stateMutability": "nonpayable",
      "type": "function"
    },
    {
      "inputs": [
        {
          "internalType": "address",
          "name": "_user",
          "type": "address"
        },
        {
          "internalType": "uint256",
          "name": "_reqId",
          "type": "uint256"
        },
        {
          "internalType": "address[]",
          "name": "_addresses",
          "type": "address[]"
        },
        {
          "components": [
            {
              "internalType": "address",
              "name": "bidder",
              "type": "address"
            },
            {
              "internalType": "uint256",
              "name": "amount",
              "type": "uint256"
            }
          ],
          "internalType": "struct PartialBid",
          "name": "_partial",
          "type": "tuple"
        }
      ],
      "name": "acceptBidsFraudProof",
      "outputs": [
        {
          "internalType": "bool",
          "name": "",
          "type": "bool"
        }
      ],
      "stateMutability": "view",
      "type": "function"
    },
    {
      "inputs": [
        {
          "internalType": "address",
          "name": "_user",
          "type": "address"
        },
        {
          "internalType": "uint256",
          "name": "_reqId",
          "type": "uint256"
        },
        {
          "internalType": "uint256",
          "name": "_amount",
          "type": "uint256"
        },
        {
          "internalType": "uint256",
          "name": "_percent",
          "type": "uint256"
        }
      ],
      "name": "bidFunding",
      "outputs": [],
      "stateMutability": "nonpayable",
      "type": "function"
    },
    {
      "inputs": [
        {
          "internalType": "uint256",
          "name": "_reqId",
          "type": "uint256"
        }
      ],
      "name": "calculateLowestBids",
      "outputs": [
        {
          "internalType": "address[]",
          "name": "",
          "type": "address[]"
        },
        {
          "components": [
            {
              "internalType": "address",
              "name": "bidder",
              "type": "address"
            },
            {
              "internalType": "uint256",
              "name": "amount",
              "type": "uint256"
            }
          ],
          "internalType": "struct PartialBid",
          "name": "",
          "type": "tuple"
        }
      ],
      "stateMutability": "view",
      "type": "function"
    },
    {
      "inputs": [
        {
          "internalType": "address",
          "name": "_user",
          "type": "address"
        },
        {
          "internalType": "uint256",
          "name": "_reqId",
          "type": "uint256"
        },
        {
          "internalType": "uint256",
          "name": "_bidId",
          "type": "uint256"
        }
      ],
      "name": "cancelBid",
      "outputs": [],
      "stateMutability": "nonpayable",
      "type": "function"
    },
    {
      "inputs": [
        {
          "internalType": "address",
          "name": "_user",
          "type": "address"
        },
        {
          "internalType": "uint256",
          "name": "_reqId",
          "type": "uint256"
        },
        {
          "internalType": "address",
          "name": "_bidder",
          "type": "address"
        }
      ],
      "name": "findBidder",
      "outputs": [
        {
          "components": [
            {
              "internalType": "address",
              "name": "bidder",
              "type": "address"
            },
            {
              "internalType": "uint256",
              "name": "bidId",
              "type": "uint256"
            },
            {
              "internalType": "uint256",
              "name": "amountProvided",
              "type": "uint256"
            },
            {
              "internalType": "uint256",
              "name": "returnRate",
              "type": "uint256"
            },
            {
              "internalType": "bool",
              "name": "accepted",
              "type": "bool"
            }
          ],
          "internalType": "struct FundingBid",
          "name": "",
          "type": "tuple"
        }
      ],
      "stateMutability": "view",
      "type": "function"
    },
    {
      "inputs": [
        {
          "internalType": "address",
          "name": "_user",
          "type": "address"
        },
        {
          "internalType": "uint256",
          "name": "_reqId",
          "type": "uint256"
        },
        {
          "internalType": "address",
          "name": "_bidder",
          "type": "address"
        }
      ],
      "name": "getAcceptedBid",
      "outputs": [
        {
          "components": [
            {
              "internalType": "address",
              "name": "bidder",
              "type": "address"
            },
            {
              "internalType": "uint256",
              "name": "bidId",
              "type": "uint256"
            },
            {
              "internalType": "uint256",
              "name": "amountProvided",
              "type": "uint256"
            },
            {
              "internalType": "uint256",
              "name": "returnRate",
              "type": "uint256"
            },
            {
              "internalType": "bool",
              "name": "accepted",
              "type": "bool"
            }
          ],
          "internalType": "struct FundingBid",
          "name": "",
          "type": "tuple"
        }
      ],
      "stateMutability": "view",
      "type": "function"
    },
    {
      "inputs": [
        {
          "internalType": "address",
          "name": "_user",
          "type": "address"
        },
        {
          "internalType": "uint256",
          "name": "_reqId",
          "type": "uint256"
        }
      ],
      "name": "getAcceptedBids",
      "outputs": [
        {
          "internalType": "address[]",
          "name": "",
          "type": "address[]"
        }
      ],
      "stateMutability": "view",
      "type": "function"
    },
    {
      "inputs": [
        {
          "internalType": "address",
          "name": "_user",
          "type": "address"
        }
      ],
      "name": "getAllFundingReqs",
      "outputs": [
        {
          "components": [
            {
              "internalType": "uint256",
              "name": "reqId",
              "type": "uint256"
            },
            {
              "internalType": "uint256",
              "name": "amountRequested",
              "type": "uint256"
            },
            {
              "internalType": "uint256",
              "name": "returnRate",
              "type": "uint256"
            },
            {
              "internalType": "enum ReqType",
              "name": "reqType",
              "type": "uint8"
            },
            {
              "internalType": "uint256",
              "name": "deadline",
              "type": "uint256"
            }
          ],
          "internalType": "struct FundingReq[]",
          "name": "",
          "type": "tuple[]"
        }
      ],
      "stateMutability": "view",
      "type": "function"
    },
    {
      "inputs": [
        {
          "internalType": "address",
          "name": "_user",
          "type": "address"
        },
        {
          "internalType": "uint256",
          "name": "_reqId",
          "type": "uint256"
        }
      ],
      "name": "getFundingReq",
      "outputs": [
        {
          "components": [
            {
              "internalType": "uint256",
              "name": "reqId",
              "type": "uint256"
            },
            {
              "internalType": "uint256",
              "name": "amountRequested",
              "type": "uint256"
            },
            {
              "internalType": "uint256",
              "name": "returnRate",
              "type": "uint256"
            },
            {
              "internalType": "enum ReqType",
              "name": "reqType",
              "type": "uint8"
            },
            {
              "internalType": "uint256",
              "name": "deadline",
              "type": "uint256"
            }
          ],
          "internalType": "struct FundingReq",
          "name": "",
          "type": "tuple"
        }
      ],
      "stateMutability": "view",
      "type": "function"
    },
    {
      "inputs": [
        {
          "internalType": "uint256",
          "name": "_amount",
          "type": "uint256"
        },
        {
          "internalType": "uint256",
          "name": "_percentReturn",
          "type": "uint256"
        },
        {
          "internalType": "uint256",
          "name": "_deadline",
          "type": "uint256"
        },
        {
          "internalType": "enum ReqType",
          "name": "_reqType",
          "type": "uint8"
        }
      ],
      "name": "requestFunding",
      "outputs": [],
      "stateMutability": "nonpayable",
      "type": "function"
    },
    {
      "inputs": [
        {
          "internalType": "uint256",
          "name": "_amount",
          "type": "uint256"
        },
        {
          "internalType": "uint256",
          "name": "_percent",
          "type": "uint256"
        },
        {
          "internalType": "enum ReqType",
          "name": "_reqType",
          "type": "uint8"
        }
      ],
      "name": "requestReviewFunding",
      "outputs": [],
      "stateMutability": "nonpayable",
      "type": "function"
    }
  ],
  "bytecode": "0x608060405234801561001057600080fd5b50612c58806100206000396000f3fe608060405234801561001057600080fd5b50600436106100b45760003560e01c806372a02e411161007157806372a02e41146101b2578063733907cc146101e2578063c2226152146101fe578063de8e05b11461022e578063e8073a641461024a578063f0f6ae051461027a576100b4565b806323696329146100b957806326c4ab68146100ea57806328af320b1461011a5780632e5c0a611461014a5780633290463b146101665780636df2fdba14610182575b600080fd5b6100d360048036038101906100ce91906122fa565b610296565b6040516100e1929190612813565b60405180910390f35b61010460048036038101906100ff919061212a565b61071e565b604051610111919061289b565b60405180910390f35b610134600480360381019061012f919061216a565b6107ef565b6040516101419190612880565b60405180910390f35b610164600480360381019061015f9190612396565b61092a565b005b610180600480360381019061017b9190612240565b610b54565b005b61019c600480360381019061019791906121bd565b610dfc565b6040516101a99190612865565b60405180910390f35b6101cc60048036038101906101c7919061212a565b610f50565b6040516101d991906127f1565b60405180910390f35b6101fc60048036038101906101f79190612293565b611032565b005b6102186004803603810190610213919061216a565b61135f565b6040516102259190612880565b60405180910390f35b61024860048036038101906102439190612327565b61149a565b005b610264600480360381019061025f91906120fd565b611b86565b6040516102719190612843565b60405180910390f35b610294600480360381019061028f91906123e9565b611c8a565b005b60606102a0611f18565b60008060100160003373ffffffffffffffffffffffffffffffffffffffff1673ffffffffffffffffffffffffffffffffffffffff16815260200190815260200160002060008581526020019081526020016000206001015490506000808060120160003373ffffffffffffffffffffffffffffffffffffffff1673ffffffffffffffffffffffffffffffffffffffff1681526020019081526020016000206000878152602001908152602001600020805480602002602001604051908101604052809291908181526020016000905b8282101561043057838290600052602060002090600502016040518060a00160405290816000820160009054906101000a900473ffffffffffffffffffffffffffffffffffffffff1673ffffffffffffffffffffffffffffffffffffffff1673ffffffffffffffffffffffffffffffffffffffff1681526020016001820154815260200160028201548152602001600382015481526020016004820160009054906101000a900460ff1615151515815250508152602001906001019061036f565b5050505090506000815167ffffffffffffffff81111561045357610452612b77565b5b6040519080825280602002602001820160405280156104815781602001602082028036833780820191505090505b5090506000808360008151811061049b5761049a612b48565b5b60200260200101516060015190506000805b85518110156106c557878710156106b25760005b8651811015610551578681815181106104dd576104dc612b48565b5b60200260200101516080015115801561051457508387828151811061050557610504612b48565b5b60200260200101516060015111155b1561053e5786818151811061052c5761052b612b48565b5b60200260200101516060015193508092505b808061054990612aa1565b9150506104c1565b5085828151811061056557610564612b48565b5b6020026020010151604001519350600186838151811061058857610587612b48565b5b602002602001015160800190151590811515815250508582815181106105b1576105b0612b48565b5b6020026020010151600001518583815181106105d0576105cf612b48565b5b602002602001019073ffffffffffffffffffffffffffffffffffffffff16908173ffffffffffffffffffffffffffffffffffffffff16815250508784886106179190612979565b1115610685576000878961062b91906129cf565b905085604051806040016040528088868151811061064c5761064b612b48565b5b602002602001015173ffffffffffffffffffffffffffffffffffffffff168152602001838152509a509a50505050505050505050610719565b85828151811061069857610697612b48565b5b602002602001015160400151876106af9190612979565b96505b80806106bd90612aa1565b9150506104ad565b508360405180604001604052808684815181106106e5576106e4612b48565b5b602002602001015173ffffffffffffffffffffffffffffffffffffffff168152602001600081525098509850505050505050505b915091565b610726611f48565b600060100160008473ffffffffffffffffffffffffffffffffffffffff1673ffffffffffffffffffffffffffffffffffffffff16815260200190815260200160002060008381526020019081526020016000206040518060a00160405290816000820154815260200160018201548152602001600282015481526020016003820160009054906101000a900460ff1660028111156107c7576107c6612b19565b5b60028111156107d9576107d8612b19565b5b8152602001600482015481525050905092915050565b6107f7611f89565b600060150160008573ffffffffffffffffffffffffffffffffffffffff1673ffffffffffffffffffffffffffffffffffffffff168152602001908152602001600020600084815260200190815260200160002060008373ffffffffffffffffffffffffffffffffffffffff1673ffffffffffffffffffffffffffffffffffffffff1681526020019081526020016000206040518060a00160405290816000820160009054906101000a900473ffffffffffffffffffffffffffffffffffffffff1673ffffffffffffffffffffffffffffffffffffffff1673ffffffffffffffffffffffffffffffffffffffff1681526020016001820154815260200160028201548152602001600382015481526020016004820160009054906101000a900460ff16151515158152505090509392505050565b610934601f611ef4565b6000610940601f611f0a565b905060006040518060a0016040528083815260200186815260200185815260200184600281111561097457610973612b19565b5b81526020016102d0426109879190612979565b815250905080600060100160003373ffffffffffffffffffffffffffffffffffffffff1673ffffffffffffffffffffffffffffffffffffffff168152602001908152602001600020600084815260200190815260200160002060008201518160000155602082015181600101556040820151816002015560608201518160030160006101000a81548160ff02191690836002811115610a2957610a28612b19565b5b021790555060808201518160040155905050600060110160003373ffffffffffffffffffffffffffffffffffffffff1673ffffffffffffffffffffffffffffffffffffffff16815260200190815260200160002081908060018154018082558091505060019003906000526020600020906005020160009091909190915060008201518160000155602082015181600101556040820151816002015560608201518160030160006101000a81548160ff02191690836002811115610af057610aef612b19565b5b02179055506080820151816004015550507fcdb499a76457f6e891b81f12dcd6d49ec27c004de779b27e8749203828b7c2953386866102d042610b339190612979565b87604051610b4595949392919061279e565b60405180910390a15050505050565b600060150160008473ffffffffffffffffffffffffffffffffffffffff1673ffffffffffffffffffffffffffffffffffffffff168152602001908152602001600020600083815260200190815260200160002060003373ffffffffffffffffffffffffffffffffffffffff1673ffffffffffffffffffffffffffffffffffffffff168152602001908152602001600020600080820160006101000a81549073ffffffffffffffffffffffffffffffffffffffff02191690556001820160009055600282016000905560038201600090556004820160006101000a81549060ff0219169055505060005b600060120160008573ffffffffffffffffffffffffffffffffffffffff1673ffffffffffffffffffffffffffffffffffffffff168152602001908152602001600020600084815260200190815260200160002080549050811015610df65781600060120160008673ffffffffffffffffffffffffffffffffffffffff1673ffffffffffffffffffffffffffffffffffffffff16815260200190815260200160002060008581526020019081526020016000208281548110610d0157610d00612b48565b5b9060005260206000209060050201600101541415610de357600060120160008573ffffffffffffffffffffffffffffffffffffffff1673ffffffffffffffffffffffffffffffffffffffff16815260200190815260200160002060008481526020019081526020016000208181548110610d7e57610d7d612b48565b5b9060005260206000209060050201600080820160006101000a81549073ffffffffffffffffffffffffffffffffffffffff02191690556001820160009055600282016000905560038201600090556004820160006101000a81549060ff021916905550505b8080610dee90612aa1565b915050610c3d565b50505050565b6000806001905060008060100160008873ffffffffffffffffffffffffffffffffffffffff1673ffffffffffffffffffffffffffffffffffffffff16815260200190815260200160002060008781526020019081526020016000206001015490506000805b60018751610e6f91906129cf565b811015610ec5576000610e9d8a8a8a8581518110610e9057610e8f612b48565b5b60200260200101516107ef565b6040015190508083610eaf9190612979565b9250508080610ebd90612aa1565b915050610e61565b50600085602001511415610f1b57610f0588888860018a51610ee791906129cf565b81518110610ef857610ef7612b48565b5b60200260200101516107ef565b6040015181610f149190612979565b9050610f2e565b846020015181610f2b9190612979565b90505b808210610f4057829350505050610f48565b821593505050505b949350505050565b6060600060140160008473ffffffffffffffffffffffffffffffffffffffff1673ffffffffffffffffffffffffffffffffffffffff168152602001908152602001600020600083815260200190815260200160002080548060200260200160405190810160405280929190818152602001828054801561102557602002820191906000526020600020905b8160009054906101000a900473ffffffffffffffffffffffffffffffffffffffff1673ffffffffffffffffffffffffffffffffffffffff1681526020019060010190808311610fdb575b5050505050905092915050565b42600060100160008673ffffffffffffffffffffffffffffffffffffffff1673ffffffffffffffffffffffffffffffffffffffff1681526020019081526020016000206000858152602001908152602001600020600401541161109457600080fd5b80600060100160008673ffffffffffffffffffffffffffffffffffffffff1673ffffffffffffffffffffffffffffffffffffffff16815260200190815260200160002060008581526020019081526020016000206002015411156110f757600080fd5b611101601f611ef4565b600061110d601f611f0a565b90506040518060a001604052803373ffffffffffffffffffffffffffffffffffffffff16815260200182815260200184815260200183815260200160001515815250600060150160008773ffffffffffffffffffffffffffffffffffffffff1673ffffffffffffffffffffffffffffffffffffffff168152602001908152602001600020600086815260200190815260200160002060003373ffffffffffffffffffffffffffffffffffffffff1673ffffffffffffffffffffffffffffffffffffffff16815260200190815260200160002060008201518160000160006101000a81548173ffffffffffffffffffffffffffffffffffffffff021916908373ffffffffffffffffffffffffffffffffffffffff16021790555060208201518160010155604082015181600201556060820151816003015560808201518160040160006101000a81548160ff021916908315150217905550905050600060130160008673ffffffffffffffffffffffffffffffffffffffff1673ffffffffffffffffffffffffffffffffffffffff1681526020019081526020016000206000858152602001908152602001600020339080600181540180825580915050600190039060005260206000200160009091909190916101000a81548173ffffffffffffffffffffffffffffffffffffffff021916908373ffffffffffffffffffffffffffffffffffffffff1602179055507fc7d3e9c7b2f8b7540e149072bb5f486a7efd24806fac05d0f0afb2b508695a9e85338585604051611350949392919061271b565b60405180910390a15050505050565b611367611f89565b600060160160008573ffffffffffffffffffffffffffffffffffffffff1673ffffffffffffffffffffffffffffffffffffffff168152602001908152602001600020600084815260200190815260200160002060008373ffffffffffffffffffffffffffffffffffffffff1673ffffffffffffffffffffffffffffffffffffffff1681526020019081526020016000206040518060a00160405290816000820160009054906101000a900473ffffffffffffffffffffffffffffffffffffffff1673ffffffffffffffffffffffffffffffffffffffff1673ffffffffffffffffffffffffffffffffffffffff1681526020016001820154815260200160028201548152602001600382015481526020016004820160009054906101000a900460ff16151515158152505090509392505050565b42600060100160003373ffffffffffffffffffffffffffffffffffffffff1673ffffffffffffffffffffffffffffffffffffffff168152602001908152602001600020600085815260200190815260200160002060040154106114fc57600080fd5b61150833848484610dfc565b61151157600080fd5b60005b6001835161152291906129cf565b81101561176157600060140160003373ffffffffffffffffffffffffffffffffffffffff1673ffffffffffffffffffffffffffffffffffffffff168152602001908152602001600020600085815260200190815260200160002083828151811061158f5761158e612b48565b5b60200260200101519080600181540180825580915050600190039060005260206000200160009091909190916101000a81548173ffffffffffffffffffffffffffffffffffffffff021916908373ffffffffffffffffffffffffffffffffffffffff16021790555061161c338585848151811061160f5761160e612b48565b5b60200260200101516107ef565b600060160160003373ffffffffffffffffffffffffffffffffffffffff1673ffffffffffffffffffffffffffffffffffffffff1681526020019081526020016000206000868152602001908152602001600020600085848151811061168457611683612b48565b5b602002602001015173ffffffffffffffffffffffffffffffffffffffff1673ffffffffffffffffffffffffffffffffffffffff16815260200190815260200160002060008201518160000160006101000a81548173ffffffffffffffffffffffffffffffffffffffff021916908373ffffffffffffffffffffffffffffffffffffffff16021790555060208201518160010155604082015181600201556060820151816003015560808201518160040160006101000a81548160ff021916908315150217905550905050808061175990612aa1565b915050611514565b50600060140160003373ffffffffffffffffffffffffffffffffffffffff1673ffffffffffffffffffffffffffffffffffffffff168152602001908152602001600020600084815260200190815260200160002082600184516117c491906129cf565b815181106117d5576117d4612b48565b5b60200260200101519080600181540180825580915050600190039060005260206000200160009091909190916101000a81548173ffffffffffffffffffffffffffffffffffffffff021916908373ffffffffffffffffffffffffffffffffffffffff1602179055506000816020015114156119c05761187c3384846001865161185e91906129cf565b8151811061186f5761186e612b48565b5b60200260200101516107ef565b600060160160003373ffffffffffffffffffffffffffffffffffffffff1673ffffffffffffffffffffffffffffffffffffffff1681526020019081526020016000206000858152602001908152602001600020600084600186516118e091906129cf565b815181106118f1576118f0612b48565b5b602002602001015173ffffffffffffffffffffffffffffffffffffffff1673ffffffffffffffffffffffffffffffffffffffff16815260200190815260200160002060008201518160000160006101000a81548173ffffffffffffffffffffffffffffffffffffffff021916908373ffffffffffffffffffffffffffffffffffffffff16021790555060208201518160010155604082015181600201556060820151816003015560808201518160040160006101000a81548160ff021916908315150217905550905050611b46565b60006119f4338585600187516119d691906129cf565b815181106119e7576119e6612b48565b5b60200260200101516107ef565b9050816020015181604001818152505080600060160160003373ffffffffffffffffffffffffffffffffffffffff1673ffffffffffffffffffffffffffffffffffffffff168152602001908152602001600020600086815260200190815260200160002060008560018751611a6991906129cf565b81518110611a7a57611a79612b48565b5b602002602001015173ffffffffffffffffffffffffffffffffffffffff1673ffffffffffffffffffffffffffffffffffffffff16815260200190815260200160002060008201518160000160006101000a81548173ffffffffffffffffffffffffffffffffffffffff021916908373ffffffffffffffffffffffffffffffffffffffff16021790555060208201518160010155604082015181600201556060820151816003015560808201518160040160006101000a81548160ff021916908315150217905550905050505b7f20ed1a7fa3ab1be7b914ea0810df70dd44d72dd0afb160f1bcab427ecd8566d4338484604051611b7993929190612760565b60405180910390a1505050565b6060600060110160008373ffffffffffffffffffffffffffffffffffffffff1673ffffffffffffffffffffffffffffffffffffffff168152602001908152602001600020805480602002602001604051908101604052809291908181526020016000905b82821015611c7f57838290600052602060002090600502016040518060a00160405290816000820154815260200160018201548152602001600282015481526020016003820160009054906101000a900460ff166002811115611c5057611c4f612b19565b5b6002811115611c6257611c61612b19565b5b815260200160048201548152505081526020019060010190611bea565b505050509050919050565b611c94601f611ef4565b6000611ca0601f611f0a565b905060006040518060a00160405280838152602001878152602001868152602001846002811115611cd457611cd3612b19565b5b815260200185815250905080600060100160003373ffffffffffffffffffffffffffffffffffffffff1673ffffffffffffffffffffffffffffffffffffffff168152602001908152602001600020600084815260200190815260200160002060008201518160000155602082015181600101556040820151816002015560608201518160030160006101000a81548160ff02191690836002811115611d7c57611d7b612b19565b5b021790555060808201518160040155905050600060110160003373ffffffffffffffffffffffffffffffffffffffff1673ffffffffffffffffffffffffffffffffffffffff16815260200190815260200160002081908060018154018082558091505060019003906000526020600020906005020160009091909190915060008201518160000155602082015181600101556040820151816002015560608201518160030160006101000a81548160ff02191690836002811115611e4357611e42612b19565b5b0217905550608082015181600401555050856000600b0160003373ffffffffffffffffffffffffffffffffffffffff1673ffffffffffffffffffffffffffffffffffffffff1681526020019081526020016000206000828254611ea69190612979565b925050819055507fcdb499a76457f6e891b81f12dcd6d49ec27c004de779b27e8749203828b7c2953387878787604051611ee495949392919061279e565b60405180910390a1505050505050565b6001816000016000828254019250508190555050565b600081600001549050919050565b6040518060400160405280600073ffffffffffffffffffffffffffffffffffffffff168152602001600081525090565b6040518060a0016040528060008152602001600081526020016000815260200160006002811115611f7c57611f7b612b19565b5b8152602001600081525090565b6040518060a00160405280600073ffffffffffffffffffffffffffffffffffffffff1681526020016000815260200160008152602001600081526020016000151581525090565b6000611fe3611fde846128db565b6128b6565b9050808382526020820190508285602086028201111561200657612005612bb0565b5b60005b85811015612036578161201c8882612040565b845260208401935060208301925050600181019050612009565b5050509392505050565b60008135905061204f81612be4565b92915050565b600082601f83011261206a57612069612ba6565b5b813561207a848260208601611fd0565b91505092915050565b60008135905061209281612bfb565b92915050565b6000604082840312156120ae576120ad612bab565b5b6120b860406128b6565b905060006120c884828501612040565b60008301525060206120dc848285016120e8565b60208301525092915050565b6000813590506120f781612c0b565b92915050565b60006020828403121561211357612112612bba565b5b600061212184828501612040565b91505092915050565b6000806040838503121561214157612140612bba565b5b600061214f85828601612040565b9250506020612160858286016120e8565b9150509250929050565b60008060006060848603121561218357612182612bba565b5b600061219186828701612040565b93505060206121a2868287016120e8565b92505060406121b386828701612040565b9150509250925092565b60008060008060a085870312156121d7576121d6612bba565b5b60006121e587828801612040565b94505060206121f6878288016120e8565b935050604085013567ffffffffffffffff81111561221757612216612bb5565b5b61222387828801612055565b925050606061223487828801612098565b91505092959194509250565b60008060006060848603121561225957612258612bba565b5b600061226786828701612040565b9350506020612278868287016120e8565b9250506040612289868287016120e8565b9150509250925092565b600080600080608085870312156122ad576122ac612bba565b5b60006122bb87828801612040565b94505060206122cc878288016120e8565b93505060406122dd878288016120e8565b92505060606122ee878288016120e8565b91505092959194509250565b6000602082840312156123105761230f612bba565b5b600061231e848285016120e8565b91505092915050565b6000806000608084860312156123405761233f612bba565b5b600061234e868287016120e8565b935050602084013567ffffffffffffffff81111561236f5761236e612bb5565b5b61237b86828701612055565b925050604061238c86828701612098565b9150509250925092565b6000806000606084860312156123af576123ae612bba565b5b60006123bd868287016120e8565b93505060206123ce868287016120e8565b92505060406123df86828701612083565b9150509250925092565b6000806000806080858703121561240357612402612bba565b5b6000612411878288016120e8565b9450506020612422878288016120e8565b9350506040612433878288016120e8565b925050606061244487828801612083565b91505092959194509250565b600061245c8383612480565b60208301905092915050565b600061247483836125fe565b60a08301905092915050565b61248981612a03565b82525050565b61249881612a03565b82525050565b60006124a982612927565b6124b38185612957565b93506124be83612907565b8060005b838110156124ef5781516124d68882612450565b97506124e18361293d565b9250506001810190506124c2565b5085935050505092915050565b600061250782612932565b6125118185612968565b935061251c83612917565b8060005b8381101561254d5781516125348882612468565b975061253f8361294a565b925050600181019050612520565b5085935050505092915050565b61256381612a15565b82525050565b61257281612a15565b82525050565b61258181612a5e565b82525050565b61259081612a5e565b82525050565b60a0820160008201516125ac6000850182612480565b5060208201516125bf60208501826126fd565b5060408201516125d260408501826126fd565b5060608201516125e560608501826126fd565b5060808201516125f8608085018261255a565b50505050565b60a08201600082015161261460008501826126fd565b50602082015161262760208501826126fd565b50604082015161263a60408501826126fd565b50606082015161264d6060850182612578565b50608082015161266060808501826126fd565b50505050565b60a08201600082015161267c60008501826126fd565b50602082015161268f60208501826126fd565b5060408201516126a260408501826126fd565b5060608201516126b56060850182612578565b5060808201516126c860808501826126fd565b50505050565b6040820160008201516126e46000850182612480565b5060208201516126f760208501826126fd565b50505050565b61270681612a54565b82525050565b61271581612a54565b82525050565b6000608082019050612730600083018761248f565b61273d602083018661248f565b61274a604083018561270c565b612757606083018461270c565b95945050505050565b6000606082019050612775600083018661248f565b612782602083018561270c565b8181036040830152612794818461249e565b9050949350505050565b600060a0820190506127b3600083018861248f565b6127c0602083018761270c565b6127cd604083018661270c565b6127da606083018561270c565b6127e76080830184612587565b9695505050505050565b6000602082019050818103600083015261280b818461249e565b905092915050565b6000606082019050818103600083015261282d818561249e565b905061283c60208301846126ce565b9392505050565b6000602082019050818103600083015261285d81846124fc565b905092915050565b600060208201905061287a6000830184612569565b92915050565b600060a0820190506128956000830184612596565b92915050565b600060a0820190506128b06000830184612666565b92915050565b60006128c06128d1565b90506128cc8282612a70565b919050565b6000604051905090565b600067ffffffffffffffff8211156128f6576128f5612b77565b5b602082029050602081019050919050565b6000819050602082019050919050565b6000819050602082019050919050565b600081519050919050565b600081519050919050565b6000602082019050919050565b6000602082019050919050565b600082825260208201905092915050565b600082825260208201905092915050565b600061298482612a54565b915061298f83612a54565b9250827fffffffffffffffffffffffffffffffffffffffffffffffffffffffffffffffff038211156129c4576129c3612aea565b5b828201905092915050565b60006129da82612a54565b91506129e583612a54565b9250828210156129f8576129f7612aea565b5b828203905092915050565b6000612a0e82612a34565b9050919050565b60008115159050919050565b6000819050612a2f82612bd0565b919050565b600073ffffffffffffffffffffffffffffffffffffffff82169050919050565b6000819050919050565b6000612a6982612a21565b9050919050565b612a7982612bbf565b810181811067ffffffffffffffff82111715612a9857612a97612b77565b5b80604052505050565b6000612aac82612a54565b91507fffffffffffffffffffffffffffffffffffffffffffffffffffffffffffffffff821415612adf57612ade612aea565b5b600182019050919050565b7f4e487b7100000000000000000000000000000000000000000000000000000000600052601160045260246000fd5b7f4e487b7100000000000000000000000000000000000000000000000000000000600052602160045260246000fd5b7f4e487b7100000000000000000000000000000000000000000000000000000000600052603260045260246000fd5b7f4e487b7100000000000000000000000000000000000000000000000000000000600052604160045260246000fd5b600080fd5b600080fd5b600080fd5b600080fd5b600080fd5b6000601f19601f8301169050919050565b60038110612be157612be0612b19565b5b50565b612bed81612a03565b8114612bf857600080fd5b50565b60038110612c0857600080fd5b50565b612c1481612a54565b8114612c1f57600080fd5b5056fea26469706673582212209973be88b23252018e1e3cc8fb2e33f0ad8bb62dbc06b1b8a3ab2d8fc0f9186f64736f6c63430008060033",
  "linkReferences": {},
  "deployedLinkReferences": {}
}