{
  "_format": "hh-sol-artifact-1",
  "contractName": "InitialReview",
  "sourceName": "contracts/InitialReview.sol",
  "abi": [
    {
      "anonymous": false,
      "inputs": [
        {
          "indexed": false,
          "internalType": "address",
          "name": "user",
          "type": "address"
        },
        {
          "indexed": false,
          "internalType": "uint256",
          "name": "reqId",
          "type": "uint256"
        },
        {
          "indexed": false,
          "internalType": "address[]",
          "name": "funders",
          "type": "address[]"
        }
      ],
      "name": "BidsAccepted",
      "type": "event"
    },
    {
      "anonymous": false,
      "inputs": [
        {
          "indexed": false,
          "internalType": "uint256",
          "name": "id",
          "type": "uint256"
        },
        {
          "indexed": false,
          "internalType": "string",
          "name": "name",
          "type": "string"
        },
        {
          "indexed": false,
          "internalType": "string",
          "name": "hash",
          "type": "string"
        }
      ],
      "name": "CategoryCreated",
      "type": "event"
    },
    {
      "anonymous": false,
      "inputs": [
        {
          "indexed": false,
          "internalType": "address",
          "name": "user",
          "type": "address"
        },
        {
          "indexed": false,
          "internalType": "address",
          "name": "funder",
          "type": "address"
        },
        {
          "indexed": false,
          "internalType": "uint256",
          "name": "amount",
          "type": "uint256"
        },
        {
          "indexed": false,
          "internalType": "uint256",
          "name": "percent",
          "type": "uint256"
        }
      ],
      "name": "FundingBidPosted",
      "type": "event"
    },
    {
      "anonymous": false,
      "inputs": [
        {
          "indexed": false,
          "internalType": "address",
          "name": "user",
          "type": "address"
        },
        {
          "indexed": false,
          "internalType": "enum Data.ReqType",
          "name": "reqType",
          "type": "uint8"
        },
        {
          "indexed": false,
          "internalType": "uint256",
          "name": "reqId",
          "type": "uint256"
        }
      ],
      "name": "FundingRequested",
      "type": "event"
    },
    {
      "anonymous": false,
      "inputs": [
        {
          "indexed": false,
          "internalType": "uint256",
          "name": "id",
          "type": "uint256"
        },
        {
          "indexed": false,
          "internalType": "string",
          "name": "postHash",
          "type": "string"
        },
        {
          "indexed": false,
          "internalType": "string",
          "name": "revHash",
          "type": "string"
        }
      ],
      "name": "InitReviewCreated",
      "type": "event"
    },
    {
      "anonymous": false,
      "inputs": [
        {
          "indexed": false,
          "internalType": "uint256",
          "name": "id",
          "type": "uint256"
        },
        {
          "indexed": false,
          "internalType": "string",
          "name": "title",
          "type": "string"
        },
        {
          "indexed": false,
          "internalType": "string",
          "name": "hash",
          "type": "string"
        }
      ],
      "name": "PostCreated",
      "type": "event"
    },
    {
      "anonymous": false,
      "inputs": [
        {
          "indexed": false,
          "internalType": "uint256",
          "name": "id",
          "type": "uint256"
        },
        {
          "indexed": false,
          "internalType": "string",
          "name": "title",
          "type": "string"
        },
        {
          "indexed": false,
          "internalType": "string",
          "name": "hash",
          "type": "string"
        },
        {
          "indexed": false,
          "internalType": "bool",
          "name": "published",
          "type": "bool"
        }
      ],
      "name": "PostUpdated",
      "type": "event"
    },
    {
      "inputs": [
        {
          "internalType": "address",
          "name": "",
          "type": "address"
        },
        {
          "internalType": "uint256",
          "name": "",
          "type": "uint256"
        },
        {
          "internalType": "address",
          "name": "",
          "type": "address"
        }
      ],
      "name": "acceptedBid",
      "outputs": [
        {
          "internalType": "uint256",
          "name": "amountProvided",
          "type": "uint256"
        },
        {
          "internalType": "uint256",
          "name": "bidId",
          "type": "uint256"
        },
        {
          "internalType": "uint256",
          "name": "returnRate",
          "type": "uint256"
        },
        {
          "internalType": "bool",
          "name": "accepted",
          "type": "bool"
        },
        {
          "internalType": "address",
          "name": "bidder",
          "type": "address"
        }
      ],
      "stateMutability": "view",
      "type": "function"
    },
    {
      "inputs": [
        {
          "internalType": "address",
          "name": "",
          "type": "address"
        },
        {
          "internalType": "uint256",
          "name": "",
          "type": "uint256"
        },
        {
          "internalType": "uint256",
          "name": "",
          "type": "uint256"
        }
      ],
      "name": "acceptedBidders",
      "outputs": [
        {
          "internalType": "address",
          "name": "",
          "type": "address"
        }
      ],
      "stateMutability": "view",
      "type": "function"
    },
    {
      "inputs": [
        {
          "internalType": "address",
          "name": "",
          "type": "address"
        },
        {
          "internalType": "string",
          "name": "",
          "type": "string"
        },
        {
          "internalType": "uint256",
          "name": "",
          "type": "uint256"
        }
      ],
      "name": "catPost",
      "outputs": [
        {
          "internalType": "string",
          "name": "postHash",
          "type": "string"
        },
        {
          "internalType": "uint256",
          "name": "catImpact",
          "type": "uint256"
        },
        {
          "internalType": "uint256",
          "name": "postCred",
          "type": "uint256"
        },
        {
          "internalType": "uint256",
          "name": "timestamp",
          "type": "uint256"
        }
      ],
      "stateMutability": "view",
      "type": "function"
    },
    {
      "inputs": [
        {
          "internalType": "string",
          "name": "_postHash",
          "type": "string"
        },
        {
          "internalType": "string",
          "name": "_reviewHash",
          "type": "string"
        },
        {
          "internalType": "uint256",
          "name": "_validatorTotalWeight",
          "type": "uint256"
        },
        {
          "internalType": "uint256",
          "name": "_validatorCatWeight",
          "type": "uint256"
        },
        {
          "internalType": "uint256",
          "name": "_timestamp",
          "type": "uint256"
        },
        {
          "components": [
            {
              "internalType": "uint256",
              "name": "id",
              "type": "uint256"
            },
            {
              "internalType": "string",
              "name": "contentHash",
              "type": "string"
            },
            {
              "internalType": "uint256",
              "name": "percentInfluence",
              "type": "uint256"
            }
          ],
          "internalType": "struct Data.PostReviewInflueces[]",
          "name": "_reviewInfluence",
          "type": "tuple[]"
        },
        {
          "components": [
            {
              "internalType": "string",
              "name": "catId",
              "type": "string"
            },
            {
              "internalType": "uint256",
              "name": "impact",
              "type": "uint256"
            }
          ],
          "internalType": "struct Data.PostReviewCategories[]",
          "name": "_reviewCat",
          "type": "tuple[]"
        },
        {
          "components": [
            {
              "internalType": "address",
              "name": "author",
              "type": "address"
            },
            {
              "internalType": "uint256",
              "name": "authorWeight",
              "type": "uint256"
            }
          ],
          "internalType": "struct Data.PostReviewAuthors[]",
          "name": "_reviewAuthor",
          "type": "tuple[]"
        }
      ],
      "name": "createInitialReview",
      "outputs": [],
      "stateMutability": "nonpayable",
      "type": "function"
    },
    {
      "inputs": [
        {
          "internalType": "string",
          "name": "_hash",
          "type": "string"
        }
      ],
      "name": "fetchInitReviewByPoat",
      "outputs": [
        {
          "components": [
            {
              "components": [
                {
                  "internalType": "uint256",
                  "name": "id",
                  "type": "uint256"
                },
                {
                  "internalType": "string",
                  "name": "contentHash",
                  "type": "string"
                },
                {
                  "internalType": "uint256",
                  "name": "percentInfluence",
                  "type": "uint256"
                }
              ],
              "internalType": "struct Data.PostReviewInflueces[]",
              "name": "reviewInfluence",
              "type": "tuple[]"
            },
            {
              "components": [
                {
                  "internalType": "string",
                  "name": "catId",
                  "type": "string"
                },
                {
                  "internalType": "uint256",
                  "name": "impact",
                  "type": "uint256"
                }
              ],
              "internalType": "struct Data.PostReviewCategories[]",
              "name": "reviewCat",
              "type": "tuple[]"
            },
            {
              "components": [
                {
                  "internalType": "address",
                  "name": "author",
                  "type": "address"
                },
                {
                  "internalType": "uint256",
                  "name": "authorWeight",
                  "type": "uint256"
                }
              ],
              "internalType": "struct Data.PostReviewAuthors[]",
              "name": "reviewAuthor",
              "type": "tuple[]"
            },
            {
              "internalType": "enum Data.Urgency",
              "name": "urgency",
              "type": "uint8"
            },
            {
              "internalType": "address",
              "name": "validator",
              "type": "address"
            },
            {
              "internalType": "string",
              "name": "reviewHash",
              "type": "string"
            },
            {
              "internalType": "uint256",
              "name": "validatorTotalWeight",
              "type": "uint256"
            },
            {
              "internalType": "uint256",
              "name": "validatorCatWeight",
              "type": "uint256"
            },
            {
              "internalType": "uint256",
              "name": "selfIS",
              "type": "uint256"
            },
            {
              "internalType": "uint256",
              "name": "selfScore",
              "type": "uint256"
            },
            {
              "internalType": "uint256",
              "name": "postScore",
              "type": "uint256"
            },
            {
              "internalType": "uint256",
              "name": "postIS",
              "type": "uint256"
            },
            {
              "internalType": "uint256",
              "name": "timestamp",
              "type": "uint256"
            },
            {
              "internalType": "uint256",
              "name": "selfCrS",
              "type": "uint256"
            },
            {
              "internalType": "uint256",
              "name": "postCrS",
              "type": "uint256"
            },
            {
              "internalType": "bool",
              "name": "funding",
              "type": "bool"
            }
          ],
          "internalType": "struct Data.InitialReview",
          "name": "",
          "type": "tuple"
        }
      ],
      "stateMutability": "view",
      "type": "function"
    },
    {
      "inputs": [
        {
          "internalType": "address",
          "name": "",
          "type": "address"
        },
        {
          "internalType": "uint256",
          "name": "",
          "type": "uint256"
        },
        {
          "internalType": "address",
          "name": "",
          "type": "address"
        }
      ],
      "name": "fundingBid",
      "outputs": [
        {
          "internalType": "uint256",
          "name": "amountProvided",
          "type": "uint256"
        },
        {
          "internalType": "uint256",
          "name": "bidId",
          "type": "uint256"
        },
        {
          "internalType": "uint256",
          "name": "returnRate",
          "type": "uint256"
        },
        {
          "internalType": "bool",
          "name": "accepted",
          "type": "bool"
        },
        {
          "internalType": "address",
          "name": "bidder",
          "type": "address"
        }
      ],
      "stateMutability": "view",
      "type": "function"
    },
    {
      "inputs": [
        {
          "internalType": "address",
          "name": "",
          "type": "address"
        },
        {
          "internalType": "uint256",
          "name": "",
          "type": "uint256"
        },
        {
          "internalType": "uint256",
          "name": "",
          "type": "uint256"
        }
      ],
      "name": "fundingBidders",
      "outputs": [
        {
          "internalType": "address",
          "name": "",
          "type": "address"
        }
      ],
      "stateMutability": "view",
      "type": "function"
    },
    {
      "inputs": [
        {
          "internalType": "address",
          "name": "",
          "type": "address"
        },
        {
          "internalType": "uint256",
          "name": "",
          "type": "uint256"
        },
        {
          "internalType": "uint256",
          "name": "",
          "type": "uint256"
        }
      ],
      "name": "fundingBids",
      "outputs": [
        {
          "internalType": "uint256",
          "name": "amountProvided",
          "type": "uint256"
        },
        {
          "internalType": "uint256",
          "name": "bidId",
          "type": "uint256"
        },
        {
          "internalType": "uint256",
          "name": "returnRate",
          "type": "uint256"
        },
        {
          "internalType": "bool",
          "name": "accepted",
          "type": "bool"
        },
        {
          "internalType": "address",
          "name": "bidder",
          "type": "address"
        }
      ],
      "stateMutability": "view",
      "type": "function"
    },
    {
      "inputs": [
        {
          "internalType": "address",
          "name": "",
          "type": "address"
        },
        {
          "internalType": "uint256",
          "name": "",
          "type": "uint256"
        }
      ],
      "name": "fundingReq",
      "outputs": [
        {
          "internalType": "uint256",
          "name": "amountRequested",
          "type": "uint256"
        },
        {
          "internalType": "uint256",
          "name": "reqId",
          "type": "uint256"
        },
        {
          "internalType": "uint256",
          "name": "deadline",
          "type": "uint256"
        },
        {
          "internalType": "uint256",
          "name": "returnRate",
          "type": "uint256"
        },
        {
          "internalType": "enum Data.ReqType",
          "name": "reqType",
          "type": "uint8"
        }
      ],
      "stateMutability": "view",
      "type": "function"
    },
    {
      "inputs": [
        {
          "internalType": "address",
          "name": "",
          "type": "address"
        },
        {
          "internalType": "uint256",
          "name": "",
          "type": "uint256"
        }
      ],
      "name": "fundingReqs",
      "outputs": [
        {
          "internalType": "uint256",
          "name": "amountRequested",
          "type": "uint256"
        },
        {
          "internalType": "uint256",
          "name": "reqId",
          "type": "uint256"
        },
        {
          "internalType": "uint256",
          "name": "deadline",
          "type": "uint256"
        },
        {
          "internalType": "uint256",
          "name": "returnRate",
          "type": "uint256"
        },
        {
          "internalType": "enum Data.ReqType",
          "name": "reqType",
          "type": "uint8"
        }
      ],
      "stateMutability": "view",
      "type": "function"
    },
    {
      "inputs": [
        {
          "internalType": "uint256",
          "name": "",
          "type": "uint256"
        }
      ],
      "name": "keys",
      "outputs": [
        {
          "internalType": "address",
          "name": "",
          "type": "address"
        }
      ],
      "stateMutability": "view",
      "type": "function"
    },
    {
      "inputs": [],
      "name": "owner",
      "outputs": [
        {
          "internalType": "address",
          "name": "",
          "type": "address"
        }
      ],
      "stateMutability": "view",
      "type": "function"
    },
    {
      "inputs": [],
      "name": "totalCategoryVotes",
      "outputs": [
        {
          "internalType": "uint256",
          "name": "",
          "type": "uint256"
        }
      ],
      "stateMutability": "view",
      "type": "function"
    },
    {
      "inputs": [
        {
          "internalType": "address",
          "name": "",
          "type": "address"
        }
      ],
      "name": "totalFundingReq",
      "outputs": [
        {
          "internalType": "uint256",
          "name": "",
          "type": "uint256"
        }
      ],
      "stateMutability": "view",
      "type": "function"
    },
    {
      "inputs": [
        {
          "internalType": "address",
          "name": "",
          "type": "address"
        }
      ],
      "name": "userAdded",
      "outputs": [
        {
          "internalType": "bool",
          "name": "",
          "type": "bool"
        }
      ],
      "stateMutability": "view",
      "type": "function"
    },
    {
      "inputs": [
        {
          "internalType": "address",
          "name": "",
          "type": "address"
        },
        {
          "internalType": "uint256",
          "name": "",
          "type": "uint256"
        }
      ],
      "name": "userCats",
      "outputs": [
        {
          "internalType": "string",
          "name": "",
          "type": "string"
        }
      ],
      "stateMutability": "view",
      "type": "function"
    },
    {
      "inputs": [
        {
          "internalType": "address",
          "name": "",
          "type": "address"
        },
        {
          "internalType": "uint256",
          "name": "",
          "type": "uint256"
        }
      ],
      "name": "userFunding",
      "outputs": [
        {
          "internalType": "address",
          "name": "requestingFunds",
          "type": "address"
        },
        {
          "internalType": "address",
          "name": "providingFunds",
          "type": "address"
        },
        {
          "internalType": "uint256",
          "name": "amountProvided",
          "type": "uint256"
        },
        {
          "internalType": "uint256",
          "name": "amountRemaining",
          "type": "uint256"
        },
        {
          "internalType": "uint256",
          "name": "returnRate",
          "type": "uint256"
        },
        {
          "internalType": "bool",
          "name": "accepted",
          "type": "bool"
        },
        {
          "internalType": "bool",
          "name": "withdrawn",
          "type": "bool"
        }
      ],
      "stateMutability": "view",
      "type": "function"
    },
    {
      "inputs": [
        {
          "internalType": "address",
          "name": "",
          "type": "address"
        }
      ],
      "name": "users",
      "outputs": [
        {
          "internalType": "uint256",
          "name": "",
          "type": "uint256"
        }
      ],
      "stateMutability": "view",
      "type": "function"
    }
  ],
  "bytecode": "0x608060405234801561001057600080fd5b50613742806100206000396000f3fe608060405234801561001057600080fd5b50600436106101165760003560e01c806382fcdb13116100a2578063ce2bfa3d11610071578063ce2bfa3d14610378578063d23c5a13146103a8578063d5d23763146103dc578063e66e3df0146103fa578063f1e2af451461043057610116565b806382fcdb13146102de5780638da5cb5b146102fa578063a4fc1a1314610318578063a87430ba1461034857610116565b806354db2453116100e957806354db2453146101e35780635905f8e0146102175780635bd0161f146102475780636bda722b1461027a5780638144170b146102aa57610116565b80630cb6aaf11461011b57806329c73e991461014b5780632e2cf7571461017f57806336aba8dd146101b3575b600080fd5b6101356004803603810190610130919061241f565b610460565b604051610142919061248d565b60405180910390f35b610165600480360381019061016091906124d4565b61049f565b604051610176959493929190612551565b60405180910390f35b610199600480360381019061019491906125a4565b61051c565b6040516101aa95949392919061265b565b60405180910390f35b6101cd60048036038101906101c891906126ae565b61057c565b6040516101da91906126db565b60405180910390f35b6101fd60048036038101906101f891906126f6565b610594565b60405161020e959493929190612551565b60405180910390f35b610231600480360381019061022c91906126f6565b610621565b60405161023e919061248d565b60405180910390f35b610261600480360381019061025c919061288f565b61067c565b6040516102719493929190612986565b60405180910390f35b610294600480360381019061028f91906126ae565b610774565b6040516102a191906129d2565b60405180910390f35b6102c460048036038101906102bf91906124d4565b610794565b6040516102d5959493929190612551565b60405180910390f35b6102f860048036038101906102f39190612dbd565b610811565b005b6103026111ef565b60405161030f919061248d565b60405180910390f35b610332600480360381019061032d91906125a4565b611213565b60405161033f9190612eff565b60405180910390f35b610362600480360381019061035d91906126ae565b6112cc565b60405161036f91906126db565b60405180910390f35b610392600480360381019061038d91906126f6565b6112e4565b60405161039f919061248d565b60405180910390f35b6103c260048036038101906103bd91906125a4565b61133f565b6040516103d395949392919061265b565b60405180910390f35b6103e461138f565b6040516103f191906126db565b60405180910390f35b610414600480360381019061040f91906125a4565b611395565b6040516104279796959493929190612f21565b60405180910390f35b61044a60048036038101906104459190612f90565b61144e565b60405161045791906134f4565b60405180910390f35b600f818154811061047057600080fd5b906000526020600020016000915054906101000a900473ffffffffffffffffffffffffffffffffffffffff1681565b601760205282600052604060002060205281600052604060002060205280600052604060002060009250925050508060000154908060010154908060020154908060030160009054906101000a900460ff16908060030160019054906101000a900473ffffffffffffffffffffffffffffffffffffffff16905085565b6012602052816000526040600020818154811061053857600080fd5b9060005260206000209060050201600091509150508060000154908060010154908060020154908060030154908060040160009054906101000a900460ff16905085565b600c6020528060005260406000206000915090505481565b601360205282600052604060002060205281600052604060002081815481106105bc57600080fd5b906000526020600020906004020160009250925050508060000154908060010154908060020154908060030160009054906101000a900460ff16908060030160019054906101000a900473ffffffffffffffffffffffffffffffffffffffff16905085565b6014602052826000526040600020602052816000526040600020818154811061064957600080fd5b90600052602060002001600092509250509054906101000a900473ffffffffffffffffffffffffffffffffffffffff1681565b60026020528260005260406000208280516020810182018051848252602083016020850120818352809550505050505081815481106106ba57600080fd5b906000526020600020906004020160009250925050508060000180546106df90613545565b80601f016020809104026020016040519081016040528092919081815260200182805461070b90613545565b80156107585780601f1061072d57610100808354040283529160200191610758565b820191906000526020600020905b81548152906001019060200180831161073b57829003601f168201915b5050505050908060010154908060020154908060030154905084565b600e6020528060005260406000206000915054906101000a900460ff1681565b601660205282600052604060002060205281600052604060002060205280600052604060002060009250925050508060000154908060010154908060020154908060030160009054906101000a900460ff16908060030160019054906101000a900473ffffffffffffffffffffffffffffffffffffffff16905085565b4261012c8561082091906135a6565b1161082a57600080fd5b600060058960405161083c9190613638565b9081526020016040518091039020905080600f0160009054906101000a900460ff161561086857600080fd5b610872601961198d565b600061087e60196119a3565b9050600182600f0160006101000a81548160ff021916908315150217905550888260070190805190602001906108b59291906119b1565b506000600860008381526020019081526020016000209050338160030160016101000a81548173ffffffffffffffffffffffffffffffffffffffff021916908373ffffffffffffffffffffffffffffffffffffffff160217905550898160040190805190602001906109289291906119b1565b508881600501819055508781600601819055508681600b018190555060005b86518110156109de57816000018782815181106109675761096661364f565b5b602002602001015190806001815401808255809150506001900390600052602060002090600302016000909190919091506000820151816000015560208201518160010190805190602001906109be9291906119b1565b5060408201518160020155505080806109d69061367e565b915050610947565b5060005b8551811015610a6f5781600101868281518110610a0257610a0161364f565b5b602002602001015190806001815401808255809150506001900390600052602060002090600202016000909190919091506000820151816000019080519060200190610a4f9291906119b1565b506020820151816001015550508080610a679061367e565b9150506109e2565b5060005b8451811015610b2a5781600201858281518110610a9357610a9261364f565b5b6020026020010151908060018154018082558091505060019003906000526020600020906002020160009091909190915060008201518160000160006101000a81548173ffffffffffffffffffffffffffffffffffffffff021916908373ffffffffffffffffffffffffffffffffffffffff1602179055506020820151816001015550508080610b229061367e565b915050610a73565b5080600860008481526020019081526020016000206000820181600001908054610b55929190611a37565b506001820181600101908054610b6c929190611ac3565b506002820181600201908054610b83929190611b45565b506003820160009054906101000a900460ff168160030160006101000a81548160ff02191690836003811115610bbc57610bbb6125e4565b5b02179055506003820160019054906101000a900473ffffffffffffffffffffffffffffffffffffffff168160030160016101000a81548173ffffffffffffffffffffffffffffffffffffffff021916908373ffffffffffffffffffffffffffffffffffffffff1602179055506004820181600401908054610c3c90613545565b610c47929190611c0e565b506005820154816005015560068201548160060155600782015481600701556008820154816008015560098201548160090155600a82015481600a0155600b82015481600b0155600c82015481600c0155600d82015481600d0155600e820160009054906101000a900460ff1681600e0160006101000a81548160ff0219169083151502179055509050508060098b604051610ce39190613638565b90815260200160405180910390206000820181600001908054610d07929190611a37565b506001820181600101908054610d1e929190611ac3565b506002820181600201908054610d35929190611b45565b506003820160009054906101000a900460ff168160030160006101000a81548160ff02191690836003811115610d6e57610d6d6125e4565b5b02179055506003820160019054906101000a900473ffffffffffffffffffffffffffffffffffffffff168160030160016101000a81548173ffffffffffffffffffffffffffffffffffffffff021916908373ffffffffffffffffffffffffffffffffffffffff1602179055506004820181600401908054610dee90613545565b610df9929190611c0e565b506005820154816005015560068201548160060155600782015481600701556008820154816008015560098201548160090155600a82015481600a0155600b82015481600b0155600c82015481600c0155600d82015481600d0155600e820160009054906101000a900460ff1681600e0160006101000a81548160ff021916908315150217905550905050826004600085600d015481526020019081526020016000206000820181600001908054610eb2929190611c9b565b506001820181600101908054610ec9929190611ced565b506002820181600201908054610ee0929190611d6f565b506003820181600301908054610ef7929190611dfb565b506004820181600401908054610f0e929190611ee4565b506005820181600501908054610f2390613545565b610f2e929190611c0e565b506006820181600601908054610f4390613545565b610f4e929190611c0e565b506007820181600701908054610f6390613545565b610f6e929190611c0e565b506008820154816008015560098201548160090155600a82015481600a0155600b82015481600b0155600c82015481600c0155600d82015481600d0155600e82015481600e0155600f820160009054906101000a900460ff1681600f0160006101000a81548160ff021916908315150217905550600f820160019054906101000a900460ff1681600f0160016101000a81548160ff0219169083151502179055509050508260058c6040516110239190613638565b90815260200160405180910390206000820181600001908054611047929190611c9b565b50600182018160010190805461105e929190611ced565b506002820181600201908054611075929190611d6f565b50600382018160030190805461108c929190611dfb565b5060048201816004019080546110a3929190611ee4565b5060058201816005019080546110b890613545565b6110c3929190611c0e565b5060068201816006019080546110d890613545565b6110e3929190611c0e565b5060078201816007019080546110f890613545565b611103929190611c0e565b506008820154816008015560098201548160090155600a82015481600a0155600b82015481600b0155600c82015481600c0155600d82015481600d0155600e82015481600e0155600f820160009054906101000a900460ff1681600f0160006101000a81548160ff021916908315150217905550600f820160019054906101000a900460ff1681600f0160016101000a81548160ff0219169083151502179055509050507fdd6817c707f804f4ba0602f6785936e85333010a921c480aeca9d4abe74e48fb828c8c6040516111da939291906136c7565b60405180910390a15050505050505050505050565b60008054906101000a900473ffffffffffffffffffffffffffffffffffffffff1681565b6003602052816000526040600020818154811061122f57600080fd5b9060005260206000200160009150915050805461124b90613545565b80601f016020809104026020016040519081016040528092919081815260200182805461127790613545565b80156112c45780601f10611299576101008083540402835291602001916112c4565b820191906000526020600020905b8154815290600101906020018083116112a757829003601f168201915b505050505081565b600d6020528060005260406000206000915090505481565b6015602052826000526040600020602052816000526040600020818154811061130c57600080fd5b90600052602060002001600092509250509054906101000a900473ffffffffffffffffffffffffffffffffffffffff1681565b6011602052816000526040600020602052806000526040600020600091509150508060000154908060010154908060020154908060030154908060040160009054906101000a900460ff16905085565b60015481565b601060205281600052604060002081815481106113b157600080fd5b9060005260206000209060060201600091509150508060000160009054906101000a900473ffffffffffffffffffffffffffffffffffffffff16908060010160009054906101000a900473ffffffffffffffffffffffffffffffffffffffff16908060020154908060030154908060040154908060050160009054906101000a900460ff16908060050160019054906101000a900460ff16905087565b611456612053565b60006005836040516114689190613638565b9081526020016040518091039020600701805461148490613545565b80601f01602080910402602001604051908101604052809291908181526020018280546114b090613545565b80156114fd5780601f106114d2576101008083540402835291602001916114fd565b820191906000526020600020905b8154815290600101906020018083116114e057829003601f168201915b505050505090506009816040516115149190613638565b90815260200160405180910390206040518061020001604052908160008201805480602002602001604051908101604052809291908181526020016000905b8282101561162b57838290600052602060002090600302016040518060600160405290816000820154815260200160018201805461159090613545565b80601f01602080910402602001604051908101604052809291908181526020018280546115bc90613545565b80156116095780601f106115de57610100808354040283529160200191611609565b820191906000526020600020905b8154815290600101906020018083116115ec57829003601f168201915b5050505050815260200160028201548152505081526020019060010190611553565b50505050815260200160018201805480602002602001604051908101604052809291908181526020016000905b82821015611726578382906000526020600020906002020160405180604001604052908160008201805461168b90613545565b80601f01602080910402602001604051908101604052809291908181526020018280546116b790613545565b80156117045780601f106116d957610100808354040283529160200191611704565b820191906000526020600020905b8154815290600101906020018083116116e757829003601f168201915b5050505050815260200160018201548152505081526020019060010190611658565b50505050815260200160028201805480602002602001604051908101604052809291908181526020016000905b828210156117e557838290600052602060002090600202016040518060400160405290816000820160009054906101000a900473ffffffffffffffffffffffffffffffffffffffff1673ffffffffffffffffffffffffffffffffffffffff1673ffffffffffffffffffffffffffffffffffffffff16815260200160018201548152505081526020019060010190611753565b5050505081526020016003820160009054906101000a900460ff166003811115611812576118116125e4565b5b6003811115611824576118236125e4565b5b81526020016003820160019054906101000a900473ffffffffffffffffffffffffffffffffffffffff1673ffffffffffffffffffffffffffffffffffffffff1673ffffffffffffffffffffffffffffffffffffffff16815260200160048201805461188e90613545565b80601f01602080910402602001604051908101604052809291908181526020018280546118ba90613545565b80156119075780601f106118dc57610100808354040283529160200191611907565b820191906000526020600020905b8154815290600101906020018083116118ea57829003601f168201915b505050505081526020016005820154815260200160068201548152602001600782015481526020016008820154815260200160098201548152602001600a8201548152602001600b8201548152602001600c8201548152602001600d8201548152602001600e820160009054906101000a900460ff161515151581525050915050919050565b6001816000016000828254019250508190555050565b600081600001549050919050565b8280546119bd90613545565b90600052602060002090601f0160209004810192826119df5760008555611a26565b82601f106119f857805160ff1916838001178555611a26565b82800160010185558215611a26579182015b82811115611a25578251825591602001919060010190611a0a565b5b509050611a3391906120fa565b5090565b828054828255906000526020600020906003028101928215611ab25760005260206000209160030282015b82811115611ab1578282600082015481600001556001820181600101908054611a8a90613545565b611a95929190611c0e565b5060028201548160020155505091600301919060030190611a62565b5b509050611abf9190612117565b5090565b828054828255906000526020600020906002028101928215611b345760005260206000209160020282015b82811115611b335782826000820181600001908054611b0c90613545565b611b17929190611c0e565b5060018201548160010155505091600201919060020190611aee565b5b509050611b41919061214e565b5090565b828054828255906000526020600020906002028101928215611bfd5760005260206000209160020282015b82811115611bfc5782826000820160009054906101000a900473ffffffffffffffffffffffffffffffffffffffff168160000160006101000a81548173ffffffffffffffffffffffffffffffffffffffff021916908373ffffffffffffffffffffffffffffffffffffffff16021790555060018201548160010155505091600201919060020190611b70565b5b509050611c0a919061217d565b5090565b828054611c1a90613545565b90600052602060002090601f016020900481019282611c3c5760008555611c8a565b82601f10611c4d5780548555611c8a565b82800160010185558215611c8a57600052602060002091601f016020900482015b82811115611c89578254825591600101919060010190611c6e565b5b509050611c9791906120fa565b5090565b828054828255906000526020600020908101928215611cdc5760005260206000209182015b82811115611cdb578254825591600101919060010190611cc0565b5b509050611ce991906120fa565b5090565b828054828255906000526020600020906002028101928215611d5e5760005260206000209160020282015b82811115611d5d5782826000820181600001908054611d3690613545565b611d41929190611c0e565b5060018201548160010155505091600201919060020190611d18565b5b509050611d6b91906121c3565b5090565b828054828255906000526020600020906003028101928215611dea5760005260206000209160030282015b82811115611de9578282600082015481600001556001820181600101908054611dc290613545565b611dcd929190611c0e565b5060028201548160020155505091600301919060030190611d9a565b5b509050611df791906121f2565b5090565b828054828255906000526020600020906003028101928215611ed35760005260206000209160030282015b82811115611ed25782826000820160009054906101000a900473ffffffffffffffffffffffffffffffffffffffff168160000160006101000a81548173ffffffffffffffffffffffffffffffffffffffff021916908373ffffffffffffffffffffffffffffffffffffffff1602179055506001820181600101908054611eab90613545565b611eb6929190611c0e565b5060028201548160020155505091600301919060030190611e26565b5b509050611ee09190612229565b5090565b8280548282559060005260206000209060090281019282156120425760005260206000209160090282015b828111156120415782826000820181600001908054611f2f929190611a37565b506001820181600101908054611f46929190611ac3565b506002820181600201908054611f5d929190611b45565b506003820160009054906101000a900473ffffffffffffffffffffffffffffffffffffffff168160030160006101000a81548173ffffffffffffffffffffffffffffffffffffffff021916908373ffffffffffffffffffffffffffffffffffffffff1602179055506004820181600401908054611fd990613545565b611fe4929190611c0e565b5060058201548160050155600682015481600601556007820160009054906101000a900460ff168160070160006101000a81548160ff02191690831515021790555060088201548160080155505091600901919060090190611f0f565b5b50905061204f919061227f565b5090565b60405180610200016040528060608152602001606081526020016060815260200160006003811115612088576120876125e4565b5b8152602001600073ffffffffffffffffffffffffffffffffffffffff168152602001606081526020016000815260200160008152602001600081526020016000815260200160008152602001600081526020016000815260200160008152602001600081526020016000151581525090565b5b808211156121135760008160009055506001016120fb565b5090565b5b8082111561214a576000808201600090556001820160006121399190612329565b600282016000905550600301612118565b5090565b5b8082111561217957600080820160006121689190612329565b60018201600090555060020161214f565b5090565b5b808211156121bf57600080820160006101000a81549073ffffffffffffffffffffffffffffffffffffffff021916905560018201600090555060020161217e565b5090565b5b808211156121ee57600080820160006121dd9190612329565b6001820160009055506002016121c4565b5090565b5b80821115612225576000808201600090556001820160006122149190612329565b6002820160009055506003016121f3565b5090565b5b8082111561227b57600080820160006101000a81549073ffffffffffffffffffffffffffffffffffffffff021916905560018201600061226a9190612329565b60028201600090555060030161222a565b5090565b5b8082111561232557600080820160006122999190612369565b6001820160006122a9919061238d565b6002820160006122b991906123b1565b6003820160006101000a81549073ffffffffffffffffffffffffffffffffffffffff02191690556004820160006122f09190612329565b600582016000905560068201600090556007820160006101000a81549060ff0219169055600882016000905550600901612280565b5090565b50805461233590613545565b6000825580601f106123475750612366565b601f01602090049060005260206000209081019061236591906120fa565b5b50565b508054600082556003029060005260206000209081019061238a9190612117565b50565b50805460008255600202906000526020600020908101906123ae919061214e565b50565b50805460008255600202906000526020600020908101906123d2919061217d565b50565b6000604051905090565b600080fd5b600080fd5b6000819050919050565b6123fc816123e9565b811461240757600080fd5b50565b600081359050612419816123f3565b92915050565b600060208284031215612435576124346123df565b5b60006124438482850161240a565b91505092915050565b600073ffffffffffffffffffffffffffffffffffffffff82169050919050565b60006124778261244c565b9050919050565b6124878161246c565b82525050565b60006020820190506124a2600083018461247e565b92915050565b6124b18161246c565b81146124bc57600080fd5b50565b6000813590506124ce816124a8565b92915050565b6000806000606084860312156124ed576124ec6123df565b5b60006124fb868287016124bf565b935050602061250c8682870161240a565b925050604061251d868287016124bf565b9150509250925092565b612530816123e9565b82525050565b60008115159050919050565b61254b81612536565b82525050565b600060a0820190506125666000830188612527565b6125736020830187612527565b6125806040830186612527565b61258d6060830185612542565b61259a608083018461247e565b9695505050505050565b600080604083850312156125bb576125ba6123df565b5b60006125c9858286016124bf565b92505060206125da8582860161240a565b9150509250929050565b7f4e487b7100000000000000000000000000000000000000000000000000000000600052602160045260246000fd5b60048110612624576126236125e4565b5b50565b600081905061263582612613565b919050565b600061264582612627565b9050919050565b6126558161263a565b82525050565b600060a0820190506126706000830188612527565b61267d6020830187612527565b61268a6040830186612527565b6126976060830185612527565b6126a4608083018461264c565b9695505050505050565b6000602082840312156126c4576126c36123df565b5b60006126d2848285016124bf565b91505092915050565b60006020820190506126f06000830184612527565b92915050565b60008060006060848603121561270f5761270e6123df565b5b600061271d868287016124bf565b935050602061272e8682870161240a565b925050604061273f8682870161240a565b9150509250925092565b600080fd5b600080fd5b6000601f19601f8301169050919050565b7f4e487b7100000000000000000000000000000000000000000000000000000000600052604160045260246000fd5b61279c82612753565b810181811067ffffffffffffffff821117156127bb576127ba612764565b5b80604052505050565b60006127ce6123d5565b90506127da8282612793565b919050565b600067ffffffffffffffff8211156127fa576127f9612764565b5b61280382612753565b9050602081019050919050565b82818337600083830152505050565b600061283261282d846127df565b6127c4565b90508281526020810184848401111561284e5761284d61274e565b5b612859848285612810565b509392505050565b600082601f83011261287657612875612749565b5b813561288684826020860161281f565b91505092915050565b6000806000606084860312156128a8576128a76123df565b5b60006128b6868287016124bf565b935050602084013567ffffffffffffffff8111156128d7576128d66123e4565b5b6128e386828701612861565b92505060406128f48682870161240a565b9150509250925092565b600081519050919050565b600082825260208201905092915050565b60005b8381101561293857808201518184015260208101905061291d565b83811115612947576000848401525b50505050565b6000612958826128fe565b6129628185612909565b935061297281856020860161291a565b61297b81612753565b840191505092915050565b600060808201905081810360008301526129a0818761294d565b90506129af6020830186612527565b6129bc6040830185612527565b6129c96060830184612527565b95945050505050565b60006020820190506129e76000830184612542565b92915050565b600067ffffffffffffffff821115612a0857612a07612764565b5b602082029050602081019050919050565b600080fd5b600080fd5b600080fd5b600060608284031215612a3e57612a3d612a1e565b5b612a4860606127c4565b90506000612a588482850161240a565b600083015250602082013567ffffffffffffffff811115612a7c57612a7b612a23565b5b612a8884828501612861565b6020830152506040612a9c8482850161240a565b60408301525092915050565b6000612abb612ab6846129ed565b6127c4565b90508083825260208201905060208402830185811115612ade57612add612a19565b5b835b81811015612b2557803567ffffffffffffffff811115612b0357612b02612749565b5b808601612b108982612a28565b85526020850194505050602081019050612ae0565b5050509392505050565b600082601f830112612b4457612b43612749565b5b8135612b54848260208601612aa8565b91505092915050565b600067ffffffffffffffff821115612b7857612b77612764565b5b602082029050602081019050919050565b600060408284031215612b9f57612b9e612a1e565b5b612ba960406127c4565b9050600082013567ffffffffffffffff811115612bc957612bc8612a23565b5b612bd584828501612861565b6000830152506020612be98482850161240a565b60208301525092915050565b6000612c08612c0384612b5d565b6127c4565b90508083825260208201905060208402830185811115612c2b57612c2a612a19565b5b835b81811015612c7257803567ffffffffffffffff811115612c5057612c4f612749565b5b808601612c5d8982612b89565b85526020850194505050602081019050612c2d565b5050509392505050565b600082601f830112612c9157612c90612749565b5b8135612ca1848260208601612bf5565b91505092915050565b600067ffffffffffffffff821115612cc557612cc4612764565b5b602082029050602081019050919050565b600060408284031215612cec57612ceb612a1e565b5b612cf660406127c4565b90506000612d06848285016124bf565b6000830152506020612d1a8482850161240a565b60208301525092915050565b6000612d39612d3484612caa565b6127c4565b90508083825260208201905060408402830185811115612d5c57612d5b612a19565b5b835b81811015612d855780612d718882612cd6565b845260208401935050604081019050612d5e565b5050509392505050565b600082601f830112612da457612da3612749565b5b8135612db4848260208601612d26565b91505092915050565b600080600080600080600080610100898b031215612dde57612ddd6123df565b5b600089013567ffffffffffffffff811115612dfc57612dfb6123e4565b5b612e088b828c01612861565b985050602089013567ffffffffffffffff811115612e2957612e286123e4565b5b612e358b828c01612861565b9750506040612e468b828c0161240a565b9650506060612e578b828c0161240a565b9550506080612e688b828c0161240a565b94505060a089013567ffffffffffffffff811115612e8957612e886123e4565b5b612e958b828c01612b2f565b93505060c089013567ffffffffffffffff811115612eb657612eb56123e4565b5b612ec28b828c01612c7c565b92505060e089013567ffffffffffffffff811115612ee357612ee26123e4565b5b612eef8b828c01612d8f565b9150509295985092959890939650565b60006020820190508181036000830152612f19818461294d565b905092915050565b600060e082019050612f36600083018a61247e565b612f43602083018961247e565b612f506040830188612527565b612f5d6060830187612527565b612f6a6080830186612527565b612f7760a0830185612542565b612f8460c0830184612542565b98975050505050505050565b600060208284031215612fa657612fa56123df565b5b600082013567ffffffffffffffff811115612fc457612fc36123e4565b5b612fd084828501612861565b91505092915050565b600081519050919050565b600082825260208201905092915050565b6000819050602082019050919050565b61300e816123e9565b82525050565b600082825260208201905092915050565b6000613030826128fe565b61303a8185613014565b935061304a81856020860161291a565b61305381612753565b840191505092915050565b60006060830160008301516130766000860182613005565b506020830151848203602086015261308e8282613025565b91505060408301516130a36040860182613005565b508091505092915050565b60006130ba838361305e565b905092915050565b6000602082019050919050565b60006130da82612fd9565b6130e48185612fe4565b9350836020820285016130f685612ff5565b8060005b85811015613132578484038952815161311385826130ae565b945061311e836130c2565b925060208a019950506001810190506130fa565b50829750879550505050505092915050565b600081519050919050565b600082825260208201905092915050565b6000819050602082019050919050565b6000604083016000830151848203600086015261318d8282613025565b91505060208301516131a26020860182613005565b508091505092915050565b60006131b98383613170565b905092915050565b6000602082019050919050565b60006131d982613144565b6131e3818561314f565b9350836020820285016131f585613160565b8060005b85811015613231578484038952815161321285826131ad565b945061321d836131c1565b925060208a019950506001810190506131f9565b50829750879550505050505092915050565b600081519050919050565b600082825260208201905092915050565b6000819050602082019050919050565b6132788161246c565b82525050565b604082016000820151613294600085018261326f565b5060208201516132a76020850182613005565b50505050565b60006132b9838361327e565b60408301905092915050565b6000602082019050919050565b60006132dd82613243565b6132e7818561324e565b93506132f28361325f565b8060005b8381101561332357815161330a88826132ad565b9750613315836132c5565b9250506001810190506132f6565b5085935050505092915050565b60048110613341576133406125e4565b5b50565b600081905061335282613330565b919050565b600061336282613344565b9050919050565b61337281613357565b82525050565b61338181612536565b82525050565b60006102008301600083015184820360008601526133a582826130cf565b915050602083015184820360208601526133bf82826131ce565b915050604083015184820360408601526133d982826132d2565b91505060608301516133ee6060860182613369565b506080830151613401608086018261326f565b5060a083015184820360a08601526134198282613025565b91505060c083015161342e60c0860182613005565b5060e083015161344160e0860182613005565b50610100830151613456610100860182613005565b5061012083015161346b610120860182613005565b50610140830151613480610140860182613005565b50610160830151613495610160860182613005565b506101808301516134aa610180860182613005565b506101a08301516134bf6101a0860182613005565b506101c08301516134d46101c0860182613005565b506101e08301516134e96101e0860182613378565b508091505092915050565b6000602082019050818103600083015261350e8184613387565b905092915050565b7f4e487b7100000000000000000000000000000000000000000000000000000000600052602260045260246000fd5b6000600282049050600182168061355d57607f821691505b6020821081141561357157613570613516565b5b50919050565b7f4e487b7100000000000000000000000000000000000000000000000000000000600052601160045260246000fd5b60006135b1826123e9565b91506135bc836123e9565b9250827fffffffffffffffffffffffffffffffffffffffffffffffffffffffffffffffff038211156135f1576135f0613577565b5b828201905092915050565b600081905092915050565b6000613612826128fe565b61361c81856135fc565b935061362c81856020860161291a565b80840191505092915050565b60006136448284613607565b915081905092915050565b7f4e487b7100000000000000000000000000000000000000000000000000000000600052603260045260246000fd5b6000613689826123e9565b91507fffffffffffffffffffffffffffffffffffffffffffffffffffffffffffffffff8214156136bc576136bb613577565b5b600182019050919050565b60006060820190506136dc6000830186612527565b81810360208301526136ee818561294d565b90508181036040830152613702818461294d565b905094935050505056fea2646970667358221220b74b13ccc18789300b6292af9f74c1a8a7d90a07ece3c0b0de4f159281b91cab64736f6c634300080c0033",
  "linkReferences": {},
  "deployedLinkReferences": {}
}