{
  "_format": "hh-sol-artifact-1",
  "contractName": "UserScoreFacet",
  "sourceName": "contracts/facets/UserScoreFacet.sol",
  "abi": [
    {
      "inputs": [
        {
          "internalType": "address",
          "name": "_user",
          "type": "address"
        },
        {
          "internalType": "string",
          "name": "_postHash",
          "type": "string"
        },
        {
          "internalType": "uint256",
          "name": "_time",
          "type": "uint256"
        },
        {
          "internalType": "uint256",
          "name": "_postCred",
          "type": "uint256"
        },
        {
          "components": [
            {
              "internalType": "string",
              "name": "catHash",
              "type": "string"
            },
            {
              "internalType": "uint256",
              "name": "catImpact",
              "type": "uint256"
            }
          ],
          "internalType": "struct PostCats[]",
          "name": "_postCats",
          "type": "tuple[]"
        }
      ],
      "name": "saveCatPost",
      "outputs": [],
      "stateMutability": "nonpayable",
      "type": "function"
    }
  ],
  "bytecode": "0x608060405234801561001057600080fd5b506108fc806100206000396000f3fe608060405234801561001057600080fd5b506004361061002b5760003560e01c8063607488f914610030575b600080fd5b61004a600480360381019061004591906104eb565b61004c565b005b60005b815181101561027e57600082828151811061006d5761006c610806565b5b602002602001015160000151905060008383815181106100905761008f610806565b5b602002602001015160200151905060008060010160008a73ffffffffffffffffffffffffffffffffffffffff1673ffffffffffffffffffffffffffffffffffffffff168152602001908152602001600020836040516100ef91906105cf565b908152602001604051809103902080549050141561018457600060020160008973ffffffffffffffffffffffffffffffffffffffff1673ffffffffffffffffffffffffffffffffffffffff16815260200190815260200160002082908060018154018082558091505060019003906000526020600020016000909190919091509080519060200190610182929190610286565b505b600060010160008973ffffffffffffffffffffffffffffffffffffffff1673ffffffffffffffffffffffffffffffffffffffff168152602001908152602001600020826040516101d491906105cf565b908152602001604051809103902060405180608001604052808981526020018381526020018781526020018881525090806001815401808255809150506001900390600052602060002090600402016000909190919091506000820151816000019080519060200190610248929190610286565b506020820151816001015560408201518160020155606082015181600301555050505080806102769061075f565b91505061004f565b505050505050565b828054610292906106fc565b90600052602060002090601f0160209004810192826102b457600085556102fb565b82601f106102cd57805160ff19168380011785556102fb565b828001600101855582156102fb579182015b828111156102fa5782518255916020019190600101906102df565b5b509050610308919061030c565b5090565b5b8082111561032557600081600090555060010161030d565b5090565b600061033c6103378461060b565b6105e6565b9050808382526020820190508285602086028201111561035f5761035e610873565b5b60005b858110156103ad57813567ffffffffffffffff81111561038557610384610864565b5b808601610392898261046a565b85526020850194506020840193505050600181019050610362565b5050509392505050565b60006103ca6103c584610637565b6105e6565b9050828152602081018484840111156103e6576103e5610878565b5b6103f18482856106ba565b509392505050565b60008135905061040881610898565b92915050565b600082601f83011261042357610422610864565b5b8135610433848260208601610329565b91505092915050565b600082601f83011261045157610450610864565b5b81356104618482602086016103b7565b91505092915050565b6000604082840312156104805761047f610869565b5b61048a60406105e6565b9050600082013567ffffffffffffffff8111156104aa576104a961086e565b5b6104b68482850161043c565b60008301525060206104ca848285016104d6565b60208301525092915050565b6000813590506104e5816108af565b92915050565b600080600080600060a0868803121561050757610506610882565b5b6000610515888289016103f9565b955050602086013567ffffffffffffffff8111156105365761053561087d565b5b6105428882890161043c565b9450506040610553888289016104d6565b9350506060610564888289016104d6565b925050608086013567ffffffffffffffff8111156105855761058461087d565b5b6105918882890161040e565b9150509295509295909350565b60006105a982610668565b6105b38185610673565b93506105c38185602086016106c9565b80840191505092915050565b60006105db828461059e565b915081905092915050565b60006105f0610601565b90506105fc828261072e565b919050565b6000604051905090565b600067ffffffffffffffff82111561062657610625610835565b5b602082029050602081019050919050565b600067ffffffffffffffff82111561065257610651610835565b5b61065b82610887565b9050602081019050919050565b600081519050919050565b600081905092915050565b600061068982610690565b9050919050565b600073ffffffffffffffffffffffffffffffffffffffff82169050919050565b6000819050919050565b82818337600083830152505050565b60005b838110156106e75780820151818401526020810190506106cc565b838111156106f6576000848401525b50505050565b6000600282049050600182168061071457607f821691505b60208210811415610728576107276107d7565b5b50919050565b61073782610887565b810181811067ffffffffffffffff8211171561075657610755610835565b5b80604052505050565b600061076a826106b0565b91507fffffffffffffffffffffffffffffffffffffffffffffffffffffffffffffffff82141561079d5761079c6107a8565b5b600182019050919050565b7f4e487b7100000000000000000000000000000000000000000000000000000000600052601160045260246000fd5b7f4e487b7100000000000000000000000000000000000000000000000000000000600052602260045260246000fd5b7f4e487b7100000000000000000000000000000000000000000000000000000000600052603260045260246000fd5b7f4e487b7100000000000000000000000000000000000000000000000000000000600052604160045260246000fd5b600080fd5b600080fd5b600080fd5b600080fd5b600080fd5b600080fd5b600080fd5b6000601f19601f8301169050919050565b6108a18161067e565b81146108ac57600080fd5b50565b6108b8816106b0565b81146108c357600080fd5b5056fea26469706673582212206443e2050d8dd557843f2fdeb40b3cfe04a19fef9d5087bf6cb3be560fb15ed764736f6c63430008060033",
  "linkReferences": {},
  "deployedLinkReferences": {}
}