{
  "_format": "hh-sol-artifact-1",
  "contractName": "StructMappingFacet",
  "sourceName": "contracts/facets/StructMappingFacet.sol",
  "abi": [
    {
      "inputs": [
        {
          "internalType": "enum Structs",
          "name": "_struct",
          "type": "uint8"
        }
      ],
      "name": "mapStruct",
      "outputs": [
        {
          "internalType": "uint256",
          "name": "",
          "type": "uint256"
        }
      ],
      "stateMutability": "view",
      "type": "function"
    },
    {
      "inputs": [
        {
          "internalType": "enum Structs",
          "name": "_struct",
          "type": "uint8"
        }
      ],
      "name": "updateStruct",
      "outputs": [],
      "stateMutability": "nonpayable",
      "type": "function"
    }
  ],
  "bytecode": "0x608060405234801561001057600080fd5b50610406806100206000396000f3fe608060405234801561001057600080fd5b50600436106100365760003560e01c8063c9ab2ccc1461003b578063d5b3245f1461006b575b600080fd5b61005560048036038101906100509190610203565b610087565b6040516100629190610282565b60405180910390f35b61008560048036038101906100809190610203565b6100ca565b005b60008060000160008360118111156100a2576100a161033d565b5b60118111156100b4576100b361033d565b5b8152602001908152602001600020549050919050565b6100d2610126565b60016000800160008360118111156100ed576100ec61033d565b5b60118111156100ff576100fe61033d565b5b8152602001908152602001600020600082825461011c91906102ae565b9250508190555050565b61012e6101c1565b60030160009054906101000a900473ffffffffffffffffffffffffffffffffffffffff1673ffffffffffffffffffffffffffffffffffffffff163373ffffffffffffffffffffffffffffffffffffffff16146101bf576040517f08c379a00000000000000000000000000000000000000000000000000000000081526004016101b690610262565b60405180910390fd5b565b6000807fc8fcad8db84d3cc18b4c41d551ea0ee66dd599cde068d998e57d5e09332c131c90508091505090565b6000813590506101fd816103c0565b92915050565b6000602082840312156102195761021861036c565b5b6000610227848285016101ee565b91505092915050565b600061023d60228361029d565b915061024882610371565b604082019050919050565b61025c81610304565b82525050565b6000602082019050818103600083015261027b81610230565b9050919050565b60006020820190506102976000830184610253565b92915050565b600082825260208201905092915050565b60006102b982610304565b91506102c483610304565b9250827fffffffffffffffffffffffffffffffffffffffffffffffffffffffffffffffff038211156102f9576102f861030e565b5b828201905092915050565b6000819050919050565b7f4e487b7100000000000000000000000000000000000000000000000000000000600052601160045260246000fd5b7f4e487b7100000000000000000000000000000000000000000000000000000000600052602160045260246000fd5b600080fd5b7f4c69624469616d6f6e643a204d75737420626520636f6e7472616374206f776e60008201527f6572000000000000000000000000000000000000000000000000000000000000602082015250565b601281106103cd57600080fd5b5056fea26469706673582212206c783b5b9050e57f7c37f370b1947e676176db9835bb93c768a350243750663e64736f6c63430008060033",
  "linkReferences": {},
  "deployedLinkReferences": {}
}