{
  "_format": "hh-sol-artifact-1",
  "contractName": "CategoriesFacet",
  "sourceName": "contracts/facets/CategoriesFacet.sol",
  "abi": [
    {
      "anonymous": false,
      "inputs": [
        {
          "indexed": false,
          "internalType": "uint256",
          "name": "id",
          "type": "uint256"
        },
        {
          "indexed": false,
          "internalType": "string",
          "name": "name",
          "type": "string"
        },
        {
          "indexed": false,
          "internalType": "string",
          "name": "hash",
          "type": "string"
        }
      ],
      "name": "CategoryCreated",
      "type": "event"
    },
    {
      "inputs": [
        {
          "internalType": "string",
          "name": "_name",
          "type": "string"
        },
        {
          "internalType": "string",
          "name": "_hash",
          "type": "string"
        },
        {
          "internalType": "uint256",
          "name": "_percent",
          "type": "uint256"
        },
        {
          "internalType": "string[]",
          "name": "_related",
          "type": "string[]"
        },
        {
          "internalType": "uint256",
          "name": "_time",
          "type": "uint256"
        },
        {
          "internalType": "bool",
          "name": "_subscribe",
          "type": "bool"
        }
      ],
      "name": "createCategory",
      "outputs": [],
      "stateMutability": "nonpayable",
      "type": "function"
    },
    {
      "inputs": [],
      "name": "fetchCategories",
      "outputs": [
        {
          "components": [
            {
              "internalType": "uint256",
              "name": "id",
              "type": "uint256"
            },
            {
              "internalType": "string",
              "name": "name",
              "type": "string"
            },
            {
              "internalType": "string",
              "name": "catId",
              "type": "string"
            },
            {
              "internalType": "uint256",
              "name": "catVotes",
              "type": "uint256"
            },
            {
              "internalType": "uint256",
              "name": "timeCreated",
              "type": "uint256"
            },
            {
              "internalType": "uint256",
              "name": "blockTime",
              "type": "uint256"
            },
            {
              "internalType": "string[]",
              "name": "tempRelatedCat",
              "type": "string[]"
            },
            {
              "internalType": "address[]",
              "name": "subscribers",
              "type": "address[]"
            },
            {
              "components": [
                {
                  "internalType": "string",
                  "name": "catId",
                  "type": "string"
                },
                {
                  "internalType": "address",
                  "name": "user",
                  "type": "address"
                },
                {
                  "internalType": "uint256",
                  "name": "userWeight",
                  "type": "uint256"
                },
                {
                  "internalType": "uint256",
                  "name": "userVote",
                  "type": "uint256"
                }
              ],
              "internalType": "struct ParentCat[]",
              "name": "parentCat",
              "type": "tuple[]"
            },
            {
              "internalType": "uint256",
              "name": "totalPostValue",
              "type": "uint256"
            }
          ],
          "internalType": "struct Category[]",
          "name": "",
          "type": "tuple[]"
        }
      ],
      "stateMutability": "view",
      "type": "function"
    },
    {
      "inputs": [
        {
          "internalType": "string",
          "name": "hash",
          "type": "string"
        }
      ],
      "name": "fetchCategory",
      "outputs": [
        {
          "components": [
            {
              "internalType": "uint256",
              "name": "id",
              "type": "uint256"
            },
            {
              "internalType": "string",
              "name": "name",
              "type": "string"
            },
            {
              "internalType": "string",
              "name": "catId",
              "type": "string"
            },
            {
              "internalType": "uint256",
              "name": "catVotes",
              "type": "uint256"
            },
            {
              "internalType": "uint256",
              "name": "timeCreated",
              "type": "uint256"
            },
            {
              "internalType": "uint256",
              "name": "blockTime",
              "type": "uint256"
            },
            {
              "internalType": "string[]",
              "name": "tempRelatedCat",
              "type": "string[]"
            },
            {
              "internalType": "address[]",
              "name": "subscribers",
              "type": "address[]"
            },
            {
              "components": [
                {
                  "internalType": "string",
                  "name": "catId",
                  "type": "string"
                },
                {
                  "internalType": "address",
                  "name": "user",
                  "type": "address"
                },
                {
                  "internalType": "uint256",
                  "name": "userWeight",
                  "type": "uint256"
                },
                {
                  "internalType": "uint256",
                  "name": "userVote",
                  "type": "uint256"
                }
              ],
              "internalType": "struct ParentCat[]",
              "name": "parentCat",
              "type": "tuple[]"
            },
            {
              "internalType": "uint256",
              "name": "totalPostValue",
              "type": "uint256"
            }
          ],
          "internalType": "struct Category",
          "name": "",
          "type": "tuple"
        }
      ],
      "stateMutability": "view",
      "type": "function"
    },
    {
      "inputs": [
        {
          "internalType": "string",
          "name": "hash",
          "type": "string"
        }
      ],
      "name": "fetchCategoryName",
      "outputs": [
        {
          "internalType": "string",
          "name": "",
          "type": "string"
        }
      ],
      "stateMutability": "view",
      "type": "function"
    }
  ],
  "bytecode": "0x608060405234801561001057600080fd5b50611f74806100206000396000f3fe608060405234801561001057600080fd5b506004361061004c5760003560e01c80630de848ea14610051578063beb5ca221461006f578063da58d0591461009f578063e9e2582d146100cf575b600080fd5b6100596100eb565b6040516100669190611a55565b60405180910390f35b610089600480360381019061008491906113e4565b6105e9565b6040516100969190611a99565b60405180910390f35b6100b960048036038101906100b491906113e4565b610a3d565b6040516100c69190611a77565b60405180910390f35b6100e960048036038101906100e4919061142d565b610af3565b005b606060006100f9601f610e78565b905060008167ffffffffffffffff81111561011757610116611eb7565b5b60405190808252806020026020018201604052801561015057816020015b61013d610e9c565b8152602001906001900390816101355790505b50905060005b828110156105e057600060018261016d9190611c9e565b9050600080600501600083815260200190815260200160002090508060405180610140016040529081600082015481526020016001820180546101af90611d7e565b80601f01602080910402602001604051908101604052809291908181526020018280546101db90611d7e565b80156102285780601f106101fd57610100808354040283529160200191610228565b820191906000526020600020905b81548152906001019060200180831161020b57829003601f168201915b5050505050815260200160028201805461024190611d7e565b80601f016020809104026020016040519081016040528092919081815260200182805461026d90611d7e565b80156102ba5780601f1061028f576101008083540402835291602001916102ba565b820191906000526020600020905b81548152906001019060200180831161029d57829003601f168201915b5050505050815260200160038201548152602001600482015481526020016005820154815260200160068201805480602002602001604051908101604052809291908181526020016000905b828210156103b257838290600052602060002001805461032590611d7e565b80601f016020809104026020016040519081016040528092919081815260200182805461035190611d7e565b801561039e5780601f106103735761010080835404028352916020019161039e565b820191906000526020600020905b81548152906001019060200180831161038157829003601f168201915b505050505081526020019060010190610306565b5050505081526020016007820180548060200260200160405190810160405280929190818152602001828054801561043f57602002820191906000526020600020905b8160009054906101000a900473ffffffffffffffffffffffffffffffffffffffff1673ffffffffffffffffffffffffffffffffffffffff16815260200190600101908083116103f5575b5050505050815260200160088201805480602002602001604051908101604052809291908181526020016000905b8282101561059b57838290600052602060002090600402016040518060800160405290816000820180546104a090611d7e565b80601f01602080910402602001604051908101604052809291908181526020018280546104cc90611d7e565b80156105195780601f106104ee57610100808354040283529160200191610519565b820191906000526020600020905b8154815290600101906020018083116104fc57829003601f168201915b505050505081526020016001820160009054906101000a900473ffffffffffffffffffffffffffffffffffffffff1673ffffffffffffffffffffffffffffffffffffffff1673ffffffffffffffffffffffffffffffffffffffff168152602001600282015481526020016003820154815250508152602001906001019061046d565b5050505081526020016009820154815250508484815181106105c0576105bf611e88565b5b6020026020010181905250505080806105d890611de1565b915050610156565b50809250505090565b6105f1610e9c565b6000600601826040516106049190611a3e565b9081526020016040518091039020604051806101400160405290816000820154815260200160018201805461063890611d7e565b80601f016020809104026020016040519081016040528092919081815260200182805461066490611d7e565b80156106b15780601f10610686576101008083540402835291602001916106b1565b820191906000526020600020905b81548152906001019060200180831161069457829003601f168201915b505050505081526020016002820180546106ca90611d7e565b80601f01602080910402602001604051908101604052809291908181526020018280546106f690611d7e565b80156107435780601f1061071857610100808354040283529160200191610743565b820191906000526020600020905b81548152906001019060200180831161072657829003601f168201915b5050505050815260200160038201548152602001600482015481526020016005820154815260200160068201805480602002602001604051908101604052809291908181526020016000905b8282101561083b5783829060005260206000200180546107ae90611d7e565b80601f01602080910402602001604051908101604052809291908181526020018280546107da90611d7e565b80156108275780601f106107fc57610100808354040283529160200191610827565b820191906000526020600020905b81548152906001019060200180831161080a57829003601f168201915b50505050508152602001906001019061078f565b505050508152602001600782018054806020026020016040519081016040528092919081815260200182805480156108c857602002820191906000526020600020905b8160009054906101000a900473ffffffffffffffffffffffffffffffffffffffff1673ffffffffffffffffffffffffffffffffffffffff168152602001906001019080831161087e575b5050505050815260200160088201805480602002602001604051908101604052809291908181526020016000905b82821015610a24578382906000526020600020906004020160405180608001604052908160008201805461092990611d7e565b80601f016020809104026020016040519081016040528092919081815260200182805461095590611d7e565b80156109a25780601f10610977576101008083540402835291602001916109a2565b820191906000526020600020905b81548152906001019060200180831161098557829003601f168201915b505050505081526020016001820160009054906101000a900473ffffffffffffffffffffffffffffffffffffffff1673ffffffffffffffffffffffffffffffffffffffff1673ffffffffffffffffffffffffffffffffffffffff16815260200160028201548152602001600382015481525050815260200190600101906108f6565b5050505081526020016009820154815250509050919050565b6060600060060182604051610a529190611a3e565b90815260200160405180910390206001018054610a6e90611d7e565b80601f0160208091040260200160405190810160405280929190818152602001828054610a9a90611d7e565b8015610ae75780601f10610abc57610100808354040283529160200191610ae7565b820191906000526020600020905b815481529060010190602001808311610aca57829003601f168201915b50505050509050919050565b620186a08410610b0257600080fd5b4261012c83610b119190611c9e565b11610b1b57600080fd5b610b25601f610e86565b6000610b31601f610e78565b90506000806005016000838152602001908152602001600020905081816000018190555087816001019080519060200190610b6d929190610eef565b5086816002019080519060200190610b86929190610eef565b5083816004018190555042816005018190555060005b8551811015610c105781600601868281518110610bbc57610bbb611e88565b5b6020026020010151908060018154018082558091505060019003906000526020600020016000909190919091509080519060200190610bfc929190610eef565b508080610c0890611de1565b915050610b9c565b508215610c7d5780600701339080600181540180825580915050600190039060005260206000200160009091909190916101000a81548173ffffffffffffffffffffffffffffffffffffffff021916908373ffffffffffffffffffffffffffffffffffffffff1602179055505b8581600301819055508060006005016000848152602001908152602001600020600082015481600001556001820181600101908054610cbb90611d7e565b610cc6929190610f75565b506002820181600201908054610cdb90611d7e565b610ce6929190610f75565b506003820154816003015560048201548160040155600582015481600501556006820181600601908054610d1b929190611002565b506007820181600701908054610d3292919061106a565b506008820181600801908054610d499291906110bc565b506009820154816009015590505080600060060188604051610d6b9190611a3e565b9081526020016040518091039020600082015481600001556001820181600101908054610d9790611d7e565b610da2929190610f75565b506002820181600201908054610db790611d7e565b610dc2929190610f75565b506003820154816003015560048201548160040155600582015481600501556006820181600601908054610df7929190611002565b506007820181600701908054610e0e92919061106a565b506008820181600801908054610e259291906110bc565b50600982015481600901559050507f22c31dca291d7f417aeb56deed394f40bc020be39668f3b25e7c0414c21526df828989604051610e6693929190611abb565b60405180910390a15050505050505050565b600081600001549050919050565b6001816000016000828254019250508190555050565b604051806101400160405280600081526020016060815260200160608152602001600081526020016000815260200160008152602001606081526020016060815260200160608152602001600081525090565b828054610efb90611d7e565b90600052602060002090601f016020900481019282610f1d5760008555610f64565b82601f10610f3657805160ff1916838001178555610f64565b82800160010185558215610f64579182015b82811115610f63578251825591602001919060010190610f48565b5b509050610f7191906111af565b5090565b828054610f8190611d7e565b90600052602060002090601f016020900481019282610fa35760008555610ff1565b82601f10610fb45780548555610ff1565b82800160010185558215610ff157600052602060002091601f016020900482015b82811115610ff0578254825591600101919060010190610fd5565b5b509050610ffe91906111af565b5090565b8280548282559060005260206000209081019282156110595760005260206000209182015b8281111561105857828290805461103d90611d7e565b611048929190610f75565b5091600101919060010190611027565b5b50905061106691906111cc565b5090565b8280548282559060005260206000209081019282156110ab5760005260206000209182015b828111156110aa57825482559160010191906001019061108f565b5b5090506110b891906111af565b5090565b82805482825590600052602060002090600402810192821561119e5760005260206000209160040282015b8281111561119d578282600082018160000190805461110590611d7e565b611110929190610f75565b506001820160009054906101000a900473ffffffffffffffffffffffffffffffffffffffff168160010160006101000a81548173ffffffffffffffffffffffffffffffffffffffff021916908373ffffffffffffffffffffffffffffffffffffffff16021790555060028201548160020155600382015481600301555050916004019190600401906110e7565b5b5090506111ab91906111f0565b5090565b5b808211156111c85760008160009055506001016111b0565b5090565b5b808211156111ec57600081816111e3919061124e565b506001016111cd565b5090565b5b8082111561124a576000808201600061120a919061124e565b6001820160006101000a81549073ffffffffffffffffffffffffffffffffffffffff021916905560028201600090556003820160009055506004016111f1565b5090565b50805461125a90611d7e565b6000825580601f1061126c575061128b565b601f01602090049060005260206000209081019061128a91906111af565b5b50565b60006112a161129c84611b25565b611b00565b905080838252602082019050828560208602820111156112c4576112c3611eeb565b5b60005b8581101561131257813567ffffffffffffffff8111156112ea576112e9611ee6565b5b8086016112f789826113a1565b855260208501945060208401935050506001810190506112c7565b5050509392505050565b600061132f61132a84611b51565b611b00565b90508281526020810184848401111561134b5761134a611ef0565b5b611356848285611d3c565b509392505050565b600082601f83011261137357611372611ee6565b5b813561138384826020860161128e565b91505092915050565b60008135905061139b81611f10565b92915050565b600082601f8301126113b6576113b5611ee6565b5b81356113c684826020860161131c565b91505092915050565b6000813590506113de81611f27565b92915050565b6000602082840312156113fa576113f9611efa565b5b600082013567ffffffffffffffff81111561141857611417611ef5565b5b611424848285016113a1565b91505092915050565b60008060008060008060c0878903121561144a57611449611efa565b5b600087013567ffffffffffffffff81111561146857611467611ef5565b5b61147489828a016113a1565b965050602087013567ffffffffffffffff81111561149557611494611ef5565b5b6114a189828a016113a1565b95505060406114b289828a016113cf565b945050606087013567ffffffffffffffff8111156114d3576114d2611ef5565b5b6114df89828a0161135e565b93505060806114f089828a016113cf565b92505060a061150189828a0161138c565b9150509295509295509295565b600061151a8383611562565b60208301905092915050565b6000611532838361172e565b905092915050565b600061154683836117d1565b905092915050565b600061155a83836119bd565b905092915050565b61156b81611cf4565b82525050565b600061157c82611bc2565b6115868185611c2d565b935061159183611b82565b8060005b838110156115c25781516115a9888261150e565b97506115b483611bf9565b925050600181019050611595565b5085935050505092915050565b60006115da82611bcd565b6115e48185611c3e565b9350836020820285016115f685611b92565b8060005b8581101561163257848403895281516116138582611526565b945061161e83611c06565b925060208a019950506001810190506115fa565b50829750879550505050505092915050565b600061164f82611bd8565b6116598185611c4f565b93508360208202850161166b85611ba2565b8060005b858110156116a75784840389528151611688858261153a565b945061169383611c13565b925060208a0199505060018101905061166f565b50829750879550505050505092915050565b60006116c482611be3565b6116ce8185611c60565b9350836020820285016116e085611bb2565b8060005b8581101561171c57848403895281516116fd858261154e565b945061170883611c20565b925060208a019950506001810190506116e4565b50829750879550505050505092915050565b600061173982611bee565b6117438185611c71565b9350611753818560208601611d4b565b61175c81611eff565b840191505092915050565b600061177282611bee565b61177c8185611c82565b935061178c818560208601611d4b565b61179581611eff565b840191505092915050565b60006117ab82611bee565b6117b58185611c93565b93506117c5818560208601611d4b565b80840191505092915050565b6000610140830160008301516117ea6000860182611a20565b5060208301518482036020860152611802828261172e565b9150506040830151848203604086015261181c828261172e565b91505060608301516118316060860182611a20565b5060808301516118446080860182611a20565b5060a083015161185760a0860182611a20565b5060c083015184820360c086015261186f82826115cf565b91505060e083015184820360e08601526118898282611571565b9150506101008301518482036101008601526118a582826116b9565b9150506101208301516118bc610120860182611a20565b508091505092915050565b6000610140830160008301516118e06000860182611a20565b50602083015184820360208601526118f8828261172e565b91505060408301518482036040860152611912828261172e565b91505060608301516119276060860182611a20565b50608083015161193a6080860182611a20565b5060a083015161194d60a0860182611a20565b5060c083015184820360c086015261196582826115cf565b91505060e083015184820360e086015261197f8282611571565b91505061010083015184820361010086015261199b82826116b9565b9150506101208301516119b2610120860182611a20565b508091505092915050565b600060808301600083015184820360008601526119da828261172e565b91505060208301516119ef6020860182611562565b506040830151611a026040860182611a20565b506060830151611a156060860182611a20565b508091505092915050565b611a2981611d32565b82525050565b611a3881611d32565b82525050565b6000611a4a82846117a0565b915081905092915050565b60006020820190508181036000830152611a6f8184611644565b905092915050565b60006020820190508181036000830152611a918184611767565b905092915050565b60006020820190508181036000830152611ab381846118c7565b905092915050565b6000606082019050611ad06000830186611a2f565b8181036020830152611ae28185611767565b90508181036040830152611af68184611767565b9050949350505050565b6000611b0a611b1b565b9050611b168282611db0565b919050565b6000604051905090565b600067ffffffffffffffff821115611b4057611b3f611eb7565b5b602082029050602081019050919050565b600067ffffffffffffffff821115611b6c57611b6b611eb7565b5b611b7582611eff565b9050602081019050919050565b6000819050602082019050919050565b6000819050602082019050919050565b6000819050602082019050919050565b6000819050602082019050919050565b600081519050919050565b600081519050919050565b600081519050919050565b600081519050919050565b600081519050919050565b6000602082019050919050565b6000602082019050919050565b6000602082019050919050565b6000602082019050919050565b600082825260208201905092915050565b600082825260208201905092915050565b600082825260208201905092915050565b600082825260208201905092915050565b600082825260208201905092915050565b600082825260208201905092915050565b600081905092915050565b6000611ca982611d32565b9150611cb483611d32565b9250827fffffffffffffffffffffffffffffffffffffffffffffffffffffffffffffffff03821115611ce957611ce8611e2a565b5b828201905092915050565b6000611cff82611d12565b9050919050565b60008115159050919050565b600073ffffffffffffffffffffffffffffffffffffffff82169050919050565b6000819050919050565b82818337600083830152505050565b60005b83811015611d69578082015181840152602081019050611d4e565b83811115611d78576000848401525b50505050565b60006002820490506001821680611d9657607f821691505b60208210811415611daa57611da9611e59565b5b50919050565b611db982611eff565b810181811067ffffffffffffffff82111715611dd857611dd7611eb7565b5b80604052505050565b6000611dec82611d32565b91507fffffffffffffffffffffffffffffffffffffffffffffffffffffffffffffffff821415611e1f57611e1e611e2a565b5b600182019050919050565b7f4e487b7100000000000000000000000000000000000000000000000000000000600052601160045260246000fd5b7f4e487b7100000000000000000000000000000000000000000000000000000000600052602260045260246000fd5b7f4e487b7100000000000000000000000000000000000000000000000000000000600052603260045260246000fd5b7f4e487b7100000000000000000000000000000000000000000000000000000000600052604160045260246000fd5b600080fd5b600080fd5b600080fd5b600080fd5b600080fd5b6000601f19601f8301169050919050565b611f1981611d06565b8114611f2457600080fd5b50565b611f3081611d32565b8114611f3b57600080fd5b5056fea2646970667358221220290340ae05a281cecee24b854fb90347821e95a4cfe0b0603825ed1dcaffd54c64736f6c63430008060033",
  "linkReferences": {},
  "deployedLinkReferences": {}
}