{
  "_format": "hh-sol-artifact-1",
  "contractName": "Data",
  "sourceName": "contracts/Data.sol",
  "abi": [
    {
      "anonymous": false,
      "inputs": [
        {
          "indexed": false,
          "internalType": "address",
          "name": "user",
          "type": "address"
        },
        {
          "indexed": false,
          "internalType": "uint256",
          "name": "reqId",
          "type": "uint256"
        },
        {
          "indexed": false,
          "internalType": "address[]",
          "name": "funders",
          "type": "address[]"
        }
      ],
      "name": "BidsAccepted",
      "type": "event"
    },
    {
      "anonymous": false,
      "inputs": [
        {
          "indexed": false,
          "internalType": "uint256",
          "name": "id",
          "type": "uint256"
        },
        {
          "indexed": false,
          "internalType": "string",
          "name": "name",
          "type": "string"
        },
        {
          "indexed": false,
          "internalType": "string",
          "name": "hash",
          "type": "string"
        }
      ],
      "name": "CategoryCreated",
      "type": "event"
    },
    {
      "anonymous": false,
      "inputs": [
        {
          "indexed": false,
          "internalType": "address",
          "name": "user",
          "type": "address"
        },
        {
          "indexed": false,
          "internalType": "address",
          "name": "funder",
          "type": "address"
        },
        {
          "indexed": false,
          "internalType": "uint256",
          "name": "amount",
          "type": "uint256"
        },
        {
          "indexed": false,
          "internalType": "uint256",
          "name": "percent",
          "type": "uint256"
        }
      ],
      "name": "FundingBidPosted",
      "type": "event"
    },
    {
      "anonymous": false,
      "inputs": [
        {
          "indexed": false,
          "internalType": "address",
          "name": "user",
          "type": "address"
        },
        {
          "indexed": false,
          "internalType": "enum Data.ReqType",
          "name": "reqType",
          "type": "uint8"
        },
        {
          "indexed": false,
          "internalType": "uint256",
          "name": "reqId",
          "type": "uint256"
        }
      ],
      "name": "FundingRequested",
      "type": "event"
    },
    {
      "anonymous": false,
      "inputs": [
        {
          "indexed": false,
          "internalType": "uint256",
          "name": "id",
          "type": "uint256"
        },
        {
          "indexed": false,
          "internalType": "string",
          "name": "postHash",
          "type": "string"
        },
        {
          "indexed": false,
          "internalType": "string",
          "name": "revHash",
          "type": "string"
        }
      ],
      "name": "InitReviewCreated",
      "type": "event"
    },
    {
      "anonymous": false,
      "inputs": [
        {
          "indexed": false,
          "internalType": "uint256",
          "name": "id",
          "type": "uint256"
        },
        {
          "indexed": false,
          "internalType": "string",
          "name": "title",
          "type": "string"
        },
        {
          "indexed": false,
          "internalType": "string",
          "name": "hash",
          "type": "string"
        }
      ],
      "name": "PostCreated",
      "type": "event"
    },
    {
      "anonymous": false,
      "inputs": [
        {
          "indexed": false,
          "internalType": "uint256",
          "name": "id",
          "type": "uint256"
        },
        {
          "indexed": false,
          "internalType": "string",
          "name": "title",
          "type": "string"
        },
        {
          "indexed": false,
          "internalType": "string",
          "name": "hash",
          "type": "string"
        },
        {
          "indexed": false,
          "internalType": "bool",
          "name": "published",
          "type": "bool"
        }
      ],
      "name": "PostUpdated",
      "type": "event"
    },
    {
      "inputs": [
        {
          "internalType": "address",
          "name": "",
          "type": "address"
        },
        {
          "internalType": "uint256",
          "name": "",
          "type": "uint256"
        },
        {
          "internalType": "address",
          "name": "",
          "type": "address"
        }
      ],
      "name": "acceptedBid",
      "outputs": [
        {
          "internalType": "uint256",
          "name": "amountProvided",
          "type": "uint256"
        },
        {
          "internalType": "uint256",
          "name": "bidId",
          "type": "uint256"
        },
        {
          "internalType": "uint256",
          "name": "returnRate",
          "type": "uint256"
        },
        {
          "internalType": "bool",
          "name": "accepted",
          "type": "bool"
        },
        {
          "internalType": "address",
          "name": "bidder",
          "type": "address"
        }
      ],
      "stateMutability": "view",
      "type": "function"
    },
    {
      "inputs": [
        {
          "internalType": "address",
          "name": "",
          "type": "address"
        },
        {
          "internalType": "uint256",
          "name": "",
          "type": "uint256"
        },
        {
          "internalType": "uint256",
          "name": "",
          "type": "uint256"
        }
      ],
      "name": "acceptedBidders",
      "outputs": [
        {
          "internalType": "address",
          "name": "",
          "type": "address"
        }
      ],
      "stateMutability": "view",
      "type": "function"
    },
    {
      "inputs": [
        {
          "internalType": "address",
          "name": "",
          "type": "address"
        },
        {
          "internalType": "string",
          "name": "",
          "type": "string"
        },
        {
          "internalType": "uint256",
          "name": "",
          "type": "uint256"
        }
      ],
      "name": "catPost",
      "outputs": [
        {
          "internalType": "string",
          "name": "postHash",
          "type": "string"
        },
        {
          "internalType": "uint256",
          "name": "catImpact",
          "type": "uint256"
        },
        {
          "internalType": "uint256",
          "name": "postCred",
          "type": "uint256"
        },
        {
          "internalType": "uint256",
          "name": "timestamp",
          "type": "uint256"
        }
      ],
      "stateMutability": "view",
      "type": "function"
    },
    {
      "inputs": [
        {
          "internalType": "address",
          "name": "",
          "type": "address"
        },
        {
          "internalType": "uint256",
          "name": "",
          "type": "uint256"
        },
        {
          "internalType": "address",
          "name": "",
          "type": "address"
        }
      ],
      "name": "fundingBid",
      "outputs": [
        {
          "internalType": "uint256",
          "name": "amountProvided",
          "type": "uint256"
        },
        {
          "internalType": "uint256",
          "name": "bidId",
          "type": "uint256"
        },
        {
          "internalType": "uint256",
          "name": "returnRate",
          "type": "uint256"
        },
        {
          "internalType": "bool",
          "name": "accepted",
          "type": "bool"
        },
        {
          "internalType": "address",
          "name": "bidder",
          "type": "address"
        }
      ],
      "stateMutability": "view",
      "type": "function"
    },
    {
      "inputs": [
        {
          "internalType": "address",
          "name": "",
          "type": "address"
        },
        {
          "internalType": "uint256",
          "name": "",
          "type": "uint256"
        },
        {
          "internalType": "uint256",
          "name": "",
          "type": "uint256"
        }
      ],
      "name": "fundingBidders",
      "outputs": [
        {
          "internalType": "address",
          "name": "",
          "type": "address"
        }
      ],
      "stateMutability": "view",
      "type": "function"
    },
    {
      "inputs": [
        {
          "internalType": "address",
          "name": "",
          "type": "address"
        },
        {
          "internalType": "uint256",
          "name": "",
          "type": "uint256"
        },
        {
          "internalType": "uint256",
          "name": "",
          "type": "uint256"
        }
      ],
      "name": "fundingBids",
      "outputs": [
        {
          "internalType": "uint256",
          "name": "amountProvided",
          "type": "uint256"
        },
        {
          "internalType": "uint256",
          "name": "bidId",
          "type": "uint256"
        },
        {
          "internalType": "uint256",
          "name": "returnRate",
          "type": "uint256"
        },
        {
          "internalType": "bool",
          "name": "accepted",
          "type": "bool"
        },
        {
          "internalType": "address",
          "name": "bidder",
          "type": "address"
        }
      ],
      "stateMutability": "view",
      "type": "function"
    },
    {
      "inputs": [
        {
          "internalType": "address",
          "name": "",
          "type": "address"
        },
        {
          "internalType": "uint256",
          "name": "",
          "type": "uint256"
        }
      ],
      "name": "fundingReq",
      "outputs": [
        {
          "internalType": "uint256",
          "name": "amountRequested",
          "type": "uint256"
        },
        {
          "internalType": "uint256",
          "name": "reqId",
          "type": "uint256"
        },
        {
          "internalType": "uint256",
          "name": "deadline",
          "type": "uint256"
        },
        {
          "internalType": "uint256",
          "name": "returnRate",
          "type": "uint256"
        },
        {
          "internalType": "enum Data.ReqType",
          "name": "reqType",
          "type": "uint8"
        }
      ],
      "stateMutability": "view",
      "type": "function"
    },
    {
      "inputs": [
        {
          "internalType": "address",
          "name": "",
          "type": "address"
        },
        {
          "internalType": "uint256",
          "name": "",
          "type": "uint256"
        }
      ],
      "name": "fundingReqs",
      "outputs": [
        {
          "internalType": "uint256",
          "name": "amountRequested",
          "type": "uint256"
        },
        {
          "internalType": "uint256",
          "name": "reqId",
          "type": "uint256"
        },
        {
          "internalType": "uint256",
          "name": "deadline",
          "type": "uint256"
        },
        {
          "internalType": "uint256",
          "name": "returnRate",
          "type": "uint256"
        },
        {
          "internalType": "enum Data.ReqType",
          "name": "reqType",
          "type": "uint8"
        }
      ],
      "stateMutability": "view",
      "type": "function"
    },
    {
      "inputs": [
        {
          "internalType": "uint256",
          "name": "",
          "type": "uint256"
        }
      ],
      "name": "keys",
      "outputs": [
        {
          "internalType": "address",
          "name": "",
          "type": "address"
        }
      ],
      "stateMutability": "view",
      "type": "function"
    },
    {
      "inputs": [],
      "name": "owner",
      "outputs": [
        {
          "internalType": "address",
          "name": "",
          "type": "address"
        }
      ],
      "stateMutability": "view",
      "type": "function"
    },
    {
      "inputs": [],
      "name": "totalCategoryVotes",
      "outputs": [
        {
          "internalType": "uint256",
          "name": "",
          "type": "uint256"
        }
      ],
      "stateMutability": "view",
      "type": "function"
    },
    {
      "inputs": [
        {
          "internalType": "address",
          "name": "",
          "type": "address"
        }
      ],
      "name": "totalFundingReq",
      "outputs": [
        {
          "internalType": "uint256",
          "name": "",
          "type": "uint256"
        }
      ],
      "stateMutability": "view",
      "type": "function"
    },
    {
      "inputs": [
        {
          "internalType": "address",
          "name": "",
          "type": "address"
        }
      ],
      "name": "userAdded",
      "outputs": [
        {
          "internalType": "bool",
          "name": "",
          "type": "bool"
        }
      ],
      "stateMutability": "view",
      "type": "function"
    },
    {
      "inputs": [
        {
          "internalType": "address",
          "name": "",
          "type": "address"
        },
        {
          "internalType": "uint256",
          "name": "",
          "type": "uint256"
        }
      ],
      "name": "userCats",
      "outputs": [
        {
          "internalType": "string",
          "name": "",
          "type": "string"
        }
      ],
      "stateMutability": "view",
      "type": "function"
    },
    {
      "inputs": [
        {
          "internalType": "address",
          "name": "",
          "type": "address"
        },
        {
          "internalType": "uint256",
          "name": "",
          "type": "uint256"
        }
      ],
      "name": "userFunding",
      "outputs": [
        {
          "internalType": "address",
          "name": "requestingFunds",
          "type": "address"
        },
        {
          "internalType": "address",
          "name": "providingFunds",
          "type": "address"
        },
        {
          "internalType": "uint256",
          "name": "amountProvided",
          "type": "uint256"
        },
        {
          "internalType": "uint256",
          "name": "amountRemaining",
          "type": "uint256"
        },
        {
          "internalType": "uint256",
          "name": "returnRate",
          "type": "uint256"
        },
        {
          "internalType": "bool",
          "name": "accepted",
          "type": "bool"
        },
        {
          "internalType": "bool",
          "name": "withdrawn",
          "type": "bool"
        }
      ],
      "stateMutability": "view",
      "type": "function"
    },
    {
      "inputs": [
        {
          "internalType": "address",
          "name": "",
          "type": "address"
        }
      ],
      "name": "users",
      "outputs": [
        {
          "internalType": "uint256",
          "name": "",
          "type": "uint256"
        }
      ],
      "stateMutability": "view",
      "type": "function"
    }
  ],
  "bytecode": "0x608060405234801561001057600080fd5b5061114e806100206000396000f3fe608060405234801561001057600080fd5b50600436106101005760003560e01c80638144170b11610097578063ce2bfa3d11610066578063ce2bfa3d14610346578063d23c5a1314610376578063d5d23763146103aa578063e66e3df0146103c857610100565b80638144170b146102945780638da5cb5b146102c8578063a4fc1a13146102e6578063a87430ba1461031657610100565b806354db2453116100d357806354db2453146101cd5780635905f8e0146102015780635bd0161f146102315780636bda722b1461026457610100565b80630cb6aaf11461010557806329c73e99146101355780632e2cf7571461016957806336aba8dd1461019d575b600080fd5b61011f600480360381019061011a9190610a58565b6103fe565b60405161012c9190610ac6565b60405180910390f35b61014f600480360381019061014a9190610b0d565b61043d565b604051610160959493929190610b8a565b60405180910390f35b610183600480360381019061017e9190610bdd565b6104ba565b604051610194959493929190610c94565b60405180910390f35b6101b760048036038101906101b29190610ce7565b61051a565b6040516101c49190610d14565b60405180910390f35b6101e760048036038101906101e29190610d2f565b610532565b6040516101f8959493929190610b8a565b60405180910390f35b61021b60048036038101906102169190610d2f565b6105bf565b6040516102289190610ac6565b60405180910390f35b61024b60048036038101906102469190610ec8565b61061a565b60405161025b9493929190610fbf565b60405180910390f35b61027e60048036038101906102799190610ce7565b610712565b60405161028b919061100b565b60405180910390f35b6102ae60048036038101906102a99190610b0d565b610732565b6040516102bf959493929190610b8a565b60405180910390f35b6102d06107af565b6040516102dd9190610ac6565b60405180910390f35b61030060048036038101906102fb9190610bdd565b6107d3565b60405161030d9190611026565b60405180910390f35b610330600480360381019061032b9190610ce7565b61088c565b60405161033d9190610d14565b60405180910390f35b610360600480360381019061035b9190610d2f565b6108a4565b60405161036d9190610ac6565b60405180910390f35b610390600480360381019061038b9190610bdd565b6108ff565b6040516103a1959493929190610c94565b60405180910390f35b6103b261094f565b6040516103bf9190610d14565b60405180910390f35b6103e260048036038101906103dd9190610bdd565b610955565b6040516103f59796959493929190611048565b60405180910390f35b600f818154811061040e57600080fd5b906000526020600020016000915054906101000a900473ffffffffffffffffffffffffffffffffffffffff1681565b601760205282600052604060002060205281600052604060002060205280600052604060002060009250925050508060000154908060010154908060020154908060030160009054906101000a900460ff16908060030160019054906101000a900473ffffffffffffffffffffffffffffffffffffffff16905085565b601260205281600052604060002081815481106104d657600080fd5b9060005260206000209060050201600091509150508060000154908060010154908060020154908060030154908060040160009054906101000a900460ff16905085565b600c6020528060005260406000206000915090505481565b6013602052826000526040600020602052816000526040600020818154811061055a57600080fd5b906000526020600020906004020160009250925050508060000154908060010154908060020154908060030160009054906101000a900460ff16908060030160019054906101000a900473ffffffffffffffffffffffffffffffffffffffff16905085565b601460205282600052604060002060205281600052604060002081815481106105e757600080fd5b90600052602060002001600092509250509054906101000a900473ffffffffffffffffffffffffffffffffffffffff1681565b600260205282600052604060002082805160208101820180518482526020830160208501208183528095505050505050818154811061065857600080fd5b9060005260206000209060040201600092509250505080600001805461067d906110e6565b80601f01602080910402602001604051908101604052809291908181526020018280546106a9906110e6565b80156106f65780601f106106cb576101008083540402835291602001916106f6565b820191906000526020600020905b8154815290600101906020018083116106d957829003601f168201915b5050505050908060010154908060020154908060030154905084565b600e6020528060005260406000206000915054906101000a900460ff1681565b601660205282600052604060002060205281600052604060002060205280600052604060002060009250925050508060000154908060010154908060020154908060030160009054906101000a900460ff16908060030160019054906101000a900473ffffffffffffffffffffffffffffffffffffffff16905085565b60008054906101000a900473ffffffffffffffffffffffffffffffffffffffff1681565b600360205281600052604060002081815481106107ef57600080fd5b9060005260206000200160009150915050805461080b906110e6565b80601f0160208091040260200160405190810160405280929190818152602001828054610837906110e6565b80156108845780601f1061085957610100808354040283529160200191610884565b820191906000526020600020905b81548152906001019060200180831161086757829003601f168201915b505050505081565b600d6020528060005260406000206000915090505481565b601560205282600052604060002060205281600052604060002081815481106108cc57600080fd5b90600052602060002001600092509250509054906101000a900473ffffffffffffffffffffffffffffffffffffffff1681565b6011602052816000526040600020602052806000526040600020600091509150508060000154908060010154908060020154908060030154908060040160009054906101000a900460ff16905085565b60015481565b6010602052816000526040600020818154811061097157600080fd5b9060005260206000209060060201600091509150508060000160009054906101000a900473ffffffffffffffffffffffffffffffffffffffff16908060010160009054906101000a900473ffffffffffffffffffffffffffffffffffffffff16908060020154908060030154908060040154908060050160009054906101000a900460ff16908060050160019054906101000a900460ff16905087565b6000604051905090565b600080fd5b600080fd5b6000819050919050565b610a3581610a22565b8114610a4057600080fd5b50565b600081359050610a5281610a2c565b92915050565b600060208284031215610a6e57610a6d610a18565b5b6000610a7c84828501610a43565b91505092915050565b600073ffffffffffffffffffffffffffffffffffffffff82169050919050565b6000610ab082610a85565b9050919050565b610ac081610aa5565b82525050565b6000602082019050610adb6000830184610ab7565b92915050565b610aea81610aa5565b8114610af557600080fd5b50565b600081359050610b0781610ae1565b92915050565b600080600060608486031215610b2657610b25610a18565b5b6000610b3486828701610af8565b9350506020610b4586828701610a43565b9250506040610b5686828701610af8565b9150509250925092565b610b6981610a22565b82525050565b60008115159050919050565b610b8481610b6f565b82525050565b600060a082019050610b9f6000830188610b60565b610bac6020830187610b60565b610bb96040830186610b60565b610bc66060830185610b7b565b610bd36080830184610ab7565b9695505050505050565b60008060408385031215610bf457610bf3610a18565b5b6000610c0285828601610af8565b9250506020610c1385828601610a43565b9150509250929050565b7f4e487b7100000000000000000000000000000000000000000000000000000000600052602160045260246000fd5b60048110610c5d57610c5c610c1d565b5b50565b6000819050610c6e82610c4c565b919050565b6000610c7e82610c60565b9050919050565b610c8e81610c73565b82525050565b600060a082019050610ca96000830188610b60565b610cb66020830187610b60565b610cc36040830186610b60565b610cd06060830185610b60565b610cdd6080830184610c85565b9695505050505050565b600060208284031215610cfd57610cfc610a18565b5b6000610d0b84828501610af8565b91505092915050565b6000602082019050610d296000830184610b60565b92915050565b600080600060608486031215610d4857610d47610a18565b5b6000610d5686828701610af8565b9350506020610d6786828701610a43565b9250506040610d7886828701610a43565b9150509250925092565b600080fd5b600080fd5b6000601f19601f8301169050919050565b7f4e487b7100000000000000000000000000000000000000000000000000000000600052604160045260246000fd5b610dd582610d8c565b810181811067ffffffffffffffff82111715610df457610df3610d9d565b5b80604052505050565b6000610e07610a0e565b9050610e138282610dcc565b919050565b600067ffffffffffffffff821115610e3357610e32610d9d565b5b610e3c82610d8c565b9050602081019050919050565b82818337600083830152505050565b6000610e6b610e6684610e18565b610dfd565b905082815260208101848484011115610e8757610e86610d87565b5b610e92848285610e49565b509392505050565b600082601f830112610eaf57610eae610d82565b5b8135610ebf848260208601610e58565b91505092915050565b600080600060608486031215610ee157610ee0610a18565b5b6000610eef86828701610af8565b935050602084013567ffffffffffffffff811115610f1057610f0f610a1d565b5b610f1c86828701610e9a565b9250506040610f2d86828701610a43565b9150509250925092565b600081519050919050565b600082825260208201905092915050565b60005b83811015610f71578082015181840152602081019050610f56565b83811115610f80576000848401525b50505050565b6000610f9182610f37565b610f9b8185610f42565b9350610fab818560208601610f53565b610fb481610d8c565b840191505092915050565b60006080820190508181036000830152610fd98187610f86565b9050610fe86020830186610b60565b610ff56040830185610b60565b6110026060830184610b60565b95945050505050565b60006020820190506110206000830184610b7b565b92915050565b600060208201905081810360008301526110408184610f86565b905092915050565b600060e08201905061105d600083018a610ab7565b61106a6020830189610ab7565b6110776040830188610b60565b6110846060830187610b60565b6110916080830186610b60565b61109e60a0830185610b7b565b6110ab60c0830184610b7b565b98975050505050505050565b7f4e487b7100000000000000000000000000000000000000000000000000000000600052602260045260246000fd5b600060028204905060018216806110fe57607f821691505b60208210811415611112576111116110b7565b5b5091905056fea2646970667358221220dc8ae97a7a0ccc3bc62646dc15e2efc25cd165756e867414f27f2bd8285c82d664736f6c634300080c0033",
  "linkReferences": {},
  "deployedLinkReferences": {}
}