{
  "_format": "hh-sol-artifact-1",
  "contractName": "Posts",
  "sourceName": "contracts/Posts.sol",
  "abi": [
    {
      "anonymous": false,
      "inputs": [
        {
          "indexed": false,
          "internalType": "address",
          "name": "user",
          "type": "address"
        },
        {
          "indexed": false,
          "internalType": "uint256",
          "name": "reqId",
          "type": "uint256"
        },
        {
          "indexed": false,
          "internalType": "address[]",
          "name": "funders",
          "type": "address[]"
        }
      ],
      "name": "BidsAccepted",
      "type": "event"
    },
    {
      "anonymous": false,
      "inputs": [
        {
          "indexed": false,
          "internalType": "uint256",
          "name": "id",
          "type": "uint256"
        },
        {
          "indexed": false,
          "internalType": "string",
          "name": "name",
          "type": "string"
        },
        {
          "indexed": false,
          "internalType": "string",
          "name": "hash",
          "type": "string"
        }
      ],
      "name": "CategoryCreated",
      "type": "event"
    },
    {
      "anonymous": false,
      "inputs": [
        {
          "indexed": false,
          "internalType": "address",
          "name": "user",
          "type": "address"
        },
        {
          "indexed": false,
          "internalType": "address",
          "name": "funder",
          "type": "address"
        },
        {
          "indexed": false,
          "internalType": "uint256",
          "name": "amount",
          "type": "uint256"
        },
        {
          "indexed": false,
          "internalType": "uint256",
          "name": "percent",
          "type": "uint256"
        }
      ],
      "name": "FundingBidPosted",
      "type": "event"
    },
    {
      "anonymous": false,
      "inputs": [
        {
          "indexed": false,
          "internalType": "address",
          "name": "user",
          "type": "address"
        },
        {
          "indexed": false,
          "internalType": "enum Data.ReqType",
          "name": "reqType",
          "type": "uint8"
        },
        {
          "indexed": false,
          "internalType": "uint256",
          "name": "reqId",
          "type": "uint256"
        }
      ],
      "name": "FundingRequested",
      "type": "event"
    },
    {
      "anonymous": false,
      "inputs": [
        {
          "indexed": false,
          "internalType": "uint256",
          "name": "id",
          "type": "uint256"
        },
        {
          "indexed": false,
          "internalType": "string",
          "name": "postHash",
          "type": "string"
        },
        {
          "indexed": false,
          "internalType": "string",
          "name": "revHash",
          "type": "string"
        }
      ],
      "name": "InitReviewCreated",
      "type": "event"
    },
    {
      "anonymous": false,
      "inputs": [
        {
          "indexed": false,
          "internalType": "uint256",
          "name": "id",
          "type": "uint256"
        },
        {
          "indexed": false,
          "internalType": "string",
          "name": "title",
          "type": "string"
        },
        {
          "indexed": false,
          "internalType": "string",
          "name": "hash",
          "type": "string"
        }
      ],
      "name": "PostCreated",
      "type": "event"
    },
    {
      "anonymous": false,
      "inputs": [
        {
          "indexed": false,
          "internalType": "uint256",
          "name": "id",
          "type": "uint256"
        },
        {
          "indexed": false,
          "internalType": "string",
          "name": "title",
          "type": "string"
        },
        {
          "indexed": false,
          "internalType": "string",
          "name": "hash",
          "type": "string"
        },
        {
          "indexed": false,
          "internalType": "bool",
          "name": "published",
          "type": "bool"
        }
      ],
      "name": "PostUpdated",
      "type": "event"
    },
    {
      "inputs": [
        {
          "internalType": "address",
          "name": "",
          "type": "address"
        },
        {
          "internalType": "uint256",
          "name": "",
          "type": "uint256"
        },
        {
          "internalType": "address",
          "name": "",
          "type": "address"
        }
      ],
      "name": "acceptedBid",
      "outputs": [
        {
          "internalType": "uint256",
          "name": "amountProvided",
          "type": "uint256"
        },
        {
          "internalType": "uint256",
          "name": "bidId",
          "type": "uint256"
        },
        {
          "internalType": "uint256",
          "name": "returnRate",
          "type": "uint256"
        },
        {
          "internalType": "bool",
          "name": "accepted",
          "type": "bool"
        },
        {
          "internalType": "address",
          "name": "bidder",
          "type": "address"
        }
      ],
      "stateMutability": "view",
      "type": "function"
    },
    {
      "inputs": [
        {
          "internalType": "address",
          "name": "",
          "type": "address"
        },
        {
          "internalType": "uint256",
          "name": "",
          "type": "uint256"
        },
        {
          "internalType": "uint256",
          "name": "",
          "type": "uint256"
        }
      ],
      "name": "acceptedBidders",
      "outputs": [
        {
          "internalType": "address",
          "name": "",
          "type": "address"
        }
      ],
      "stateMutability": "view",
      "type": "function"
    },
    {
      "inputs": [
        {
          "internalType": "address",
          "name": "",
          "type": "address"
        },
        {
          "internalType": "string",
          "name": "",
          "type": "string"
        },
        {
          "internalType": "uint256",
          "name": "",
          "type": "uint256"
        }
      ],
      "name": "catPost",
      "outputs": [
        {
          "internalType": "string",
          "name": "postHash",
          "type": "string"
        },
        {
          "internalType": "uint256",
          "name": "catImpact",
          "type": "uint256"
        },
        {
          "internalType": "uint256",
          "name": "postCred",
          "type": "uint256"
        },
        {
          "internalType": "uint256",
          "name": "timestamp",
          "type": "uint256"
        }
      ],
      "stateMutability": "view",
      "type": "function"
    },
    {
      "inputs": [
        {
          "internalType": "string",
          "name": "_title",
          "type": "string"
        },
        {
          "internalType": "string",
          "name": "_hash",
          "type": "string"
        },
        {
          "components": [
            {
              "internalType": "address",
              "name": "author",
              "type": "address"
            },
            {
              "internalType": "string",
              "name": "authorName",
              "type": "string"
            },
            {
              "internalType": "uint256",
              "name": "authorWeight",
              "type": "uint256"
            }
          ],
          "internalType": "struct Data.PostAuthors[]",
          "name": "_authors",
          "type": "tuple[]"
        }
      ],
      "name": "createPost",
      "outputs": [],
      "stateMutability": "nonpayable",
      "type": "function"
    },
    {
      "inputs": [
        {
          "internalType": "string",
          "name": "_hash",
          "type": "string"
        }
      ],
      "name": "fetchPost",
      "outputs": [
        {
          "components": [
            {
              "internalType": "address[]",
              "name": "reviewsList",
              "type": "address[]"
            },
            {
              "components": [
                {
                  "internalType": "string",
                  "name": "catId",
                  "type": "string"
                },
                {
                  "internalType": "uint256",
                  "name": "impact",
                  "type": "uint256"
                }
              ],
              "internalType": "struct Data.PostCategories[]",
              "name": "postCat",
              "type": "tuple[]"
            },
            {
              "components": [
                {
                  "internalType": "uint256",
                  "name": "id",
                  "type": "uint256"
                },
                {
                  "internalType": "string",
                  "name": "contentHash",
                  "type": "string"
                },
                {
                  "internalType": "uint256",
                  "name": "percentInfluence",
                  "type": "uint256"
                }
              ],
              "internalType": "struct Data.PostInflueces[]",
              "name": "postInf",
              "type": "tuple[]"
            },
            {
              "components": [
                {
                  "internalType": "address",
                  "name": "author",
                  "type": "address"
                },
                {
                  "internalType": "string",
                  "name": "authorName",
                  "type": "string"
                },
                {
                  "internalType": "uint256",
                  "name": "authorWeight",
                  "type": "uint256"
                }
              ],
              "internalType": "struct Data.PostAuthors[]",
              "name": "postAuth",
              "type": "tuple[]"
            },
            {
              "components": [
                {
                  "components": [
                    {
                      "internalType": "uint256",
                      "name": "id",
                      "type": "uint256"
                    },
                    {
                      "internalType": "string",
                      "name": "contentHash",
                      "type": "string"
                    },
                    {
                      "internalType": "uint256",
                      "name": "percentInfluence",
                      "type": "uint256"
                    }
                  ],
                  "internalType": "struct Data.PostReviewInflueces[]",
                  "name": "reviewInfluence",
                  "type": "tuple[]"
                },
                {
                  "components": [
                    {
                      "internalType": "string",
                      "name": "catId",
                      "type": "string"
                    },
                    {
                      "internalType": "uint256",
                      "name": "impact",
                      "type": "uint256"
                    }
                  ],
                  "internalType": "struct Data.PostReviewCategories[]",
                  "name": "reviewCat",
                  "type": "tuple[]"
                },
                {
                  "components": [
                    {
                      "internalType": "address",
                      "name": "author",
                      "type": "address"
                    },
                    {
                      "internalType": "uint256",
                      "name": "authorWeight",
                      "type": "uint256"
                    }
                  ],
                  "internalType": "struct Data.PostReviewAuthors[]",
                  "name": "reviewAuthor",
                  "type": "tuple[]"
                },
                {
                  "internalType": "address",
                  "name": "reviewer",
                  "type": "address"
                },
                {
                  "internalType": "string",
                  "name": "reviewHash",
                  "type": "string"
                },
                {
                  "internalType": "uint256",
                  "name": "reviewerTotalWeight",
                  "type": "uint256"
                },
                {
                  "internalType": "uint256",
                  "name": "reviewerCatWeight",
                  "type": "uint256"
                },
                {
                  "internalType": "bool",
                  "name": "accepted",
                  "type": "bool"
                },
                {
                  "internalType": "uint256",
                  "name": "expectedReviewPercent",
                  "type": "uint256"
                }
              ],
              "internalType": "struct Data.PostReview[]",
              "name": "postReview",
              "type": "tuple[]"
            },
            {
              "internalType": "string",
              "name": "title",
              "type": "string"
            },
            {
              "internalType": "string",
              "name": "contentHash",
              "type": "string"
            },
            {
              "internalType": "string",
              "name": "initReviewtHash",
              "type": "string"
            },
            {
              "internalType": "uint256",
              "name": "reqExpertise",
              "type": "uint256"
            },
            {
              "internalType": "uint256",
              "name": "lockExpiration",
              "type": "uint256"
            },
            {
              "internalType": "uint256",
              "name": "IS",
              "type": "uint256"
            },
            {
              "internalType": "uint256",
              "name": "postValue",
              "type": "uint256"
            },
            {
              "internalType": "uint256",
              "name": "timestamp",
              "type": "uint256"
            },
            {
              "internalType": "uint256",
              "name": "id",
              "type": "uint256"
            },
            {
              "internalType": "uint256",
              "name": "CrS",
              "type": "uint256"
            },
            {
              "internalType": "bool",
              "name": "initialReview",
              "type": "bool"
            },
            {
              "internalType": "bool",
              "name": "challenged",
              "type": "bool"
            }
          ],
          "internalType": "struct Data.Post",
          "name": "",
          "type": "tuple"
        }
      ],
      "stateMutability": "view",
      "type": "function"
    },
    {
      "inputs": [],
      "name": "fetchPosts",
      "outputs": [
        {
          "components": [
            {
              "internalType": "address[]",
              "name": "reviewsList",
              "type": "address[]"
            },
            {
              "components": [
                {
                  "internalType": "string",
                  "name": "catId",
                  "type": "string"
                },
                {
                  "internalType": "uint256",
                  "name": "impact",
                  "type": "uint256"
                }
              ],
              "internalType": "struct Data.PostCategories[]",
              "name": "postCat",
              "type": "tuple[]"
            },
            {
              "components": [
                {
                  "internalType": "uint256",
                  "name": "id",
                  "type": "uint256"
                },
                {
                  "internalType": "string",
                  "name": "contentHash",
                  "type": "string"
                },
                {
                  "internalType": "uint256",
                  "name": "percentInfluence",
                  "type": "uint256"
                }
              ],
              "internalType": "struct Data.PostInflueces[]",
              "name": "postInf",
              "type": "tuple[]"
            },
            {
              "components": [
                {
                  "internalType": "address",
                  "name": "author",
                  "type": "address"
                },
                {
                  "internalType": "string",
                  "name": "authorName",
                  "type": "string"
                },
                {
                  "internalType": "uint256",
                  "name": "authorWeight",
                  "type": "uint256"
                }
              ],
              "internalType": "struct Data.PostAuthors[]",
              "name": "postAuth",
              "type": "tuple[]"
            },
            {
              "components": [
                {
                  "components": [
                    {
                      "internalType": "uint256",
                      "name": "id",
                      "type": "uint256"
                    },
                    {
                      "internalType": "string",
                      "name": "contentHash",
                      "type": "string"
                    },
                    {
                      "internalType": "uint256",
                      "name": "percentInfluence",
                      "type": "uint256"
                    }
                  ],
                  "internalType": "struct Data.PostReviewInflueces[]",
                  "name": "reviewInfluence",
                  "type": "tuple[]"
                },
                {
                  "components": [
                    {
                      "internalType": "string",
                      "name": "catId",
                      "type": "string"
                    },
                    {
                      "internalType": "uint256",
                      "name": "impact",
                      "type": "uint256"
                    }
                  ],
                  "internalType": "struct Data.PostReviewCategories[]",
                  "name": "reviewCat",
                  "type": "tuple[]"
                },
                {
                  "components": [
                    {
                      "internalType": "address",
                      "name": "author",
                      "type": "address"
                    },
                    {
                      "internalType": "uint256",
                      "name": "authorWeight",
                      "type": "uint256"
                    }
                  ],
                  "internalType": "struct Data.PostReviewAuthors[]",
                  "name": "reviewAuthor",
                  "type": "tuple[]"
                },
                {
                  "internalType": "address",
                  "name": "reviewer",
                  "type": "address"
                },
                {
                  "internalType": "string",
                  "name": "reviewHash",
                  "type": "string"
                },
                {
                  "internalType": "uint256",
                  "name": "reviewerTotalWeight",
                  "type": "uint256"
                },
                {
                  "internalType": "uint256",
                  "name": "reviewerCatWeight",
                  "type": "uint256"
                },
                {
                  "internalType": "bool",
                  "name": "accepted",
                  "type": "bool"
                },
                {
                  "internalType": "uint256",
                  "name": "expectedReviewPercent",
                  "type": "uint256"
                }
              ],
              "internalType": "struct Data.PostReview[]",
              "name": "postReview",
              "type": "tuple[]"
            },
            {
              "internalType": "string",
              "name": "title",
              "type": "string"
            },
            {
              "internalType": "string",
              "name": "contentHash",
              "type": "string"
            },
            {
              "internalType": "string",
              "name": "initReviewtHash",
              "type": "string"
            },
            {
              "internalType": "uint256",
              "name": "reqExpertise",
              "type": "uint256"
            },
            {
              "internalType": "uint256",
              "name": "lockExpiration",
              "type": "uint256"
            },
            {
              "internalType": "uint256",
              "name": "IS",
              "type": "uint256"
            },
            {
              "internalType": "uint256",
              "name": "postValue",
              "type": "uint256"
            },
            {
              "internalType": "uint256",
              "name": "timestamp",
              "type": "uint256"
            },
            {
              "internalType": "uint256",
              "name": "id",
              "type": "uint256"
            },
            {
              "internalType": "uint256",
              "name": "CrS",
              "type": "uint256"
            },
            {
              "internalType": "bool",
              "name": "initialReview",
              "type": "bool"
            },
            {
              "internalType": "bool",
              "name": "challenged",
              "type": "bool"
            }
          ],
          "internalType": "struct Data.Post[]",
          "name": "",
          "type": "tuple[]"
        }
      ],
      "stateMutability": "view",
      "type": "function"
    },
    {
      "inputs": [
        {
          "internalType": "address",
          "name": "",
          "type": "address"
        },
        {
          "internalType": "uint256",
          "name": "",
          "type": "uint256"
        },
        {
          "internalType": "address",
          "name": "",
          "type": "address"
        }
      ],
      "name": "fundingBid",
      "outputs": [
        {
          "internalType": "uint256",
          "name": "amountProvided",
          "type": "uint256"
        },
        {
          "internalType": "uint256",
          "name": "bidId",
          "type": "uint256"
        },
        {
          "internalType": "uint256",
          "name": "returnRate",
          "type": "uint256"
        },
        {
          "internalType": "bool",
          "name": "accepted",
          "type": "bool"
        },
        {
          "internalType": "address",
          "name": "bidder",
          "type": "address"
        }
      ],
      "stateMutability": "view",
      "type": "function"
    },
    {
      "inputs": [
        {
          "internalType": "address",
          "name": "",
          "type": "address"
        },
        {
          "internalType": "uint256",
          "name": "",
          "type": "uint256"
        },
        {
          "internalType": "uint256",
          "name": "",
          "type": "uint256"
        }
      ],
      "name": "fundingBidders",
      "outputs": [
        {
          "internalType": "address",
          "name": "",
          "type": "address"
        }
      ],
      "stateMutability": "view",
      "type": "function"
    },
    {
      "inputs": [
        {
          "internalType": "address",
          "name": "",
          "type": "address"
        },
        {
          "internalType": "uint256",
          "name": "",
          "type": "uint256"
        },
        {
          "internalType": "uint256",
          "name": "",
          "type": "uint256"
        }
      ],
      "name": "fundingBids",
      "outputs": [
        {
          "internalType": "uint256",
          "name": "amountProvided",
          "type": "uint256"
        },
        {
          "internalType": "uint256",
          "name": "bidId",
          "type": "uint256"
        },
        {
          "internalType": "uint256",
          "name": "returnRate",
          "type": "uint256"
        },
        {
          "internalType": "bool",
          "name": "accepted",
          "type": "bool"
        },
        {
          "internalType": "address",
          "name": "bidder",
          "type": "address"
        }
      ],
      "stateMutability": "view",
      "type": "function"
    },
    {
      "inputs": [
        {
          "internalType": "address",
          "name": "",
          "type": "address"
        },
        {
          "internalType": "uint256",
          "name": "",
          "type": "uint256"
        }
      ],
      "name": "fundingReq",
      "outputs": [
        {
          "internalType": "uint256",
          "name": "amountRequested",
          "type": "uint256"
        },
        {
          "internalType": "uint256",
          "name": "reqId",
          "type": "uint256"
        },
        {
          "internalType": "uint256",
          "name": "deadline",
          "type": "uint256"
        },
        {
          "internalType": "uint256",
          "name": "returnRate",
          "type": "uint256"
        },
        {
          "internalType": "enum Data.ReqType",
          "name": "reqType",
          "type": "uint8"
        }
      ],
      "stateMutability": "view",
      "type": "function"
    },
    {
      "inputs": [
        {
          "internalType": "address",
          "name": "",
          "type": "address"
        },
        {
          "internalType": "uint256",
          "name": "",
          "type": "uint256"
        }
      ],
      "name": "fundingReqs",
      "outputs": [
        {
          "internalType": "uint256",
          "name": "amountRequested",
          "type": "uint256"
        },
        {
          "internalType": "uint256",
          "name": "reqId",
          "type": "uint256"
        },
        {
          "internalType": "uint256",
          "name": "deadline",
          "type": "uint256"
        },
        {
          "internalType": "uint256",
          "name": "returnRate",
          "type": "uint256"
        },
        {
          "internalType": "enum Data.ReqType",
          "name": "reqType",
          "type": "uint8"
        }
      ],
      "stateMutability": "view",
      "type": "function"
    },
    {
      "inputs": [
        {
          "internalType": "uint256",
          "name": "",
          "type": "uint256"
        }
      ],
      "name": "keys",
      "outputs": [
        {
          "internalType": "address",
          "name": "",
          "type": "address"
        }
      ],
      "stateMutability": "view",
      "type": "function"
    },
    {
      "inputs": [],
      "name": "owner",
      "outputs": [
        {
          "internalType": "address",
          "name": "",
          "type": "address"
        }
      ],
      "stateMutability": "view",
      "type": "function"
    },
    {
      "inputs": [],
      "name": "totalCategoryVotes",
      "outputs": [
        {
          "internalType": "uint256",
          "name": "",
          "type": "uint256"
        }
      ],
      "stateMutability": "view",
      "type": "function"
    },
    {
      "inputs": [
        {
          "internalType": "address",
          "name": "",
          "type": "address"
        }
      ],
      "name": "totalFundingReq",
      "outputs": [
        {
          "internalType": "uint256",
          "name": "",
          "type": "uint256"
        }
      ],
      "stateMutability": "view",
      "type": "function"
    },
    {
      "inputs": [
        {
          "internalType": "address",
          "name": "",
          "type": "address"
        }
      ],
      "name": "userAdded",
      "outputs": [
        {
          "internalType": "bool",
          "name": "",
          "type": "bool"
        }
      ],
      "stateMutability": "view",
      "type": "function"
    },
    {
      "inputs": [
        {
          "internalType": "address",
          "name": "",
          "type": "address"
        },
        {
          "internalType": "uint256",
          "name": "",
          "type": "uint256"
        }
      ],
      "name": "userCats",
      "outputs": [
        {
          "internalType": "string",
          "name": "",
          "type": "string"
        }
      ],
      "stateMutability": "view",
      "type": "function"
    },
    {
      "inputs": [
        {
          "internalType": "address",
          "name": "",
          "type": "address"
        },
        {
          "internalType": "uint256",
          "name": "",
          "type": "uint256"
        }
      ],
      "name": "userFunding",
      "outputs": [
        {
          "internalType": "address",
          "name": "requestingFunds",
          "type": "address"
        },
        {
          "internalType": "address",
          "name": "providingFunds",
          "type": "address"
        },
        {
          "internalType": "uint256",
          "name": "amountProvided",
          "type": "uint256"
        },
        {
          "internalType": "uint256",
          "name": "amountRemaining",
          "type": "uint256"
        },
        {
          "internalType": "uint256",
          "name": "returnRate",
          "type": "uint256"
        },
        {
          "internalType": "bool",
          "name": "accepted",
          "type": "bool"
        },
        {
          "internalType": "bool",
          "name": "withdrawn",
          "type": "bool"
        }
      ],
      "stateMutability": "view",
      "type": "function"
    },
    {
      "inputs": [
        {
          "internalType": "address",
          "name": "",
          "type": "address"
        }
      ],
      "name": "users",
      "outputs": [
        {
          "internalType": "uint256",
          "name": "",
          "type": "uint256"
        }
      ],
      "stateMutability": "view",
      "type": "function"
    }
  ],
  "bytecode": "0x608060405234801561001057600080fd5b506147e3806100206000396000f3fe608060405234801561001057600080fd5b50600436106101215760003560e01c80638144170b116100ad578063adcb45fb11610071578063adcb45fb146103b5578063ce2bfa3d146103d1578063d23c5a1314610401578063d5d2376314610435578063e66e3df01461045357610121565b80638144170b146102e55780638da5cb5b14610319578063a4fc1a1314610337578063a87430ba14610367578063abaddd7f1461039757610121565b806344828659116100f457806344828659146101ee57806354db24531461021e5780635905f8e0146102525780635bd0161f146102825780636bda722b146102b557610121565b80630cb6aaf11461012657806329c73e99146101565780632e2cf7571461018a57806336aba8dd146101be575b600080fd5b610140600480360381019061013b9190612fe2565b610489565b60405161014d9190613050565b60405180910390f35b610170600480360381019061016b9190613097565b6104c8565b604051610181959493929190613114565b60405180910390f35b6101a4600480360381019061019f9190613167565b610545565b6040516101b595949392919061321e565b60405180910390f35b6101d860048036038101906101d39190613271565b6105a5565b6040516101e5919061329e565b60405180910390f35b610208600480360381019061020391906133ff565b6105bd565b6040516102159190613ef8565b60405180910390f35b61023860048036038101906102339190613f1a565b611047565b604051610249959493929190613114565b60405180910390f35b61026c60048036038101906102679190613f1a565b6110d4565b6040516102799190613050565b60405180910390f35b61029c60048036038101906102979190613f6d565b61112f565b6040516102ac9493929190614026565b60405180910390f35b6102cf60048036038101906102ca9190613271565b611227565b6040516102dc9190614072565b60405180910390f35b6102ff60048036038101906102fa9190613097565b611247565b604051610310959493929190613114565b60405180910390f35b6103216112c4565b60405161032e9190613050565b60405180910390f35b610351600480360381019061034c9190613167565b6112e8565b60405161035e919061408d565b60405180910390f35b610381600480360381019061037c9190613271565b6113a1565b60405161038e919061329e565b60405180910390f35b61039f6113b9565b6040516103ac919061430f565b60405180910390f35b6103cf60048036038101906103ca91906144a1565b611eee565b005b6103eb60048036038101906103e69190613f1a565b612405565b6040516103f89190613050565b60405180910390f35b61041b60048036038101906104169190613167565b612460565b60405161042c95949392919061321e565b60405180910390f35b61043d6124b0565b60405161044a919061329e565b60405180910390f35b61046d60048036038101906104689190613167565b6124b6565b6040516104809796959493929190614548565b60405180910390f35b600f818154811061049957600080fd5b906000526020600020016000915054906101000a900473ffffffffffffffffffffffffffffffffffffffff1681565b601760205282600052604060002060205281600052604060002060205280600052604060002060009250925050508060000154908060010154908060020154908060030160009054906101000a900460ff16908060030160019054906101000a900473ffffffffffffffffffffffffffffffffffffffff16905085565b6012602052816000526040600020818154811061056157600080fd5b9060005260206000209060050201600091509150508060000154908060010154908060020154908060030154908060040160009054906101000a900460ff16905085565b600c6020528060005260406000206000915090505481565b6105c5612593565b6005826040516105d591906145f3565b9081526020016040518091039020604051806102200160405290816000820180548060200260200160405190810160405280929190818152602001828054801561067457602002820191906000526020600020905b8160009054906101000a900473ffffffffffffffffffffffffffffffffffffffff1673ffffffffffffffffffffffffffffffffffffffff168152602001906001019080831161062a575b5050505050815260200160018201805480602002602001604051908101604052809291908181526020016000905b8282101561077057838290600052602060002090600202016040518060400160405290816000820180546106d590614639565b80601f016020809104026020016040519081016040528092919081815260200182805461070190614639565b801561074e5780601f106107235761010080835404028352916020019161074e565b820191906000526020600020905b81548152906001019060200180831161073157829003601f168201915b50505050508152602001600182015481525050815260200190600101906106a2565b50505050815260200160028201805480602002602001604051908101604052809291908181526020016000905b828210156108755783829060005260206000209060030201604051806060016040529081600082015481526020016001820180546107da90614639565b80601f016020809104026020016040519081016040528092919081815260200182805461080690614639565b80156108535780601f1061082857610100808354040283529160200191610853565b820191906000526020600020905b81548152906001019060200180831161083657829003601f168201915b505050505081526020016002820154815250508152602001906001019061079d565b50505050815260200160038201805480602002602001604051908101604052809291908181526020016000905b828210156109c657838290600052602060002090600302016040518060600160405290816000820160009054906101000a900473ffffffffffffffffffffffffffffffffffffffff1673ffffffffffffffffffffffffffffffffffffffff1673ffffffffffffffffffffffffffffffffffffffff16815260200160018201805461092b90614639565b80601f016020809104026020016040519081016040528092919081815260200182805461095790614639565b80156109a45780601f10610979576101008083540402835291602001916109a4565b820191906000526020600020905b81548152906001019060200180831161098757829003601f168201915b50505050508152602001600282015481525050815260200190600101906108a2565b50505050815260200160048201805480602002602001604051908101604052809291908181526020016000905b82821015610e0657838290600052602060002090600902016040518061012001604052908160008201805480602002602001604051908101604052809291908181526020016000905b82821015610b14578382906000526020600020906003020160405180606001604052908160008201548152602001600182018054610a7990614639565b80601f0160208091040260200160405190810160405280929190818152602001828054610aa590614639565b8015610af25780601f10610ac757610100808354040283529160200191610af2565b820191906000526020600020905b815481529060010190602001808311610ad557829003601f168201915b5050505050815260200160028201548152505081526020019060010190610a3c565b50505050815260200160018201805480602002602001604051908101604052809291908181526020016000905b82821015610c0f5783829060005260206000209060020201604051806040016040529081600082018054610b7490614639565b80601f0160208091040260200160405190810160405280929190818152602001828054610ba090614639565b8015610bed5780601f10610bc257610100808354040283529160200191610bed565b820191906000526020600020905b815481529060010190602001808311610bd057829003601f168201915b5050505050815260200160018201548152505081526020019060010190610b41565b50505050815260200160028201805480602002602001604051908101604052809291908181526020016000905b82821015610cce57838290600052602060002090600202016040518060400160405290816000820160009054906101000a900473ffffffffffffffffffffffffffffffffffffffff1673ffffffffffffffffffffffffffffffffffffffff1673ffffffffffffffffffffffffffffffffffffffff16815260200160018201548152505081526020019060010190610c3c565b5050505081526020016003820160009054906101000a900473ffffffffffffffffffffffffffffffffffffffff1673ffffffffffffffffffffffffffffffffffffffff1673ffffffffffffffffffffffffffffffffffffffff168152602001600482018054610d3c90614639565b80601f0160208091040260200160405190810160405280929190818152602001828054610d6890614639565b8015610db55780601f10610d8a57610100808354040283529160200191610db5565b820191906000526020600020905b815481529060010190602001808311610d9857829003601f168201915b5050505050815260200160058201548152602001600682015481526020016007820160009054906101000a900460ff16151515158152602001600882015481525050815260200190600101906109f3565b505050508152602001600582018054610e1e90614639565b80601f0160208091040260200160405190810160405280929190818152602001828054610e4a90614639565b8015610e975780601f10610e6c57610100808354040283529160200191610e97565b820191906000526020600020905b815481529060010190602001808311610e7a57829003601f168201915b50505050508152602001600682018054610eb090614639565b80601f0160208091040260200160405190810160405280929190818152602001828054610edc90614639565b8015610f295780601f10610efe57610100808354040283529160200191610f29565b820191906000526020600020905b815481529060010190602001808311610f0c57829003601f168201915b50505050508152602001600782018054610f4290614639565b80601f0160208091040260200160405190810160405280929190818152602001828054610f6e90614639565b8015610fbb5780601f10610f9057610100808354040283529160200191610fbb565b820191906000526020600020905b815481529060010190602001808311610f9e57829003601f168201915b505050505081526020016008820154815260200160098201548152602001600a8201548152602001600b8201548152602001600c8201548152602001600d8201548152602001600e8201548152602001600f820160009054906101000a900460ff16151515158152602001600f820160019054906101000a900460ff1615151515815250509050919050565b6013602052826000526040600020602052816000526040600020818154811061106f57600080fd5b906000526020600020906004020160009250925050508060000154908060010154908060020154908060030160009054906101000a900460ff16908060030160019054906101000a900473ffffffffffffffffffffffffffffffffffffffff16905085565b601460205282600052604060002060205281600052604060002081815481106110fc57600080fd5b90600052602060002001600092509250509054906101000a900473ffffffffffffffffffffffffffffffffffffffff1681565b600260205282600052604060002082805160208101820180518482526020830160208501208183528095505050505050818154811061116d57600080fd5b9060005260206000209060040201600092509250505080600001805461119290614639565b80601f01602080910402602001604051908101604052809291908181526020018280546111be90614639565b801561120b5780601f106111e05761010080835404028352916020019161120b565b820191906000526020600020905b8154815290600101906020018083116111ee57829003601f168201915b5050505050908060010154908060020154908060030154905084565b600e6020528060005260406000206000915054906101000a900460ff1681565b601660205282600052604060002060205281600052604060002060205280600052604060002060009250925050508060000154908060010154908060020154908060030160009054906101000a900460ff16908060030160019054906101000a900473ffffffffffffffffffffffffffffffffffffffff16905085565b60008054906101000a900473ffffffffffffffffffffffffffffffffffffffff1681565b6003602052816000526040600020818154811061130457600080fd5b9060005260206000200160009150915050805461132090614639565b80601f016020809104026020016040519081016040528092919081815260200182805461134c90614639565b80156113995780601f1061136e57610100808354040283529160200191611399565b820191906000526020600020905b81548152906001019060200180831161137c57829003601f168201915b505050505081565b600d6020528060005260406000206000915090505481565b606060006113c7601961256f565b905060008167ffffffffffffffff8111156113e5576113e46132d4565b5b60405190808252806020026020018201604052801561141e57816020015b61140b612593565b8152602001906001900390816114035790505b50905060005b82811015611ee557600060018261143b919061469a565b905060006004600083815260200190815260200160002090508060405180610220016040529081600082018054806020026020016040519081016040528092919081815260200182805480156114e657602002820191906000526020600020905b8160009054906101000a900473ffffffffffffffffffffffffffffffffffffffff1673ffffffffffffffffffffffffffffffffffffffff168152602001906001019080831161149c575b5050505050815260200160018201805480602002602001604051908101604052809291908181526020016000905b828210156115e2578382906000526020600020906002020160405180604001604052908160008201805461154790614639565b80601f016020809104026020016040519081016040528092919081815260200182805461157390614639565b80156115c05780601f10611595576101008083540402835291602001916115c0565b820191906000526020600020905b8154815290600101906020018083116115a357829003601f168201915b5050505050815260200160018201548152505081526020019060010190611514565b50505050815260200160028201805480602002602001604051908101604052809291908181526020016000905b828210156116e757838290600052602060002090600302016040518060600160405290816000820154815260200160018201805461164c90614639565b80601f016020809104026020016040519081016040528092919081815260200182805461167890614639565b80156116c55780601f1061169a576101008083540402835291602001916116c5565b820191906000526020600020905b8154815290600101906020018083116116a857829003601f168201915b505050505081526020016002820154815250508152602001906001019061160f565b50505050815260200160038201805480602002602001604051908101604052809291908181526020016000905b8282101561183857838290600052602060002090600302016040518060600160405290816000820160009054906101000a900473ffffffffffffffffffffffffffffffffffffffff1673ffffffffffffffffffffffffffffffffffffffff1673ffffffffffffffffffffffffffffffffffffffff16815260200160018201805461179d90614639565b80601f01602080910402602001604051908101604052809291908181526020018280546117c990614639565b80156118165780601f106117eb57610100808354040283529160200191611816565b820191906000526020600020905b8154815290600101906020018083116117f957829003601f168201915b5050505050815260200160028201548152505081526020019060010190611714565b50505050815260200160048201805480602002602001604051908101604052809291908181526020016000905b82821015611c7857838290600052602060002090600902016040518061012001604052908160008201805480602002602001604051908101604052809291908181526020016000905b828210156119865783829060005260206000209060030201604051806060016040529081600082015481526020016001820180546118eb90614639565b80601f016020809104026020016040519081016040528092919081815260200182805461191790614639565b80156119645780601f1061193957610100808354040283529160200191611964565b820191906000526020600020905b81548152906001019060200180831161194757829003601f168201915b50505050508152602001600282015481525050815260200190600101906118ae565b50505050815260200160018201805480602002602001604051908101604052809291908181526020016000905b82821015611a8157838290600052602060002090600202016040518060400160405290816000820180546119e690614639565b80601f0160208091040260200160405190810160405280929190818152602001828054611a1290614639565b8015611a5f5780601f10611a3457610100808354040283529160200191611a5f565b820191906000526020600020905b815481529060010190602001808311611a4257829003601f168201915b50505050508152602001600182015481525050815260200190600101906119b3565b50505050815260200160028201805480602002602001604051908101604052809291908181526020016000905b82821015611b4057838290600052602060002090600202016040518060400160405290816000820160009054906101000a900473ffffffffffffffffffffffffffffffffffffffff1673ffffffffffffffffffffffffffffffffffffffff1673ffffffffffffffffffffffffffffffffffffffff16815260200160018201548152505081526020019060010190611aae565b5050505081526020016003820160009054906101000a900473ffffffffffffffffffffffffffffffffffffffff1673ffffffffffffffffffffffffffffffffffffffff1673ffffffffffffffffffffffffffffffffffffffff168152602001600482018054611bae90614639565b80601f0160208091040260200160405190810160405280929190818152602001828054611bda90614639565b8015611c275780601f10611bfc57610100808354040283529160200191611c27565b820191906000526020600020905b815481529060010190602001808311611c0a57829003601f168201915b5050505050815260200160058201548152602001600682015481526020016007820160009054906101000a900460ff1615151515815260200160088201548152505081526020019060010190611865565b505050508152602001600582018054611c9090614639565b80601f0160208091040260200160405190810160405280929190818152602001828054611cbc90614639565b8015611d095780601f10611cde57610100808354040283529160200191611d09565b820191906000526020600020905b815481529060010190602001808311611cec57829003601f168201915b50505050508152602001600682018054611d2290614639565b80601f0160208091040260200160405190810160405280929190818152602001828054611d4e90614639565b8015611d9b5780601f10611d7057610100808354040283529160200191611d9b565b820191906000526020600020905b815481529060010190602001808311611d7e57829003601f168201915b50505050508152602001600782018054611db490614639565b80601f0160208091040260200160405190810160405280929190818152602001828054611de090614639565b8015611e2d5780601f10611e0257610100808354040283529160200191611e2d565b820191906000526020600020905b815481529060010190602001808311611e1057829003601f168201915b505050505081526020016008820154815260200160098201548152602001600a8201548152602001600b8201548152602001600c8201548152602001600d8201548152602001600e8201548152602001600f820160009054906101000a900460ff16151515158152602001600f820160019054906101000a900460ff161515151581525050848481518110611ec557611ec46146f0565b5b602002602001018190525050508080611edd9061471f565b915050611424565b50809250505090565b611ef8601961257d565b6000611f04601961256f565b905060006004600083815260200190815260200160002090508181600d018190555084816005019080519060200190611f3e92919061261b565b5083816006019080519060200190611f5792919061261b565b50600081600f0160006101000a81548160ff021916908315150217905550600081600f0160016101000a81548160ff02191690831515021790555060008160080181905550428160090181905550600081600e0181905550600081600a0181905550600081600b01819055504281600c018190555060005b83518110156120a35781600301848281518110611fef57611fee6146f0565b5b6020026020010151908060018154018082558091505060019003906000526020600020906003020160009091909190915060008201518160000160006101000a81548173ffffffffffffffffffffffffffffffffffffffff021916908373ffffffffffffffffffffffffffffffffffffffff160217905550602082015181600101908051906020019061208392919061261b565b50604082015181600201555050808061209b9061471f565b915050611fcf565b50806004600084815260200190815260200160002060008201816000019080546120ce9291906126a1565b5060018201816001019080546120e59291906126f3565b5060028201816002019080546120fc929190612775565b506003820181600301908054612113929190612801565b50600482018160040190805461212a9291906128ea565b50600582018160050190805461213f90614639565b61214a929190612a59565b50600682018160060190805461215f90614639565b61216a929190612a59565b50600782018160070190805461217f90614639565b61218a929190612a59565b506008820154816008015560098201548160090155600a82015481600a0155600b82015481600b0155600c82015481600c0155600d82015481600d0155600e82015481600e0155600f820160009054906101000a900460ff1681600f0160006101000a81548160ff021916908315150217905550600f820160019054906101000a900460ff1681600f0160016101000a81548160ff0219169083151502179055509050508060058560405161223f91906145f3565b908152602001604051809103902060008201816000019080546122639291906126a1565b50600182018160010190805461227a9291906126f3565b506002820181600201908054612291929190612775565b5060038201816003019080546122a8929190612801565b5060048201816004019080546122bf9291906128ea565b5060058201816005019080546122d490614639565b6122df929190612a59565b5060068201816006019080546122f490614639565b6122ff929190612a59565b50600782018160070190805461231490614639565b61231f929190612a59565b506008820154816008015560098201548160090155600a82015481600a0155600b82015481600b0155600c82015481600c0155600d82015481600d0155600e82015481600e0155600f820160009054906101000a900460ff1681600f0160006101000a81548160ff021916908315150217905550600f820160019054906101000a900460ff1681600f0160016101000a81548160ff0219169083151502179055509050507fe6851f0b99a9d86e5d68a97f65218980851216ce297f789c6b6b7e82ca1d90c88286866040516123f693929190614768565b60405180910390a15050505050565b6015602052826000526040600020602052816000526040600020818154811061242d57600080fd5b90600052602060002001600092509250509054906101000a900473ffffffffffffffffffffffffffffffffffffffff1681565b6011602052816000526040600020602052806000526040600020600091509150508060000154908060010154908060020154908060030154908060040160009054906101000a900460ff16905085565b60015481565b601060205281600052604060002081815481106124d257600080fd5b9060005260206000209060060201600091509150508060000160009054906101000a900473ffffffffffffffffffffffffffffffffffffffff16908060010160009054906101000a900473ffffffffffffffffffffffffffffffffffffffff16908060020154908060030154908060040154908060050160009054906101000a900460ff16908060050160019054906101000a900460ff16905087565b600081600001549050919050565b6001816000016000828254019250508190555050565b6040518061022001604052806060815260200160608152602001606081526020016060815260200160608152602001606081526020016060815260200160608152602001600081526020016000815260200160008152602001600081526020016000815260200160008152602001600081526020016000151581526020016000151581525090565b82805461262790614639565b90600052602060002090601f0160209004810192826126495760008555612690565b82601f1061266257805160ff1916838001178555612690565b82800160010185558215612690579182015b8281111561268f578251825591602001919060010190612674565b5b50905061269d9190612ae6565b5090565b8280548282559060005260206000209081019282156126e25760005260206000209182015b828111156126e15782548255916001019190600101906126c6565b5b5090506126ef9190612ae6565b5090565b8280548282559060005260206000209060020281019282156127645760005260206000209160020282015b82811115612763578282600082018160000190805461273c90614639565b612747929190612a59565b506001820154816001015550509160020191906002019061271e565b5b5090506127719190612b03565b5090565b8280548282559060005260206000209060030281019282156127f05760005260206000209160030282015b828111156127ef5782826000820154816000015560018201816001019080546127c890614639565b6127d3929190612a59565b50600282015481600201555050916003019190600301906127a0565b5b5090506127fd9190612b32565b5090565b8280548282559060005260206000209060030281019282156128d95760005260206000209160030282015b828111156128d85782826000820160009054906101000a900473ffffffffffffffffffffffffffffffffffffffff168160000160006101000a81548173ffffffffffffffffffffffffffffffffffffffff021916908373ffffffffffffffffffffffffffffffffffffffff16021790555060018201816001019080546128b190614639565b6128bc929190612a59565b506002820154816002015550509160030191906003019061282c565b5b5090506128e69190612b69565b5090565b828054828255906000526020600020906009028101928215612a485760005260206000209160090282015b82811115612a475782826000820181600001908054612935929190612bbf565b50600182018160010190805461294c929190612c4b565b506002820181600201908054612963929190612ccd565b506003820160009054906101000a900473ffffffffffffffffffffffffffffffffffffffff168160030160006101000a81548173ffffffffffffffffffffffffffffffffffffffff021916908373ffffffffffffffffffffffffffffffffffffffff16021790555060048201816004019080546129df90614639565b6129ea929190612a59565b5060058201548160050155600682015481600601556007820160009054906101000a900460ff168160070160006101000a81548160ff02191690831515021790555060088201548160080155505091600901919060090190612915565b5b509050612a559190612d96565b5090565b828054612a6590614639565b90600052602060002090601f016020900481019282612a875760008555612ad5565b82601f10612a985780548555612ad5565b82800160010185558215612ad557600052602060002091601f016020900482015b82811115612ad4578254825591600101919060010190612ab9565b5b509050612ae29190612ae6565b5090565b5b80821115612aff576000816000905550600101612ae7565b5090565b5b80821115612b2e5760008082016000612b1d9190612e40565b600182016000905550600201612b04565b5090565b5b80821115612b6557600080820160009055600182016000612b549190612e40565b600282016000905550600301612b33565b5090565b5b80821115612bbb57600080820160006101000a81549073ffffffffffffffffffffffffffffffffffffffff0219169055600182016000612baa9190612e40565b600282016000905550600301612b6a565b5090565b828054828255906000526020600020906003028101928215612c3a5760005260206000209160030282015b82811115612c39578282600082015481600001556001820181600101908054612c1290614639565b612c1d929190612a59565b5060028201548160020155505091600301919060030190612bea565b5b509050612c479190612e80565b5090565b828054828255906000526020600020906002028101928215612cbc5760005260206000209160020282015b82811115612cbb5782826000820181600001908054612c9490614639565b612c9f929190612a59565b5060018201548160010155505091600201919060020190612c76565b5b509050612cc99190612eb7565b5090565b828054828255906000526020600020906002028101928215612d855760005260206000209160020282015b82811115612d845782826000820160009054906101000a900473ffffffffffffffffffffffffffffffffffffffff168160000160006101000a81548173ffffffffffffffffffffffffffffffffffffffff021916908373ffffffffffffffffffffffffffffffffffffffff16021790555060018201548160010155505091600201919060020190612cf8565b5b509050612d929190612ee6565b5090565b5b80821115612e3c5760008082016000612db09190612f2c565b600182016000612dc09190612f50565b600282016000612dd09190612f74565b6003820160006101000a81549073ffffffffffffffffffffffffffffffffffffffff0219169055600482016000612e079190612e40565b600582016000905560068201600090556007820160006101000a81549060ff0219169055600882016000905550600901612d97565b5090565b508054612e4c90614639565b6000825580601f10612e5e5750612e7d565b601f016020900490600052602060002090810190612e7c9190612ae6565b5b50565b5b80821115612eb357600080820160009055600182016000612ea29190612e40565b600282016000905550600301612e81565b5090565b5b80821115612ee25760008082016000612ed19190612e40565b600182016000905550600201612eb8565b5090565b5b80821115612f2857600080820160006101000a81549073ffffffffffffffffffffffffffffffffffffffff0219169055600182016000905550600201612ee7565b5090565b5080546000825560030290600052602060002090810190612f4d9190612e80565b50565b5080546000825560020290600052602060002090810190612f719190612eb7565b50565b5080546000825560020290600052602060002090810190612f959190612ee6565b50565b6000604051905090565b600080fd5b600080fd5b6000819050919050565b612fbf81612fac565b8114612fca57600080fd5b50565b600081359050612fdc81612fb6565b92915050565b600060208284031215612ff857612ff7612fa2565b5b600061300684828501612fcd565b91505092915050565b600073ffffffffffffffffffffffffffffffffffffffff82169050919050565b600061303a8261300f565b9050919050565b61304a8161302f565b82525050565b60006020820190506130656000830184613041565b92915050565b6130748161302f565b811461307f57600080fd5b50565b6000813590506130918161306b565b92915050565b6000806000606084860312156130b0576130af612fa2565b5b60006130be86828701613082565b93505060206130cf86828701612fcd565b92505060406130e086828701613082565b9150509250925092565b6130f381612fac565b82525050565b60008115159050919050565b61310e816130f9565b82525050565b600060a08201905061312960008301886130ea565b61313660208301876130ea565b61314360408301866130ea565b6131506060830185613105565b61315d6080830184613041565b9695505050505050565b6000806040838503121561317e5761317d612fa2565b5b600061318c85828601613082565b925050602061319d85828601612fcd565b9150509250929050565b7f4e487b7100000000000000000000000000000000000000000000000000000000600052602160045260246000fd5b600481106131e7576131e66131a7565b5b50565b60008190506131f8826131d6565b919050565b6000613208826131ea565b9050919050565b613218816131fd565b82525050565b600060a08201905061323360008301886130ea565b61324060208301876130ea565b61324d60408301866130ea565b61325a60608301856130ea565b613267608083018461320f565b9695505050505050565b60006020828403121561328757613286612fa2565b5b600061329584828501613082565b91505092915050565b60006020820190506132b360008301846130ea565b92915050565b600080fd5b600080fd5b6000601f19601f8301169050919050565b7f4e487b7100000000000000000000000000000000000000000000000000000000600052604160045260246000fd5b61330c826132c3565b810181811067ffffffffffffffff8211171561332b5761332a6132d4565b5b80604052505050565b600061333e612f98565b905061334a8282613303565b919050565b600067ffffffffffffffff82111561336a576133696132d4565b5b613373826132c3565b9050602081019050919050565b82818337600083830152505050565b60006133a261339d8461334f565b613334565b9050828152602081018484840111156133be576133bd6132be565b5b6133c9848285613380565b509392505050565b600082601f8301126133e6576133e56132b9565b5b81356133f684826020860161338f565b91505092915050565b60006020828403121561341557613414612fa2565b5b600082013567ffffffffffffffff81111561343357613432612fa7565b5b61343f848285016133d1565b91505092915050565b600081519050919050565b600082825260208201905092915050565b6000819050602082019050919050565b61347d8161302f565b82525050565b600061348f8383613474565b60208301905092915050565b6000602082019050919050565b60006134b382613448565b6134bd8185613453565b93506134c883613464565b8060005b838110156134f95781516134e08882613483565b97506134eb8361349b565b9250506001810190506134cc565b5085935050505092915050565b600081519050919050565b600082825260208201905092915050565b6000819050602082019050919050565b600081519050919050565b600082825260208201905092915050565b60005b8381101561356c578082015181840152602081019050613551565b8381111561357b576000848401525b50505050565b600061358c82613532565b613596818561353d565b93506135a681856020860161354e565b6135af816132c3565b840191505092915050565b6135c381612fac565b82525050565b600060408301600083015184820360008601526135e68282613581565b91505060208301516135fb60208601826135ba565b508091505092915050565b600061361283836135c9565b905092915050565b6000602082019050919050565b600061363282613506565b61363c8185613511565b93508360208202850161364e85613522565b8060005b8581101561368a578484038952815161366b8582613606565b94506136768361361a565b925060208a01995050600181019050613652565b50829750879550505050505092915050565b600081519050919050565b600082825260208201905092915050565b6000819050602082019050919050565b60006060830160008301516136e060008601826135ba565b50602083015184820360208601526136f88282613581565b915050604083015161370d60408601826135ba565b508091505092915050565b600061372483836136c8565b905092915050565b6000602082019050919050565b60006137448261369c565b61374e81856136a7565b935083602082028501613760856136b8565b8060005b8581101561379c578484038952815161377d8582613718565b94506137888361372c565b925060208a01995050600181019050613764565b50829750879550505050505092915050565b600081519050919050565b600082825260208201905092915050565b6000819050602082019050919050565b60006060830160008301516137f26000860182613474565b506020830151848203602086015261380a8282613581565b915050604083015161381f60408601826135ba565b508091505092915050565b600061383683836137da565b905092915050565b6000602082019050919050565b6000613856826137ae565b61386081856137b9565b935083602082028501613872856137ca565b8060005b858110156138ae578484038952815161388f858261382a565b945061389a8361383e565b925060208a01995050600181019050613876565b50829750879550505050505092915050565b600081519050919050565b600082825260208201905092915050565b6000819050602082019050919050565b600081519050919050565b600082825260208201905092915050565b6000819050602082019050919050565b600060608301600083015161393060008601826135ba565b50602083015184820360208601526139488282613581565b915050604083015161395d60408601826135ba565b508091505092915050565b60006139748383613918565b905092915050565b6000602082019050919050565b6000613994826138ec565b61399e81856138f7565b9350836020820285016139b085613908565b8060005b858110156139ec57848403895281516139cd8582613968565b94506139d88361397c565b925060208a019950506001810190506139b4565b50829750879550505050505092915050565b600081519050919050565b600082825260208201905092915050565b6000819050602082019050919050565b60006040830160008301518482036000860152613a478282613581565b9150506020830151613a5c60208601826135ba565b508091505092915050565b6000613a738383613a2a565b905092915050565b6000602082019050919050565b6000613a93826139fe565b613a9d8185613a09565b935083602082028501613aaf85613a1a565b8060005b85811015613aeb5784840389528151613acc8582613a67565b9450613ad783613a7b565b925060208a01995050600181019050613ab3565b50829750879550505050505092915050565b600081519050919050565b600082825260208201905092915050565b6000819050602082019050919050565b604082016000820151613b3f6000850182613474565b506020820151613b5260208501826135ba565b50505050565b6000613b648383613b29565b60408301905092915050565b6000602082019050919050565b6000613b8882613afd565b613b928185613b08565b9350613b9d83613b19565b8060005b83811015613bce578151613bb58882613b58565b9750613bc083613b70565b925050600181019050613ba1565b5085935050505092915050565b613be4816130f9565b82525050565b6000610120830160008301518482036000860152613c088282613989565b91505060208301518482036020860152613c228282613a88565b91505060408301518482036040860152613c3c8282613b7d565b9150506060830151613c516060860182613474565b5060808301518482036080860152613c698282613581565b91505060a0830151613c7e60a08601826135ba565b5060c0830151613c9160c08601826135ba565b5060e0830151613ca460e0860182613bdb565b50610100830151613cb96101008601826135ba565b508091505092915050565b6000613cd08383613bea565b905092915050565b6000602082019050919050565b6000613cf0826138c0565b613cfa81856138cb565b935083602082028501613d0c856138dc565b8060005b85811015613d485784840389528151613d298582613cc4565b9450613d3483613cd8565b925060208a01995050600181019050613d10565b50829750879550505050505092915050565b6000610220830160008301518482036000860152613d7882826134a8565b91505060208301518482036020860152613d928282613627565b91505060408301518482036040860152613dac8282613739565b91505060608301518482036060860152613dc6828261384b565b91505060808301518482036080860152613de08282613ce5565b91505060a083015184820360a0860152613dfa8282613581565b91505060c083015184820360c0860152613e148282613581565b91505060e083015184820360e0860152613e2e8282613581565b915050610100830151613e456101008601826135ba565b50610120830151613e5a6101208601826135ba565b50610140830151613e6f6101408601826135ba565b50610160830151613e846101608601826135ba565b50610180830151613e996101808601826135ba565b506101a0830151613eae6101a08601826135ba565b506101c0830151613ec36101c08601826135ba565b506101e0830151613ed86101e0860182613bdb565b50610200830151613eed610200860182613bdb565b508091505092915050565b60006020820190508181036000830152613f128184613d5a565b905092915050565b600080600060608486031215613f3357613f32612fa2565b5b6000613f4186828701613082565b9350506020613f5286828701612fcd565b9250506040613f6386828701612fcd565b9150509250925092565b600080600060608486031215613f8657613f85612fa2565b5b6000613f9486828701613082565b935050602084013567ffffffffffffffff811115613fb557613fb4612fa7565b5b613fc1868287016133d1565b9250506040613fd286828701612fcd565b9150509250925092565b600082825260208201905092915050565b6000613ff882613532565b6140028185613fdc565b935061401281856020860161354e565b61401b816132c3565b840191505092915050565b600060808201905081810360008301526140408187613fed565b905061404f60208301866130ea565b61405c60408301856130ea565b61406960608301846130ea565b95945050505050565b60006020820190506140876000830184613105565b92915050565b600060208201905081810360008301526140a78184613fed565b905092915050565b600081519050919050565b600082825260208201905092915050565b6000819050602082019050919050565b60006102208301600083015184820360008601526140f982826134a8565b915050602083015184820360208601526141138282613627565b9150506040830151848203604086015261412d8282613739565b91505060608301518482036060860152614147828261384b565b915050608083015184820360808601526141618282613ce5565b91505060a083015184820360a086015261417b8282613581565b91505060c083015184820360c08601526141958282613581565b91505060e083015184820360e08601526141af8282613581565b9150506101008301516141c66101008601826135ba565b506101208301516141db6101208601826135ba565b506101408301516141f06101408601826135ba565b506101608301516142056101608601826135ba565b5061018083015161421a6101808601826135ba565b506101a083015161422f6101a08601826135ba565b506101c08301516142446101c08601826135ba565b506101e08301516142596101e0860182613bdb565b5061020083015161426e610200860182613bdb565b508091505092915050565b600061428583836140db565b905092915050565b6000602082019050919050565b60006142a5826140af565b6142af81856140ba565b9350836020820285016142c1856140cb565b8060005b858110156142fd57848403895281516142de8582614279565b94506142e98361428d565b925060208a019950506001810190506142c5565b50829750879550505050505092915050565b60006020820190508181036000830152614329818461429a565b905092915050565b600067ffffffffffffffff82111561434c5761434b6132d4565b5b602082029050602081019050919050565b600080fd5b600080fd5b600080fd5b60006060828403121561438257614381614362565b5b61438c6060613334565b9050600061439c84828501613082565b600083015250602082013567ffffffffffffffff8111156143c0576143bf614367565b5b6143cc848285016133d1565b60208301525060406143e084828501612fcd565b60408301525092915050565b60006143ff6143fa84614331565b613334565b905080838252602082019050602084028301858111156144225761442161435d565b5b835b8181101561446957803567ffffffffffffffff811115614447576144466132b9565b5b808601614454898261436c565b85526020850194505050602081019050614424565b5050509392505050565b600082601f830112614488576144876132b9565b5b81356144988482602086016143ec565b91505092915050565b6000806000606084860312156144ba576144b9612fa2565b5b600084013567ffffffffffffffff8111156144d8576144d7612fa7565b5b6144e4868287016133d1565b935050602084013567ffffffffffffffff81111561450557614504612fa7565b5b614511868287016133d1565b925050604084013567ffffffffffffffff81111561453257614531612fa7565b5b61453e86828701614473565b9150509250925092565b600060e08201905061455d600083018a613041565b61456a6020830189613041565b61457760408301886130ea565b61458460608301876130ea565b61459160808301866130ea565b61459e60a0830185613105565b6145ab60c0830184613105565b98975050505050505050565b600081905092915050565b60006145cd82613532565b6145d781856145b7565b93506145e781856020860161354e565b80840191505092915050565b60006145ff82846145c2565b915081905092915050565b7f4e487b7100000000000000000000000000000000000000000000000000000000600052602260045260246000fd5b6000600282049050600182168061465157607f821691505b602082108114156146655761466461460a565b5b50919050565b7f4e487b7100000000000000000000000000000000000000000000000000000000600052601160045260246000fd5b60006146a582612fac565b91506146b083612fac565b9250827fffffffffffffffffffffffffffffffffffffffffffffffffffffffffffffffff038211156146e5576146e461466b565b5b828201905092915050565b7f4e487b7100000000000000000000000000000000000000000000000000000000600052603260045260246000fd5b600061472a82612fac565b91507fffffffffffffffffffffffffffffffffffffffffffffffffffffffffffffffff82141561475d5761475c61466b565b5b600182019050919050565b600060608201905061477d60008301866130ea565b818103602083015261478f8185613fed565b905081810360408301526147a38184613fed565b905094935050505056fea26469706673582212207df2c62017760fab8a6f896c92b20356faa2ec52b6e4f83850995245431b580a64736f6c634300080c0033",
  "linkReferences": {},
  "deployedLinkReferences": {}
}